:10000000F5C0000024C1000022C1000020C1000092
:100010001EC100001CC100001AC1000018C1000070
:1000200016C1000014C1000012C1000010C1000080
:100030000EC100000CC100000AC1000008C1000090
:1000400006C1000004C1000002C1000000C10000A0
:10005000FEC00000FCC00000FAC000000C94840E3A
:10006000F6C000000C944E0E0C94240EF0C000005C
:10007000EEC00000ECC00000EAC00000E8C00000D4
:10008000E6C00000E4C00000E2C00000E0C00000E4
:10009000DEC00000DCC00000DAC00000D8C00000F4
:1000A000D6C00000D4C00000D2C00000D0C0000004
:1000B000CEC00000CCC00000CAC00000C8C0000014
:1000C000C6C00000C4C00000C2C00000C0C0000024
:1000D000BEC00000BCC00000BAC00000B8C0000034
:1000E000B6C0000000000A0B02090C0D0E08070341
:1000F00004010000000000000000000000000000FB
:1001000000000000000000000000000000000000EF
:1001100012111000000000000000000000000000AC
:100120000000000000000000000000002200250088
:1001300028002B002E0031003400020100000501D0
:1001400008010B0100002100240027002A002D00D7
:100150003000330001010000040107010A01050518
:100160000505070508080808020202020A0A08082D
:10017000040404040101010101010101030303035B
:1001800003030303040707070C0C0C0C0C0C0C0CEA
:100190000202020206060606060606060B0B0B0BFB
:1001A0000B0B0B0B01021020200808102040102020
:1001B000408002010201080402010102040810202B
:1001C0004080804020100804020180040201804029
:1001D0002010080402010804020101020408102092
:1001E00040800102040810204080CE0E11241FBE62
:1001F000CFEFD1E2DEBFCDBF00E00CBF14E0A0E046
:10020000B2E0EEE0FBE200E00BBF02C007900D920F
:10021000A632B107D9F729E0A6E2B4E001C01D92E9
:10022000AE3BB207E1F710E0C6EFD0E000E006C059
:1002300021970109802FFE010E944613C53FD10777
:1002400080E00807A9F70E94D00F0C948515D8CE3E
:10025000FC0182819381A481B58180933B049093BA
:100260003C04A0933D04B0933E04089590E0FC014B
:10027000EC55FE4F2491825A9E4FFC0184918823B5
:1002800099F090E0880F991FFC01EC5BFE4FA5915F
:10029000B491FC01E65DFE4F859194918FB7F8947F
:1002A000EC91E22BEC938FBF0895AF92BF92CF9267
:1002B000DF92EF92FF920F931F93CF93DF936C0126
:1002C0007B018B01040F151FEB015E01AE18BF0807
:1002D000C017D10759F06991D601ED91FC910190B9
:1002E000F081E02DC6011995892B79F7C501DF91C1
:1002F000CF911F910F91FF90EF90DF90CF90BF9023
:10030000AF900895FC01538D448D252F30E0842F4C
:1003100090E0821B930B541710F0CF96089501972D
:100320000895FC01918D828D981761F0A28DAE0F1A
:10033000BF2FB11D5D968C91928D9F5F9F73928FA1
:1003400090E008958FEF9FEF0895FC01918D828DCD
:10035000981731F0828DE80FF11D858D90E008959A
:100360008FEF9FEF0895FC01918D228D892F90E0F2
:10037000805C9F4F821B91098F739927089583E4B6
:1003800094E0F1DF21E0892B09F420E0822F089529
:10039000FC01A48DA80FB92FB11DA35ABF4F2C91FA
:1003A000848D90E001968F739927848FA689B789F1
:1003B0002C93A089B1898C91837080648C93938DE8
:1003C000848D981306C00288F389E02D80818F7D8B
:1003D00080830895EF92FF920F931F93CF93DF9343
:1003E000EC0181E0888F9B8D8C8D98131AC0E88971
:1003F000F989808185FF15C09FB7F894EE89FF8940
:100400006083E889F98980818370806480839FBFDD
:1004100081E090E0DF91CF911F910F91FF90EF90DD
:100420000895F62E0B8D10E00F5F1F4F0F731127ED
:10043000E02E8C8D8E110BC00FB607FCFACFE88929
:10044000F989808185FFF5CFCE01A2DFF2CFEB8D58
:10045000EC0FFD2FF11DE35AFF4FF0829FB7F89488
:100460000B8FEA89FB8980818062D0CFCF93DF93A5
:10047000EC01888D8823B1F0AA89BB89E889F989C4
:100480008C9185FD03C0808186FD0CC00FB607FCF2
:10049000F7CF8C9185FFF2CF808185FFEDCFCE0124
:1004A00077DFEACFDF91CF91089580E090E0892B4C
:1004B00021F065DF81110E94000080E090E0892B2F
:1004C00049F080E090E0892B29F00E940000811122
:1004D0000E94000080E090E0892B49F080E090E0ED
:1004E000892B29F00E94000081110E94000080E009
:1004F00090E0892B49F080E090E0892B29F00E9460
:10050000000081110C9400000895282F30E0F901BB
:10051000EC51FF4F9491F901EC55FE4F4491225A52
:100520003E4FF9012491222309F435C0992311F19A
:1005300091509231F8F4E92FF0E08827ED55FD4F06
:100540008F4F0C944613D402D802B502CC02D002CD
:10055000BA02DB02E102E502EB02EF02F302F9026A
:10056000FD02BA02010307030B03809180008F771D
:1005700080938000E22FF0E0EE0FFF1FE65DFE4F5C
:10058000A591B4918FB7F894EC91611148C0409552
:100590004E234C938FBF0895809180008F7DE8CFCC
:1005A00080918000877FE4CF84B58F7784BDE2CFD0
:1005B00084B58F7DFBCF8091B0008F778093B000A2
:1005C000D9CF8091B0008F7DF9CF809190008F7747
:1005D00080939000CFCF809190008F7DF9CF809154
:1005E0009000877FF5CF8091A0008F778093A00047
:1005F000C1CF8091A0008F7DF9CF8091A000877F2F
:10060000F5CF809120018F7780932001B3CF809127
:1006100020018F7DF9CF80912001877FF5CF4E2B70
:10062000B8CF61E0019709F060E083E06EDF61E040
:1006300082E06BDF8BEA94E00197F1F760E082E003
:1006400064CF2FB7F89460912B0470912C048091A3
:100650002D0490912E042FBF08958A579B4FFC01C3
:100660008081089582E992E0089583EB92E00895F5
:10067000FC01868597850895AF92BF92CF92DF9255
:10068000EF92FF920F931F93CF93DF9300D01F92AF
:100690001F92CDB7DEB7643671054CF0FC01EA5706
:1006A000FB4F2081F12CE12C222309F476C0DA01E2
:1006B0007B018C01BC01615E7D4FED91FC9101904D
:1006C000F081E02DCA011995680128EEC21A2DEFBC
:1006D000D20A2FEFD6012C93F801E75EFD4F2EEFE3
:1006E000208331968083319690833196292F280F6D
:1006F000209520833196E0821696FC9245E050E0EA
:1007000030E020E0DC011696A417B50734F06191C3
:10071000260F311D4F5F5F4FF7CF7C01B8E0EB0E26
:10072000F11C800F911FFC01E15EFD4F209520839D
:10073000E1E0EE16E2E0FE06B4F45601C5018C19C4
:100740009D098E159F054CF5D80112968D919C91AF
:10075000F50161915F01DC01ED91FC910190F08167
:10076000E02D1995EBCF8EE392E09A83898383E0A5
:100770008B8384EC92E09D838C83D801ED91FC9176
:100780000190F081E02DAE014F5F5F4F67E070E0B8
:10079000C8011995EE24EA94FE2CC7010F900F9022
:1007A0000F900F900F90DF91CF911F910F91FF90BD
:1007B000EF90DF90CF90BF90AF9008950F931F936D
:1007C000CF93DF9300D000D000D01F92CDB7DEB71B
:1007D0008C0182E392E09A8389831B821C821D82B2
:1007E0001E821F82188619861A86D801ED91FC9107
:1007F0000190F081E02DAE014F5F5F4F6AE070E045
:10080000C80119951EDFF801608771878287938779
:100810002A960FB6F894DEBF0FBECDBFDF91CF9101
:100820001F910F910895CF92DF92EF92FF92DC011A
:100830001D921D921D921C921397FB0130E020E047
:10084000419150E0022E02C0440F551F0A94E2F776
:10085000052E000C660B770BCD90DD90ED90FC9093
:1008600013974C295D296E297F294D935D936D93D4
:100870007C931397285F3F4F2032310509F7FF9093
:10088000EF90DF90CF900895FC0140835183128256
:10089000138208958DEF92E008958EE193E008951C
:1008A0008CE293E0089586E092E008958DE493E071
:1008B00008958EE693E008954F925F926F927F9233
:1008C0008F929F92AF92BF92EF92FF920F931F93DE
:1008D000CF93DF9300D01F92CDB7DEB77C018B01A1
:1008E000FB018191BF01F7018283CE0101969BDF5D
:1008F00089819A81AB81BC814C015D01F5E08F0E4D
:10090000911CA11CB11CA8014C5F5F4FFA0125E0AE
:1009100030E02901712C612C481459046A047B04CD
:1009200028F4618161932F5F3F4FF3CFF801E80F07
:10093000F91F1482F7015483438305960F900F909B
:100940000F900F90DF91CF911F910F91FF90EF903B
:10095000BF90AF909F908F907F906F905F904F90DF
:10096000089581E893E0089582EA93E008954F9214
:100970005F926F927F928F929F92AF92BF92CF922F
:10098000DF92EF92FF920F931F93CF93DF93CDB738
:10099000DEB72C970FB6F894DEBF0FBECDBF7C013B
:1009A0008B01DB018C9190E0F70193838283119698
:1009B0002C91922B938382836E5F7F4FCE010196A1
:1009C00032DF89809A80AB80BC8024013501F6E05B
:1009D0004F0E511C611C711C98012B5F3F4FF90198
:1009E00086E090E0AC0170E060E0441555056605D6
:1009F000770520F4418141930196F4CFB4016A5FF9
:100A00007F4FF801E80DF91D1582D70115963C932B
:100A10002E931497600F711FCE01059604DFBAE084
:100A20008B0E911C4D805E806F807884C401092CF0
:100A3000000CAA0BBB0B5C016D01A40CB51CC61C01
:100A4000D71CF801E80DF91DAF01401B510B70E0F8
:100A500060E04A155B056C057D0538F42191AF0116
:100A600042505109DA012C93EFCF480C591CB801C0
:100A7000640D751DFB0131971082C4010197800F31
:100A8000911FF70197838683CE010996CCDE9201F0
:100A90002C5F3F4F89849A84AB84BC84A901032EC8
:100AA000000C660B770B480D591D6A1D7B1DF80164
:100AB000E20FF31FCF01801B910BB0E0A0E0841781
:100AC0009507A607B70728F48191DF0112978C9349
:100AD000F1CFC901880D991DF801E80FF91FDF0159
:100AE00011971C9221503109020F131FD70119963B
:100AF0001C930E9318972181428150E070E060E0D2
:100B0000BA0155274427522B2081422B2381722B77
:100B1000F701428753876487758704962C960FB632
:100B2000F894DEBF0FBECDBFDF91CF911F910F9123
:100B3000FF90EF90DF90CF90BF90AF909F908F90FD
:100B40007F906F905F904F9008958BEB93E00895A6
:100B50008CED93E00895FC01DB014C9150E070E0D6
:100B600060E0428353836483758311968C9111975F
:100B7000582B428353836483758312968C9112970A
:100B8000682B428353836483758313968C911397E8
:100B9000782B428353836483758314964C91149706
:100BA00050E070E060E04683578360877187159658
:100BB0008C911597582B46835783608771871696BB
:100BC0008C911697682B4683578360877187179699
:100BD0008C91782B468357836087718788E090E0FB
:100BE0000895DC01FB0112968C9112978083139675
:100BF0008C911397818314968C9114978283159608
:100C00008C911597838316968C91169784831796EB
:100C10008C911797858318968C91189786831996CF
:100C20008C91878388E090E00895CF92DF92EF92D5
:100C3000FF920F931F93FC01DB01C3800C2D10E08A
:100C400030E020E045E036952795179507954A95C1
:100C5000D1F70D931D932D933C9313978481C82E48
:100C6000D12CF12CE12C53E0CC0CDD1CEE1CFF1C34
:100C70005A95D1F7C02AD12AE22AF32ACD92DD92E1
:100C8000ED92FC9213978581082F10E030E020E070
:100C90006BE0000F111F221F331F6A95D1F70C293B
:100CA0001D292E293F290D931D932D933C931397B6
:100CB000468150E070E060E083E1440F551F661FFD
:100CC000771F8A95D1F74427552768777727042B14
:100CD000152B262B372B0D931D932D933C93139798
:100CE000478150E070E060E094E0440F551F661FBC
:100CF000771F9A95D1F7407F577066277727C68070
:100D0000D12CF12CE12C84E0F694E794D794C7948D
:100D10008A95D1F74C295D296E297F294115510506
:100D200061057105A1F0405853406109710997E1CF
:100D3000440F551F661F771F9A95D1F7402B512BF3
:100D4000622B732B4D935D936D937C931397478127
:100D500050E070E060E0742F662755274427442751
:100D60005527662770780D911D912D913C91139711
:100D7000402B512B622B732B4D935D936D937C9382
:100D8000139788E090E01F910F91FF90EF90DF9014
:100D9000CF900895EF92FF920F931F93CF93DF931D
:100DA0008C017B01BC016E5F7F4FC7013EDFEC0110
:100DB000B8016A5F7F4FC7018C0F9D1F36DFC80FD8
:100DC000D91FB801665F7F4FC7018C0F9D1F2DDFB4
:100DD0008C0F9D1FDF91CF911F910F91FF90EF908E
:100DE00008959B01BC016E5F7F4FC9011ECF0F9319
:100DF0001F93CF93DF938C01EC012696CE01F1DF98
:100E0000D8011C96ED91FC91CE01DF91CF911F91FD
:100E10000F9119948F929F92AF92BF92CF92DF92CF
:100E2000EF92FF92CF93DF93EC014A015B01DB016C
:100E3000CA0147E1B595A795979587954A95D1F74A
:100E40009927AA27BB270097A105B10521F0805853
:100E50009C4FAF4FBF4F188219821A82B501A4016F
:100E600025E0440F551F661F771F2A95D1F74B8346
:100E7000B501A40133E075956795579547953A9567
:100E8000D1F74C83B501A401EBE0759567955795B3
:100E90004795EA95D1F74D83B501A401F3E1759526
:100EA000679557954795FA95D1F74F706C017D017D
:100EB00024E0CC0CDD1CEE1CFF1C2A95D1F74C293C
:100EC0004E836C017D0134E0F594E794D794C79488
:100ED0003A95D1F720E030E0A901C501B4010E94A4
:100EE000851287FD0EC0CF8288E090E0DF91CF9120
:100EF000FF90EF90DF90CF90BF90AF909F908F903A
:100F000008958C2D80688F83EFCFEF92FF920F931F
:100F10001F93CF93DF937C018B01FC0142815381AE
:100F200064817581C80176DFEC01F7014681578144
:100F300060857185C8018C0F9D1F6CDFC80FD91F9C
:100F4000F7014285538564857585C8018C0F9D1F07
:100F500061DF8C0F9D1FDF91CF911F910F91FF904B
:100F6000EF9008959B01FC0142815381648175815A
:100F7000C90150CF2F923F924F925F926F927F9212
:100F80008F929F92AF92BF92CF92DF92EF92FF9299
:100F90000F931F93CF93DF93CDB7DEB72E970FB686
:100FA000F894DEBF0FBECDBF8C016B01DB018D90CD
:100FB0009D90AD90BC90FC0182819381A481B5810C
:100FC00088159905AA05BB0570F4B401660F771F53
:100FD000660F771F828593850E947B13D8011B962D
:100FE0009C938E931A97F80182829382A482B58291
:100FF000C60140E050E0BA01A4E0EA2EF12C9801CD
:101000002A5F3F4FDC011596EC91159716964C9090
:101010001697512C712C612C3201552444245E2AE0
:101020001496EC9114974E2A1796EC917E2AD701CC
:101030001701E4E02E0E311C71010496F801828044
:101040009380A480B580481559056A057B05A8F4EE
:1010500046825782608671861497A284B384AA0D53
:10106000BB1DE4E0BE2EF90101900D92BA94E1F7A8
:101070004F5F5F4F6F4F7F4FC5CF84859585A685A6
:10108000B78584159505A605B70570F4B201660FFE
:10109000771F660F771F848995890E947B13D8017B
:1010A00055969C938E935497F80144865586668690
:1010B0007786C601820D931D412C512C32011C01F3
:1010C0009801205F3F4FDC0111966C9111971296A9
:1010D0008C901297912CB12CA12C54019924882426
:1010E000962A6C91862A13966C91B62AB4E0EB0E80
:1010F000F11CF801448555856685778544165506AB
:1011000066067706C0F4808A918AA28AB38ABC01F7
:1011100062197309A489B589A60FB71F64E0F901A4
:1011200001900D926A95E1F7BFEF4B1A5B0A6B0ACB
:101130007B0A0496C8CF86899789A08DB18D8815C2
:101140009905AA05BB0560F4B401660F771F848D6D
:10115000958D0E947B13D8015D969C938E935C972E
:10116000F801868A978AA08EB18E412C512C3201CB
:101170001801FAE12F0E311CF80186899789A08D9C
:10118000B18D481659066A067B0608F05BC0B601A9
:101190006E0D7F1DCE01019646DB97012C5F3F4F00
:1011A0003E872D8789809A80AB80BC80C901032E41
:1011B000000CAA0BBB0BAC01BD01480D591D6A1DEB
:1011C0007B1D49875A876B877C87F901EC0DFD1DD4
:1011D0009F012C193D09B90190E080E029853A85ED
:1011E0004B855C85621773078407950728F4219166
:1011F000DF0112972C93ECCFED84FE84E80CF91CF0
:10120000F601EE0DFF1D319710828D859E850197A9
:101210008C0D9D1DD8015B969C938E935A97C201AD
:10122000880F991F5C96ED91FC91E80FF91FD10191
:101230008D919C9191838083BFEF4B1A5B0A6B0A5F
:101240007B0A9ACFC7012E960FB6F894DEBF0FBE69
:10125000CDBFDF91CF911F910F91FF90EF90DF9065
:10126000CF90BF90AF909F908F907F906F905F9046
:101270004F903F902F9008952F923F924F925F9200
:101280006F927F928F929F92AF92BF92CF92DF9296
:10129000EF92FF920F931F93CF93DF93CDB7DEB7FB
:1012A000A6970FB6F894DEBF0FBECDBF8C01C9D98B
:1012B0004B015C01980125573B4F3E8B2D8BF9016B
:1012C00080819181A281B38175016401C81AD90A14
:1012D000EA0AFB0AD701C601893F9A42A105B10576
:1012E00010F035971082180134E8231A3BEF330AC7
:1012F000D1018D919C91892B79F0F801E157FB4F39
:1013000080819181A281B38188159905AA05BB05C9
:1013100018F4F1011182108298012C573B4F3A8B3F
:10132000298BA80140585B4F5C8B4B8BC8014896BA
:10133000988F8F8BD801AA57BB4FBC8FAB8FF8010A
:10134000EC56FB4FFE8FED8F215F3F4F38A32F8F61
:1013500042505109588B4F8786599B4F9A8F898FDE
:101360001996BAA3A9A3A50194012C5E3F4F4F4F34
:101370005F4F2BA33CA34DA35EA3F80184899589FD
:10138000A689B789892B8A2B8B2BB1F5D8011296A8
:101390008D919C91DC01ED91FC910284F385E02D0F
:1013A00019959C0197FF3BC0F801EA57FB4F8081DC
:1013B0008823F9F07801B9E7EB1ABBEFFB0AF701D4
:1013C00080819181A281B381A5019401281B390BF1
:1013D0004A0B5B0BDA01C901853C9940A105B105B7
:1013E00040F0C801EBD9D7018D929D92AD92BC928D
:1013F000139790E080E0B2C124D9681979098A096D
:101400009B09F801C488D588E688F788C616D706F0
:10141000E806F90608F0BACF8EEF9FEF9FC1A989C1
:10142000BA898D919C911197820F931F8D939C93F4
:10143000F1014081518147305105F9F4A98DBA8DF0
:101440008D919C911197AC014F5F5F4F4D935C93D1
:10145000800F911FFC01208FAF85B8898D919C91E1
:10146000119701978D939C93892B09F086CF88E083
:1014700090E0F1019183808380CF4115510519F5EA
:101480002F3F310581F481E090E091838083CBA0F0
:10149000DCA0EDA0FEA0A9A1BAA1CD92DD92ED92B3
:1014A000FC9213976ACFCDD8681979098A099B09EC
:1014B000693873418105910508F45FCFF801EA5757
:1014C000FB4F1082A9CF4130510581F42E3F3105E9
:1014D00019F482E090E0CDCF11821082EB8DFC8D6B
:1014E000808181114ACFC80169D947CF4230510567
:1014F00091F4AF85B8892D933C93E98DFA8D1182D3
:10150000108283E090E0D1018D939C93E989FA8960
:101510003183208332CF4330510571F4322F22279B
:10152000AF85B8898D919C911197280F391F2D9304
:101530003C9384E090E09DCF4430510579F460E025
:1015400071E00E9411138F3F910529F485E090E02E
:101550009183808312CF118210820FCF45305105C5
:1015600069F4AB89BC892D933C9386E090E091832C
:101570008083A989BA892D933C93FFCE46305105CB
:10158000A1F4322F2227EB89FC8980819181280FD9
:10159000391F3183208387E090E0D1018D939C93A4
:1015A000EF85F889808191815FCF4830510509F03E
:1015B000E4CE1182108260E071E00E9411138F3F2F
:1015C000910509F0DACEAB89BC89ED91FC91309799
:1015D00009F0DDC0C801F2D886E292E09A838983DF
:1015E0001C821B828CEF92E09E838D8398878F8371
:1015F0009A8789871B861C861D861E866801B8EE21
:10160000CB1ABBEFDB0A7801E6EBEE1AEBEFFE0A32
:10161000412C22E0522E612C712CD601ED91FC91CF
:101620003097A9F1848195819C838B8380819181FE
:101630009E838D8382819381DC01ED91FC910480F6
:10164000F581E02D199598878F83D601ED91FC9156
:1016500082819381DC01ED91FC910680F781E02D80
:1016600019959A8789874B865C866D867E86D6011A
:10167000ED91FC9160857185D801ED91FC9101900F
:10168000F081E02DAE014F5F5F4FC8011995B2E0C8
:10169000CB0ED11CEC14FD0409F0BFCF412C92E01D
:1016A000592E612C712CF701A081B1811097E1F1C5
:1016B00012968D919C9113979C838B8314968D9198
:1016C0009C9115979E838D83ED91FC9111970480D9
:1016D000F581E02DCD01199598878F83D7018D91E4
:1016E0009C91DC01ED91FC910680F781E02D19952C
:1016F0009A8789874B865C866D867E86D801ED91B8
:10170000FC91C080D180F70180819181DC01ED9155
:10171000FC910280F381E02D1995AE014F5F5F4F80
:10172000BC01C801F6011995F2E0EF0EF11CE214BC
:10173000F30409F0B8CFF801EA57FB4F81E080834A
:10174000319680829182A282B382AD89BE898D92C8
:101750009D92AD92BC9213978FEF9FEFA6960FB616
:10176000F894DEBF0FBECDBFDF91CF911F910F91D7
:10177000FF90EF90DF90CF90BF90AF909F908F90B1
:101780007F906F905F904F903F902F900895EA3038
:10179000F10509F09BC082E392E09A8389831B8262
:1017A0001C821D821E821F82188619861A860E943C
:1017B0002103F801C084D184E284F3849B01AC014D
:1017C0002C193D094E095F0969017A016F89788DED
:1017D000CE010196C0D9C701B60128EE33E040E042
:1017E00050E032D769017A019B01AC018B819C8169
:1017F000AD81BE818C0D9D1DAE1DBF1D8B839C8355
:10180000AD83BE8360E472E48FE090E0FBD6CF80CE
:10181000D884E984FA84DC01CB018C0D9D1DAE1DBA
:10182000BF1D8F839887A987BA870E942103CF8025
:10183000D884E984FA8436E3D31A35E6E30A34EC33
:10184000F30A28EE33E040E050E0FED629013A01E9
:101850009B01AC0160E472E48FE090E0D3D6A70175
:101860009601261B370B480B590BCA01B9012B8176
:101870003C814D815E812150310941095109690145
:101880007A01C418D508E608F7082601370120E0D8
:101890003AEC4AE95BE3D8D6420E531E641E751E2D
:1018A000D8011C964D925D926D927C921F97F80123
:1018B000608B718B828B938B0E942103AD89BE89D3
:1018C0006D937D938D939C93139757CDE630F105DF
:1018D00051F46F89788D8D8D9E8D4CDB81E0EF8D7D
:1018E000F8A180834ACDEB30F10521F4AB8DBC8D9E
:1018F0001C9243CDEF53FE4FEE0FFF1FE00FF11F81
:1019000080819181009709F438CDDC01ED91FC9143
:101910000190F081E02D6F89788D19952ECD4F9231
:101920005F926F927F928F929F92AF92BF92CF926F
:10193000DF92EF92FF920F931F93CF93DF93EC010F
:101940007B018A81FB0180838B8181838C818283EF
:101950008D8183833496412C512C320104E010E0B8
:101960009F012F5F3F4FCF010296DF011396A80121
:101970000C5F1F4F8A809B80AC80BD804814590447
:101980006A047B04C8F4AA85BB85A40FB51F14970D
:101990004C9111962C91119712969C911297139637
:1019A0008C9140832183928383838FEF481A580A56
:1019B000680A780A3496D4CF4C8540834D85F90166
:1019C00040832E85FC0120838F858C93F701E00FE7
:1019D000F11F412C512C3201AF019F012F5F3F4F6E
:1019E000CF010296DF0113960C5F1F4F8C849D84FC
:1019F000AE84BF84481459046A047B04D8F4CF0130
:101A0000841B950BAC89BD89A80FB91F3C91119619
:101A10002C91119712969C91129713968C9130836A
:101A20002183928383838FEF481A580A680A780AC1
:101A30003496D3CF4E8940834F89F9014083288D56
:101A4000FC012083898D8C93412C512C32018E898D
:101A50009F89A88DB98D481659066A067B0678F5C8
:101A60005201AA0CBB1CEC8DFD8DEA0DFB1DA08163
:101A7000B181FD0101900020E9F731976F01CA1A89
:101A8000DB0AA60170E060E0C701800F911F0E9491
:101A900044040C5F1F4F8C8D9D8DA80EB91EF5015F
:101AA00060817181A601C701800F911F00D70C0DC5
:101AB0001D1DFFEF4F1A5F0A6F0A7F0AC8CFC801CA
:101AC000DF91CF911F910F91FF90EF90DF90CF901A
:101AD000BF90AF909F908F907F906F905F904F904E
:101AE0000895EF92FF920F931F93CF93DF938C0192
:101AF0007B01DC0112962C911297FB012193CF01FF
:101B00001396ED91FC91EF0109900020E9F72197E0
:101B1000CE1BDF0BAE0170E060E00E944404D801F0
:101B200013966D917C91AE01C7010596C0D6CE018A
:101B30000596DF91CF911F910F91FF90EF9008953F
:101B4000CF92DF92EF92FF920F931F93CF93DF9389
:101B50006C01EB01DC0112968C911297888313962D
:101B60008C91139789831496ED91FC91DF010D9070
:101B70000020E9F78D01015011090E1B1F0BA80170
:101B800070E060E0CE0102960E944404F601648198
:101B90007581A801CE0106968AD6C8010696F6017F
:101BA000A681B781FD0101900020E9F731977F01FF
:101BB000EA1AFB0AA70170E060E08C0F9D1F0E94EB
:101BC0004404065F1F4FD60116966D917C91A701C4
:101BD000CE01800F911F6BD60E0D1F1DF601A08543
:101BE000B185FD0101900020E9F731977F01EA1AE4
:101BF000FB0AA70170E060E0CE01800F911F0E94F8
:101C000044040C5F1F4FD60118966D917C91A7017B
:101C1000CE01800F911F4BD6C701800F911FF60197
:101C20006285438534852585C80FD91F688349831C
:101C30003A832B830496DF91CF911F910F91FF90F0
:101C4000EF90DF90CF9008951F920F920FB60F92F2
:101C500011240BB60F922F933F934F935F936F9383
:101C60007F938F939F93AF93BF93EF93FF9383E4FF
:101C700094E00E94C801FF91EF91BF91AF919F91B5
:101C80008F917F916F915F914F913F912F910F9025
:101C90000BBE0F900FBE0F901F9018951F920F92C2
:101CA0000FB60F9211240BB60F922F938F939F9321
:101CB000EF93FF93E0915304F09154048081E091FD
:101CC0005904F0915A0482FD1DC0908180915C04FA
:101CD0008F5F8F7320915D04821741F0E0915C0467
:101CE000F0E0ED5BFB4F958F80935C04FF91EF91EB
:101CF0009F918F912F910F900BBE0F900FBE0F9061
:101D00001F9018958081F2CF1F920F920FB60F92FD
:101D100011242F933F938F939F93AF93BF93809101
:101D20002B0490912C04A0912D04B0912E0430919D
:101D30002A0423E0230F2D3758F50196A11DB11D6C
:101D400020932A0480932B0490932C04A0932D04B9
:101D5000B0932E048091260490912704A09128042A
:101D6000B09129040196A11DB11D80932604909382
:101D70002704A0932804B0932904BF91AF919F91A9
:101D80008F913F912F910F900FBE0F901F9018953C
:101D900026E8230F0296A11DB11DD2CF1092460452
:101DA0001092450488EE93E0A0E0B0E080934704F1
:101DB00090934804A0934904B0934A048AE492E0C3
:101DC000909344048093430485EC90E090935004F6
:101DD00080934F0484EC90E09093520480935104DC
:101DE00080EC90E0909354048093530481EC90E055
:101DF000909356048093550482EC90E0909358049D
:101E00008093570486EC90E090935A048093590491
:101E100010925C0410925D0410925E0410925F04B4
:101E200082E792E09093AD098093AC091092AE09DD
:101E30001092AF091092B0091092B1091092B20934
:101E40001092B3091092B4091092B5091092B60914
:101E50001092B7091092B8091092B9098AEE93E06E
:101E60009093A3098093A2098CEA99E09093A50925
:101E70008093A4091092AB091092AA0988E692E017
:101E80009093F1048093F00483E494E09093F3043E
:101E90008093F20480E091EEA0E0B0E08093F4043F
:101EA0009093F504A093F604B093F704109276098A
:101EB0008CE592E0909385098093840910929A09A9
:101EC00010929B0910929C0910929D091092A109F1
:101ED0001092A009E8E0F9E01192119289E0EA334A
:101EE000F807D1F7EAE3F9E01192119289E0EC36B4
:101EF000F807D1F7E8E0F5E088E097E011928E1757
:101F00009F07E1F7E8E0F7E0119289E0E830F80791
:101F1000D9F71092860910928709109288091092B9
:101F2000890910928F0910928E09109290091092CF
:101F300091091092920910929309109299091092A6
:101F4000980910920405109205051092060510924A
:101F500007058AE892E09093E1048093E0048EE71D
:101F600092E09093E7048093E6041092E8041092C4
:101F7000E9041092EA041092EB0488E291E0909355
:101F8000ED048093EC0481E090E09093EF04809363
:101F9000EE048CEF93E09093E5048093E4040895BD
:101FA000CF93DF9300D01F92CDB7DEB7789484B57E
:101FB000826084BD84B5816084BD85B5826085BD45
:101FC00085B5816085BD80916E00816080936E00D3
:101FD00010928100809181008260809381008091C5
:101FE0008100816080938100809180008160809376
:101FF00080008091B10084608093B1008091B00036
:1020000081608093B0008091910082608093910004
:102010008091910081608093910080919000816017
:10202000809390008091A10082608093A1008091B4
:10203000A10081608093A1008091A00081608093C5
:10204000A000809121018260809321018091210173
:102050008160809321018091200181608093200123
:1020600080917A00846080937A0080917A00826007
:1020700080937A0080917A00816080937A008091C9
:102080007A00806880937A001092C10082E00E94FA
:10209000360183E00E9436018091F2049091F304AE
:1020A0009A838983C090F404D090F504E090F604FC
:1020B000F090F70460E079E08DE390E0A7019601ED
:1020C000C3D2215031094109510956954795379599
:1020D0002795A981BA815096ED91FC9182E0808389
:1020E000C114B1EEDB06E104F10421F02115E0E1B9
:1020F0003E07A8F0A981BA815096ED91FC9110821B
:1021000060E874E88EE190E0A70196019DD221502D
:102110003109410951095695479537952795A98168
:10212000BA811C96ED91FC911D9730831E96ED911E
:10213000FC911F97208358961C9258975496ED91C6
:10214000FC91559786E080835296ED91FC915397D0
:102150008081806180835296ED91FC9153978081BC
:10216000886080835296ED91FC91539780818068BE
:1021700080835296ED91FC9180818F7D80831092B7
:102180006D0910926C0910926F0910926E091092ED
:102190007309109272091092710910927009EAE3A2
:1021A000F9E090E080E021913191232B09F078C093
:1021B000FC01EE0FFF1FE65CF64F20EE34E03183AA
:1021C00020838C599F4F9093E3048093E204E8E0CE
:1021D000F9E090E080E021913191232B09F066C075
:1021E000FC01EE0FFF1FE85FF64F22EA39E0318372
:1021F000208383589F4F9093A7098093A60980EF6F
:1022000094E09093A9098093A8090E9421032B01CF
:102210003C0140923F04509240046092410470920D
:10222000420480913B0490913C04A0913D04B09104
:102230003E0489839A83AB83BC838090370490905B
:102240003804A0903904B0903A04A5019401BC016F
:10225000CD01F6D06B017C01C0923304D0923404DE
:10226000E0923504F09236042AE037ED43E25CE375
:10227000C5D118160CF520ED3FE049E450E4C70144
:10228000B60143D187FF2AC090E080E00E9411038D
:1022900026EF3DEA40E05CE3C501B401D2D029C09D
:1022A00001968931910509F07ECF91CF0196893150
:1022B000910509F090CFA9CF2AE037ED43E25CEB1E
:1022C000C701B60122D187FF1CC020ED3FE049E4E1
:1022D00050ECC701B60192D11816B4F681E090E037
:1022E0000E94110326EF3DEA40E05CE3C501B40122
:1022F000A7D0609337047093380480933904909387
:102300003A048090370490903804A0903904B0903B
:102310003A0420ED3FE049EC50E4C501B4016ED130
:1023200087FD0FC020ED3FE049EC50E4C501B4014A
:1023300087D0609337047093380480933904909366
:102340003A048090370490903804A0903904B090FB
:102350003A0420E030E0A901C501B401D6D087FFDE
:102360000FC020ED3FE049EC50E4C501B40169D055
:1023700060933704709338048093390490933A043F
:1023800080912F0490913004A0913104B0913204D7
:10239000481A590A6A0A7B0A9DED491695E05906C2
:1023A0006104710408F445C08091370490913804A9
:1023B000A0913904B0913A048093AE099093AF098B
:1023C000A093B009B093B10989819A81AB81BC8196
:1023D0008093B2099093B309A093B409B093B5095F
:1023E000C092B609D092B709E092B809F092B90943
:1023F0008091A8099091A9096091A6097091A709F7
:10240000DC01ED91FC910190F081E02D4CEA59E066
:10241000199580913F0490914004A0914104B0919E
:10242000420480932F0490933004A0933104B0931E
:10243000320480EF94E00E943C090E945502E5CEF0
:102440005058BB27AA270ED09FC090D030F095D00F
:1024500020F031F49F3F11F41EF485C00EF4E09596
:10246000E7FB7BC0E92FA1D080F3BA17620773079F
:102470008407950718F071F49EF5B9C00EF4E09545
:102480000B2EBA2FA02D0B01B90190010C01CA012E
:10249000A0011124FF27591B99F0593F50F4503ED9
:1024A00068F11A16F040A22F232F342F4427585FCB
:1024B000F3CF469537952795A795F0405395C9F7E3
:1024C0007EF41F16BA0B620B730B840BBAF091509B
:1024D000A1F0FF0FBB1F661F771F881FC2F70EC03A
:1024E000BA0F621F731F841F48F48795779567950D
:1024F000B795F7959E3F08F0B3CF9395880F08F0F6
:102500009927EE0F97958795089503D008F481E0F9
:102510000895990F0008550FAA0BE0E8FEEF161674
:102520001706E807F907C0F012161306E407F507C7
:1025300098F0621B730B840B950B39F40A2661F03B
:10254000232B242B252B21F408950A2609F4A140DE
:10255000A6958FEF811D811D089597F99F6780E8EB
:1025600070E060E008959FEF80EC089500240A94E5
:102570001616170618060906089500240A9412165E
:102580001306140605060895092E0394000C11F491
:10259000882352F0BB0F40F4BF2B11F460FF04C03E
:1025A0006F5F7F4F8F4F9F4F089557FD9058440F97
:1025B000551F59F05F3F71F04795880F97FB991FA2
:1025C00061F09F3F79F0879508951216130614065F
:1025D000551FF2CF4695F1DF08C0161617061806EC
:1025E000991FF1CF86957105610508940895E894C7
:1025F000BB2766277727CB0197F908958ADF08F470
:102600008FEF0895DB018F939F9348D0BF91AF91D7
:10261000A29F800D911DA39F900DB29F900D11243C
:10262000089597FB072E16F4009406D077FD08D086
:102630003FD007FC05D03EF4909581959F4F0895BB
:10264000709561957F4F0895A1E21A2EAA1BBB1BBE
:10265000FD010DC0AA1FBB1FEE1FFF1FA217B3076E
:10266000E407F50720F0A21BB30BE40BF50B661F84
:10267000771F881F991F1A9469F760957095809548
:1026800090959B01AC01BD01CF010895EE0FFF1F96
:10269000881F8BBF0790F691E02D19941DD0A59F40
:1026A000900DB49F900DA49F800D911D112408954D
:1026B000AA1BBB1B51E107C0AA1FBB1FA617B70768
:1026C00010F0A61BB70B881F991F5A95A9F7809584
:1026D0009095BC01CD010895A29FB001B39FC001A8
:1026E000A39F700D811D1124911DB29F700D811D3E
:1026F0001124911D08954F925F926F927F928F9255
:102700009F92AF92BF92CF92DF92EF92FF920F9380
:102710001F93CF93DF938C01009791F4CB01DF914E
:10272000CF911F910F91FF90EF90DF90CF90BF90CE
:10273000AF909F908F907F906F905F904F90C0C0B0
:10274000FC01E60FF71F9C0122503109E217F30745
:1027500008F4AAC0D901CD91DC911197C617D7070B
:1027600018F1C530D10570F0CE0104978617970790
:1027700048F0C61BD70B2297C193D1936D937C93DE
:10278000CF013AD1C801DF91CF911F910F91FF90F6
:10279000EF90DF90CF90BF90AF909F908F907F9001
:1027A0006F905F904F9008955B01AC1ABD0A4C0189
:1027B0008C0E9D1EA091BC09B091BD09512C412CDD
:1027C000F12CE12C109731F58091BA099091BB0959
:1027D0008815990509F05CC04616570608F058C0E0
:1027E0008091000290910102009741F48DB79EB74D
:1027F0004091040250910502841B950BE817F907DC
:1028000008F052C0F093BB09E093BA09F901718353
:102810006083B8CF8D919C91119712966C9012970E
:1028200013967C901397A815B90559F56C0142E0F1
:10283000C40ED11CCA14DB0420F1AC014A195B0997
:10284000DA011296159780F0628273825183408379
:10285000D9016D937C93E114F10471F0D7011396C3
:10286000FC93EE9312978ECF22968C0F9D1FF90149
:1028700091838083F301EFCFF093BD09E093BC090E
:1028800081CF4816590608F42C017D01D3019ACF57
:10289000CB0116D07C01009739F0AE01B80107D00A
:1028A000C801AAD087016ECF10E000E06BCFFB011A
:1028B000DC0102C001900D9241505040D8F70895BC
:1028C0000F931F93CF93DF938230910510F482E032
:1028D00090E0E091BC09F091BD0930E020E0B0E06B
:1028E000A0E0309799F42115310509F44AC0281B5E
:1028F000390B24303105D8F58A819B81611571052A
:1029000089F1FB0193838283FE0111C040815181D3
:102910000281138148175907E0F04817590799F4C5
:10292000109761F012960C93129713961C9332969F
:10293000CF01DF91CF911F910F9108950093BC09B2
:102940001093BD09F4CF2115310551F042175307FB
:1029500038F0A901DB019A01BD01DF01F801C1CF07
:10296000EF01F9CF9093BD098093BC09CDCFFE0153
:10297000E20FF31F81939193225031093983288309
:10298000D7CF2091BA093091BB09232B41F4209174
:102990000202309103023093BB092093BA092091BF
:1029A0000002309101022115310541F42DB73EB7E7
:1029B0004091040250910502241B350BE091BA09A5
:1029C000F091BB09E217F307A0F42E1B3F0B281769
:1029D000390778F0AC014E5F5F4F2417350748F098
:1029E0004E0F5F1F5093BB094093BA098193919397
:1029F0009FCFF0E0E0E09CCFCF93DF930097E9F02A
:102A0000FC01329713821282A091BC09B091BD09DA
:102A1000ED0130E020E01097A1F420813181820F98
:102A2000931F2091BA093091BB092817390709F083
:102A300061C0F093BB09E093BA09DF91CF9108958B
:102A4000EA01CE17DF07E8F54A815B819E01411557
:102A50005105B1F7E901FB83EA8349915991C40F0C
:102A6000D51FEC17FD0761F4808191810296840FD8
:102A7000951FE90199838883828193819B838A834F
:102A8000F0E0E0E012968D919C9113970097B9F5D4
:102A90002D913C911197CD010296820F931F2091A9
:102AA000BA093091BB092817390739F6309751F523
:102AB0001092BD091092BC09B093BB09A093BA094A
:102AC000BCCFD383C28340815181840F951FC81727
:102AD000D90761F44E5F5F4F88819981480F591F74
:102AE000518340838A819B819383828321153105A1
:102AF00009F0B0CFF093BD09E093BC099ECFFD0172
:0E2B0000DC01C0CF13821282D7CFF894FFCF32
:102B0E000000BE098000726F7373657269616C5F3D
:102B1E006D7367732F526571756573745061726151
:102B2E006D0000000000A00DB704B404B104000055
:102B3E000000F105AB05A805A50500000000710D0C
:102B4E005C045904560400000000EA01550182019C
:102B5E003602B3019101A501000000008F0CBA07E7
:102B6E0053045004000000003C033C092D030000F8
:102B7E0000008507CA064D044A0400000000B20793
:102B8E00F1063503320300000000F7063803350363
:102B9E0032036664623238323130626661396437CC
:102BAE006339313134363236303137386439613544
:102BBE003834007374645F6D7367732F466C6F6186
:102BCE00743634004D6573736167652066726F6D80
:102BDE00206465766963652064726F707065643A0F
:102BEE00206D657373616765206C61726765722015
:102BFE007468616E206275666665722E003166615C
:102C0E0066346230383366626663663062396532C6
:102C1E00333364633762366237666365360041521A
:102C2E00332F4152335F44656275670039663065F4
:102C3E00393862646136353938313938366464660C
:102C4E003533616661376134306534390031316155
:102C5E00626437333163323539333332363163643C
:102C6E003631383362643132643632393500726F40
:102C7E007373657269616C5F6D7367732F4C6F67E9
:102C8E000030616435316638386663343438393231
:102C9E006638633130363834303737363436303084
:102CAE003500726F7373657269616C5F6D736773F4
:102CBE002F546F706963496E666F006364373136E7
:102CCE00366337346335353263333131666263636D
:102CDE003266653561376263323839007374645F0A
:102CEE006D7367732F54696D65002F4152332F6AD0
:102CFE006F696E74312F6465627567002F72726230
:102D0E006F742F6A6F696E74315F706F7369746957
:102D1E006F6E5F636F6E74726F6C6C65722F636F24
:062D2E006D6D616E640092
:00000001FF
