:1000000002C1000031C100002FC100002DC100005D
:100010002BC1000029C1000027C1000025C100003C
:1000200023C1000021C100001FC100001DC100004C
:100030001BC1000019C1000017C1000015C100005C
:1000400013C1000011C100000FC100000DC100006C
:100050000BC1000009C1000007C100000C94B50EDF
:1000600003C100000C947F0E0C94550EFDC00000DF
:10007000FBC00000F9C00000F7C00000F5C00000A0
:10008000F3C00000F1C00000EFC00000EDC00000B0
:10009000EBC00000E9C00000E7C00000E5C00000C0
:1000A000E3C00000E1C00000DFC00000DDC00000D0
:1000B000DBC00000D9C00000D7C00000D5C00000E0
:1000C000D3C00000D1C00000CFC00000CDC00000F0
:1000D000CBC00000C9C00000C7C00000C5C0000000
:1000E000C3C0000000002100240027002A002D00CA
:1000F0003000330001010000040107010A01000083
:100100002200250028002B002E00310034000201BF
:100110000000050108010B0100002000230026005B
:1001200029002C002F00320000010000030106010D
:10013000090105050505070508080808020202026D
:100140000A0A080804040404010101010101010173
:100150000303030303030303040707070C0C0C0C3E
:100160000C0C0C0C02020202060606060606060627
:100170000B0B0B0B0B0B0B0B0102102020080810B4
:100180002040102040800201020108040201010207
:1001900004081020408080402010080402018004E0
:1001A000020180402010080402010804020101023B
:1001B0000408102040800102040810204080000044
:1001C0000A0B02090C0D0E080703040100000000D1
:1001D000000000000000000000000000000000001F
:1001E00000000000000000000000121110000000DC
:1001F00000000000000000000000000000000000FF
:1002000000000000FF0E11241FBECFEFD1E2DEBFC1
:10021000CDBF00E00CBF14E0A0E0B2E0ECE4FCE2F3
:1002200000E00BBF02C007900D92A032B107D9F7D2
:1002300029E0A0E2B4E001C01D92A93BB207E1F7BA
:1002400011E0C3E0D1E000E006C021970109802F52
:10025000FE010E94E513C230D10780E00807A9F72C
:100260000E9403100C942416CBCEFC018281938152
:10027000A481B5818093350490933604A09337040C
:10028000B09338040895AF92BF92CF92DF92EF926D
:10029000FF920F931F93CF93DF936C017B018B0130
:1002A000040F151FEB015E01AE18BF08C017D10780
:1002B00059F06991D601ED91FC910190F081E02D0A
:1002C000C6011995892B79F7C501DF91CF911F914F
:1002D0000F91FF90EF90DF90CF90BF90AF90089577
:1002E000FC01538D448D252F30E0842F90E0821B3C
:1002F000930B541710F0CF96089501970895FC01C1
:10030000918D828D981761F0A28DAE0FBF2FB11D18
:100310005D968C91928D9F5F9F73928F90E0089570
:100320008FEF9FEF0895FC01918D828D981731F02A
:10033000828DE80FF11D858D90E008958FEF9FEF7E
:100340000895FC01918D228D892F90E0805C9F4F54
:10035000821B91098F73992708958DE394E0F1DF53
:1003600021E0892B09F420E0822F0895FC01A48D5F
:10037000A80FB92FB11DA35ABF4F2C91848D90E0C7
:1003800001968F739927848FA689B7892C93A089AA
:10039000B1898C91837080648C93938D848D981334
:1003A00006C00288F389E02D80818F7D80830895C7
:1003B000EF92FF920F931F93CF93DF93EC0181E0B5
:1003C000888F9B8D8C8D98131AC0E889F98980815C
:1003D00085FF15C09FB7F894EE89FF896083E8898F
:1003E000F98980818370806480839FBF81E090E081
:1003F000DF91CF911F910F91FF90EF900895F62E0E
:100400000B8D10E00F5F1F4F0F731127E02E8C8DA7
:100410008E110BC00FB607FCFACFE889F9898081ED
:1004200085FFF5CFCE01A2DFF2CFEB8DEC0FFD2FD4
:10043000F11DE35AFF4FF0829FB7F8940B8FEA89C2
:10044000FB8980818062D0CFCF93DF93EC01888DD0
:100450008823B1F0AA89BB89E889F9898C9185FD47
:1004600003C0808186FD0CC00FB607FCF7CF8C91CE
:1004700085FFF2CF808185FFEDCFCE0177DFEACF18
:10048000DF91CF91089580E090E0892B21F065DF26
:1004900081110E94000080E090E0892B49F080E00B
:1004A00090E0892B29F00E94000081110E94000039
:1004B00080E090E0892B49F080E090E0892B29F0E2
:1004C0000E94000081110E94000080E090E0892BD2
:1004D00049F080E090E0892B29F00E940000811112
:1004E0000C94000008958150823108F05AC0E82F22
:1004F000F0E08827E158FD4F8F4F0C94E5139F02E1
:10050000A302910297029B02D102A602AC02B002A2
:10051000B602BA02BE02C402C802D102CC02D202A2
:10052000D602809180008F7780938000089580911B
:1005300080008F7DF9CF80918000877FF5CF84B5D3
:100540008F7784BD089584B58F7DFBCF8091B000F7
:100550008F778093B00008958091B0008F7DF9CFA0
:10056000809190008F778093900008958091900003
:100570008F7DF9CF80919000877FF5CF8091A0008B
:100580008F778093A00008958091A0008F7DF9CF90
:100590008091A000877FF5CF809120018F77809395
:1005A00020010895809120018F7DF9CF8091200155
:1005B000877FF5CF1F93CF93DF93282F30E0F9018A
:1005C000E254FE4F8491F901E858FE4FD491F901AD
:1005D000EE5CFE4FC491CC23A1F0162F811183DF76
:1005E000EC2FF0E0EE0FFF1FE250FF4FA591B4910A
:1005F0008FB7F894EC91111108C0D095DE23DC93ED
:100600008FBFDF91CF911F910895DE2BF8CF60E06F
:10061000019709F061E083E0CDDF61E082E0CADFAD
:1006200083EC90E00197F1F760E082E0C3CFCF93D5
:10063000DF9390E0FC01E858FE4F24918E5C9E4FC2
:10064000FC0184918823D1F090E0880F991FFC0170
:10065000EC51FF4FA591B491FC01E250FF4FC591C1
:10066000D491623071F49FB7F8943C91822F8095B9
:1006700083238C93E8812E2B28839FBFDF91CF911A
:1006800008958FB7F894EC912E2B2C938FBFF6CF53
:100690002FB7F89460912504709126048091270467
:1006A000909128042FBF08958A579B4FFC018081A9
:1006B000089582E992E0089583EB92E00895FC01A9
:1006C000868597850895AF92BF92CF92DF92EF9281
:1006D000FF920F931F93CF93DF9300D01F921F922F
:1006E000CDB7DEB7643671054CF0FC01EA57FB4F1D
:1006F0002081F12CE12C222309F476C0DA017B0160
:100700008C01BC01615E7D4FED91FC910190F08107
:10071000E02DCA011995680128EEC21A2DEFD20A00
:100720002FEFD6012C93F801E75EFD4F2EEF2083CB
:1007300031968083319690833196292F280F20950A
:1007400020833196E0821696FC9245E050E030E03E
:1007500020E0DC011696A417B50734F06191260F4E
:10076000311D4F5F5F4FF7CF7C01B8E0EB0EF11CFE
:10077000800F911FFC01E15EFD4F20952083E1E099
:10078000EE16E2E0FE06B4F45601C5018C199D098F
:100790008E159F054CF5D80112968D919C91F5010F
:1007A00061915F01DC01ED91FC910190F081E02D00
:1007B0001995EBCF8EE392E09A83898383E08B8354
:1007C00084EC92E09D838C83D801ED91FC910190A3
:1007D000F081E02DAE014F5F5F4F67E070E0C80130
:1007E0001995EE24EA94FE2CC7010F900F900F90FC
:1007F0000F900F90DF91CF911F910F91FF90EF908D
:10080000DF90CF90BF90AF9008950F931F93CF9339
:10081000DF9300D000D000D01F92CDB7DEB78C019F
:1008200082E392E09A8389831B821C821D821E824E
:100830001F82188619861A86D801ED91FC910190C5
:10084000F081E02DAE014F5F5F4F6AE070E0C801BC
:1008500019951EDFF80160877187828793872A9632
:100860000FB6F894DEBF0FBECDBFDF91CF911F91C1
:100870000F910895CF92DF92EF92FF92DC011D92CB
:100880001D921D921C921397FB0130E020E04191D4
:1008900050E0022E02C0440F551F0A94E2F7052EC5
:1008A000000C660B770BCD90DD90ED90FC901397CC
:1008B0004C295D296E297F294D935D936D937C931F
:1008C0001397285F3F4F2032310509F7FF90EF90D3
:1008D000DF90CF900895FC014083518312821382F0
:1008E00008958DEF92E008958EE193E008958CE2F3
:1008F00093E0089586E092E008958DE493E00895F2
:100900008EE693E008954F925F926F927F928F925E
:100910009F92AF92BF92EF92FF920F931F93CF934C
:10092000DF9300D01F92CDB7DEB77C018B01FB01B6
:100930008191BF01F7018283CE0101969BDF8981FE
:100940009A81AB81BC814C015D01F5E08F0E911C59
:10095000A11CB11CA8014C5F5F4FFA0125E030E0FB
:100960002901712C612C481459046A047B0428F471
:10097000618161932F5F3F4FF3CFF801E80FF91FBB
:100980001482F7015483438305960F900F900F90C4
:100990000F90DF91CF911F910F91FF90EF90BF903B
:1009A000AF909F908F907F906F905F904F90089541
:1009B00081E893E0089582EA93E008954F925F9270
:1009C0006F927F928F929F92AF92BF92CF92DF925F
:1009D000EF92FF920F931F93CF93DF93CDB7DEB7C4
:1009E0002C970FB6F894DEBF0FBECDBF7C018B01F4
:1009F000DB018C9190E0F7019383828311962C9117
:100A0000922B938382836E5F7F4FCE01019632DFFC
:100A100089809A80AB80BC8024013501F6E04F0EBE
:100A2000511C611C711C98012B5F3F4FF90186E03E
:100A300090E0AC0170E060E044155505660577056F
:100A400020F4418141930196F4CFB4016A5F7F4F56
:100A5000F801E80DF91D1582D70115963C932E93E8
:100A60001497600F711FCE01059604DFBAE08B0E5C
:100A7000911C4D805E806F807884C401092C000C2D
:100A8000AA0BBB0B5C016D01A40CB51CC61CD71CCA
:100A9000F801E80DF91DAF01401B510B70E060E05B
:100AA0004A155B056C057D0538F42191AF01425074
:100AB0005109DA012C93EFCF480C591CB801640D91
:100AC000751DFB0131971082C4010197800F911FA2
:100AD000F70197838683CE010996CCDE92012C5FC5
:100AE0003F4F89849A84AB84BC84A901032E000CF7
:100AF000660B770B480D591D6A1D7B1DF801E20F2F
:100B0000F31FCF01801B910BB0E0A0E08417950785
:100B1000A607B70728F48191DF0112978C93F1CFD4
:100B2000C901880D991DF801E80FF91FDF01119720
:100B30001C9221503109020F131FD70119961C93E3
:100B40000E9318972181428150E070E060E0BA0175
:100B500055274427522B2081422B2381722BF701EA
:100B6000428753876487758704962C960FB6F8944E
:100B7000DEBF0FBECDBFDF91CF911F910F91FF90D0
:100B8000EF90DF90CF90BF90AF909F908F907F902D
:100B90006F905F904F9008958BEB93E008958CEDEC
:100BA00093E00895FC01DB014C9150E070E060E0BF
:100BB000428353836483758311968C911197582BCC
:100BC000428353836483758312968C911297682BAA
:100BD000428353836483758313968C911397782B88
:100BE000428353836483758314964C91149750E029
:100BF00070E060E0468357836087718715968C911B
:100C00001597582B468357836087718716968C916A
:100C10001697682B468357836087718717968C9148
:100C2000782B468357836087718788E090E008952A
:100C3000DC01FB0112968C911297808313968C91A4
:100C40001397818314968C911497828315968C91B7
:100C50001597838316968C911697848317968C919B
:100C60001797858318968C911897868319968C917F
:100C7000878388E090E00895CF92DF92EF92FF9211
:100C80000F931F93FC01DB01C3800C2D10E030E0BB
:100C900020E045E036952795179507954A95D1F7B9
:100CA0000D931D932D933C9313978481C82ED12CC3
:100CB000F12CE12C53E0CC0CDD1CEE1CFF1C5A95F2
:100CC000D1F7C02AD12AE22AF32ACD92DD92ED9201
:100CD000FC9213978581082F10E030E020E06BE054
:100CE000000F111F221F331F6A95D1F70C291D29F0
:100CF0002E293F290D931D932D933C9313974681E5
:100D000050E070E060E083E1440F551F661F771FDD
:100D10008A95D1F74427552768777727042B152B19
:100D2000262B372B0D931D932D933C9313974781BF
:100D300050E070E060E094E0440F551F661F771F9D
:100D40009A95D1F7407F577066277727C680D12CB8
:100D5000F12CE12C84E0F694E794D794C7948A951B
:100D6000D1F74C295D296E297F294115510561056F
:100D70007105A1F0405853406109710997E1440F92
:100D8000551F661F771F9A95D1F7402B512B622B69
:100D9000732B4D935D936D937C931397478150E034
:100DA00070E060E0742F66275527442744275527B5
:100DB000662770780D911D912D913C911397402BD2
:100DC000512B622B732B4D935D936D937C931397F3
:100DD00088E090E01F910F91FF90EF90DF90CF900F
:100DE0000895EF92FF920F931F93CF93DF93EC013F
:100DF0007B01FB012191CF012A83BE016D5F7F4FF3
:100E00003BDF8C010F5F1F4FBE01695F7F4FC70142
:100E1000800F911F31DF080F191FBE01655F7F4FE3
:100E2000C701800F911F28DF800F911FDF91CF91A5
:100E30001F910F91FF90EF9008959B01BC016E5F91
:100E40007F4FC90119CF0F931F93CF93DF938C016D
:100E5000EC012696CE01F1DFD8011C96ED91FC91B4
:100E6000CE01DF91CF911F910F9119948F929F9294
:100E7000AF92BF92CF92DF92EF92FF92CF93DF9328
:100E8000EC014A015B01DB01CA0147E1B595A79579
:100E9000979587954A95D1F79927AA27BB27009759
:100EA000A105B10521F080589C4FAF4FBF4F18826C
:100EB00019821A82B501A40125E0440F551F661F4F
:100EC000771F2A95D1F74B83B501A40133E07595BF
:100ED0006795579547953A95D1F74C83B501A4018D
:100EE000EBE07595679557954795EA95D1F74D8352
:100EF000B501A401F3E17595679557954795FA9566
:100F0000D1F74F706C017D0124E0CC0CDD1CEE1C90
:100F1000FF1C2A95D1F74C294E836C017D0134E0EA
:100F2000F594E794D794C7943A95D1F720E030E050
:100F3000A901C501B4010E94241387FD0EC0CF8210
:100F400088E090E0DF91CF91FF90EF90DF90CF901D
:100F5000BF90AF909F908F9008958C2D80688F8365
:100F6000EFCFEF92FF920F931F93CF93DF938C01FC
:100F70007B01FC012281FB012193CF01F801438118
:100F800054816581768172DFEC012196F8014781F9
:100F9000508561857285C7018C0F9D1F67DFC80F63
:100FA000D91FF8014385548565857685C7018C0F67
:100FB0009D1F5CDF8C0F9D1FDF91CF911F910F91C3
:100FC000FF90EF9008959B01FC0142815381648161
:100FD0007581C9014BCF2F923F924F925F926F92D2
:100FE0007F928F929F92AF92BF92CF92DF92EF92B9
:100FF000FF920F931F93CF93DF93CDB7DEB72E975A
:101000000FB6F894DEBF0FBECDBF8C016B01DB01C4
:101010008D909D90AD90BC90FC0182819381A481C4
:10102000B58188159905AA05BB0570F4B401660F52
:10103000771F660F771F828593850E941A14D80147
:101040001B969C938E931A97F80182829382A482B6
:10105000B582C60140E050E0BA01A4E0EA2EF12CCE
:1010600098012A5F3F4FDC011596EC911597169673
:101070004C901697512C712C612C3201552444242C
:101080005E2A1496EC9114974E2A1796EC917E2ABC
:10109000D7011701E4E02E0E311C71010496F8010E
:1010A00082809380A480B580481559056A057B0528
:1010B000A8F446825782608671861497A284B3840E
:1010C000AA0DBB1DE4E0BE2EF90101900D92BA9469
:1010D000E1F74F5F5F4F6F4F7F4FC5CF8485958599
:1010E000A685B78584159505A605B70570F4B201E8
:1010F000660F771F660F771F848995890E941A14DF
:10110000D80155969C938E935497F8014486558642
:1011100066867786C601820D931D412C512C3201C3
:101120001C019801205F3F4FDC0111966C911197D3
:1011300012968C901297912CB12CA12C54019924C9
:101140008824962A6C91862A13966C91B62AB4E06C
:10115000EB0EF11CF80144855585668577854416AC
:10116000550666067706C0F4808A918AA28AB38AF9
:10117000BC0162197309A489B589A60FB71F64E081
:10118000F90101900D926A95E1F7BFEF4B1A5B0AE6
:101190006B0A7B0A0496C8CF86899789A08DB18D8A
:1011A00088159905AA05BB0560F4B401660F771F81
:1011B000848D958D0E941A14D8015D969C938E9310
:1011C0005C97F801868A978AA08EB18E412C512CAB
:1011D00032011801FAE12F0E311CF8018689978936
:1011E000A08DB18D481659066A067B0608F05BC0D3
:1011F000B6016E0D7F1DCE0101963CDB97012C5F81
:101200003F4F3E872D8789809A80AB80BC80C90183
:10121000032E000CAA0BBB0BAC01BD01480D591DE0
:101220006A1D7B1D49875A876B877C87F901EC0D06
:10123000FD1D9F012C193D09B90190E080E0298531
:101240003A854B855C85621773078407950728F4F8
:101250002191DF0112972C93ECCFED84FE84E80CF2
:10126000F91CF601EE0DFF1D319710828D859E85CC
:1012700001978C0D9D1DD8015B969C938E935A9778
:10128000C201880F991F5C96ED91FC91E80FF91F40
:10129000D1018D919C9191838083BFEF4B1A5B0AA2
:1012A0006B0A7B0A9ACFC7012E960FB6F894DEBF61
:1012B0000FBECDBFDF91CF911F910F91FF90EF90A7
:1012C000DF90CF90BF90AF909F908F907F906F9066
:1012D0005F904F903F902F9008952F923F924F92A2
:1012E0005F926F927F928F929F92AF92BF92CF92B6
:1012F000DF92EF92FF920F931F93CF93DF93CDB7BF
:10130000DEB7A6970FB6F894DEBF0FBECDBF8C0137
:10131000BFD94B015C01980125573B4F3E8B2D8B6C
:10132000F90180819181A281B38175016401C81A9C
:10133000D90AEA0AFB0AD701C601893F9A42A105E8
:10134000B10510F035971082180134E8231A3BEFED
:10135000330AD1018D919C91892B79F0F801E157E5
:10136000FB4F80819181A281B38188159905AA05DF
:10137000BB0518F4F1011182108298012C573B4FE4
:101380003A8B298BA80140585B4F5C8B4B8BC80173
:101390004896988F8F8BD801AA57BB4FBC8FAB8FC5
:1013A000F801EC56FB4FFE8FED8F215F3F4F38A3C6
:1013B0002F8F42505109588B4F8786599B4F9A8FD8
:1013C000898F1996BAA3A9A3A50194012C5E3F4F5A
:1013D0004F4F5F4F2BA33CA34DA35EA3F80184891D
:1013E0009589A689B789892B8A2B8B2BB1F5D801D2
:1013F00012968D919C91DC01ED91FC910284F38514
:10140000E02D19959C0197FF3BC0F801EA57FB4F6F
:1014100080818823F9F07801B9E7EB1ABBEFFB0A6A
:10142000F70180819181A281B381A5019401281BDC
:10143000390B4A0B5B0BDA01C901853C9940A105C8
:10144000B10540F0C801E1D9D7018D929D92AD92CE
:10145000BC92139790E080E0B2C11AD9681979095B
:101460008A099B09F801C488D588E688F788C616DA
:10147000D706E806F90608F0BACF8EEF9FEF9FC1B6
:10148000A989BA898D919C911197820F931F8D9391
:101490009C93F1014081518147305105F9F4A98DA8
:1014A000BA8D8D919C911197AC014F5F5F4F4D9319
:1014B0005C93800F911FFC01208FAF85B8898D91BF
:1014C0009C91119701978D939C93892B09F086CF5E
:1014D00088E090E0F1019183808380CF4115510530
:1014E00019F52F3F310581F481E090E091838083ED
:1014F000CBA0DCA0EDA0FEA0A9A1BAA1CD92DD9267
:10150000ED92FC9213976ACFC3D8681979098A09BA
:101510009B09693873418105910508F45FCFF80193
:10152000EA57FB4F1082A9CF4130510581F42E3F7D
:10153000310519F482E090E0CDCF11821082EB8D5D
:10154000FC8D808181114ACFC8015FD947CF4230DD
:10155000510591F4AF85B8892D933C93E98DFA8DAF
:101560001182108283E090E0D1018D939C93E989F0
:10157000FA893183208332CF4330510571F4322F01
:101580002227AF85B8898D919C911197280F391F1B
:101590002D933C9384E090E09DCF4430510579F445
:1015A00060E071E00E94B0138F3F910529F485E05F
:1015B00090E09183808312CF118210820FCF45304B
:1015C000510569F4AB89BC892D933C9386E090E08A
:1015D00091838083A989BA892D933C93FFCE4630AD
:1015E0005105A1F4322F2227EB89FC89808191815A
:1015F000280F391F3183208387E090E0D1018D933C
:101600009C93EF85F889808191815FCF48305105A7
:1016100009F0E4CE1182108260E071E00E94B01304
:101620008F3F910509F0DACEAB89BC89ED91FC9131
:10163000309709F0DDC0C801E8D886E292E09A83CD
:1016400089831C821B828CEF92E09E838D83988716
:101650008F839A8789871B861C861D861E86680154
:10166000B8EECB1ABBEFDB0A7801E6EBEE1AEBEF34
:10167000FE0A412C22E0522E612C712CD601ED91F4
:10168000FC913097A9F1848195819C838B83808123
:1016900091819E838D8382819381DC01ED91FC9108
:1016A0000480F581E02D199598878F83D601ED91FF
:1016B000FC9182819381DC01ED91FC910680F781A0
:1016C000E02D19959A8789874B865C866D867E8684
:1016D000D601ED91FC9160857185D801ED91FC9169
:1016E0000190F081E02DAE014F5F5F4FC801199569
:1016F000B2E0CB0ED11CEC14FD0409F0BFCF412C9D
:1017000092E0592E612C712CF701A081B1811097C4
:10171000E1F112968D919C9113979C838B83149683
:101720008D919C9115979E838D83ED91FC911197DE
:101730000480F581E02DCD01199598878F83D7011D
:101740008D919C91DC01ED91FC910680F781E02D5B
:1017500019959A8789874B865C866D867E86D80127
:10176000ED91FC91C080D180F70180819181DC01F5
:10177000ED91FC910280F381E02D1995AE014F5F50
:101780005F4FBC01C801F6011995F2E0EF0EF11CA4
:10179000E214F30409F0B8CFF801EA57FB4F81E0F7
:1017A0008083319680829182A282B382AD89BE8984
:1017B0008D929D92AD92BC9213978FEF9FEFA6965C
:1017C0000FB6F894DEBF0FBECDBFDF91CF911F9152
:1017D0000F91FF90EF90DF90CF90BF90AF909F90D0
:1017E0008F907F906F905F904F903F902F900895D3
:1017F000EA30F10509F09BC082E392E09A83898385
:101800001B821C821D821E821F82188619861A86E0
:101810000E944803F801C084D184E284F3849B01D0
:10182000AC012C193D094E095F0969017A016F89E4
:10183000788DCE010196B6D9C701B60128EE33E006
:1018400040E050E0A0D769017A019B01AC018B8197
:101850009C81AD81BE818C0D9D1DAE1DBF1D8B83F6
:101860009C83AD83BE8360E472E48FE090E069D72F
:10187000CF80D884E984FA84DC01CB018C0D9D1DD6
:10188000AE1DBF1D8F839887A987BA870E94480322
:10189000CF80D884E984FA8436E3D31A35E6E30AA4
:1018A00034ECF30A28EE33E040E050E06CD7290135
:1018B0003A019B01AC0160E472E48FE090E041D713
:1018C000A7019601261B370B480B590BCA01B9011A
:1018D0002B813C814D815E812150310941095109A3
:1018E00069017A01C418D508E608F708260137010E
:1018F00020E03AEC4AE95BE346D7420E531E641EF1
:10190000751ED8011C964D925D926D927C921F9728
:10191000F801608B718B828B938B0E944803AD8999
:10192000BE896D937D938D939C93139757CDE6302D
:10193000F10551F46F89788D8D8D9E8D4CDB81E0A2
:10194000EF8DF8A180834ACDEB30F10521F4AB8D0A
:10195000BC8D1C9243CDEF53FE4FEE0FFF1FE00FE7
:10196000F11F80819181009709F438CDDC01ED9160
:10197000FC910190F081E02D6F89788D19952ECD25
:101980004F925F926F927F928F929F92AF92BF928F
:10199000CF92DF92EF92FF920F931F93CF93DF933B
:1019A000EC017B018A81FB0180838B8181838C81A7
:1019B00082838D8183833496412C512C320104E043
:1019C00010E09F012F5F3F4FCF010296DF0113967A
:1019D000A8010C5F1F4F8A809B80AC80BD8048149B
:1019E00059046A047B04C8F4AA85BB85A40FB51FFB
:1019F00014974C9111962C91119712969C911297D5
:101A000013968C9140832183928383838FEF481AAE
:101A1000580A680A780A3496D4CF4C8540834D859D
:101A2000F90140832E85FC0120838F858C93F7017B
:101A3000E00FF11F412C512C3201AF019F012F5FAC
:101A40003F4FCF010296DF0113960C5F1F4F8C842E
:101A50009D84AE84BF84481459046A047B04D8F47E
:101A6000CF01841B950BAC89BD89A80FB91F3C9190
:101A700011962C91119712969C91129713968C9116
:101A800030832183928383838FEF481A580A680A30
:101A9000780A3496D3CF4E8940834F89F901408329
:101AA000288DFC012083898D8C93412C512C32018F
:101AB0008E899F89A88DB98D481659066A067B06BE
:101AC00078F55201AA0CBB1CEC8DFD8DEA0DFB1DB7
:101AD000A081B181FD0101900020E9F731976F01EC
:101AE000CA1ADB0AA60170E060E0C701800F911FEF
:101AF0000E946B040C5F1F4F8C8D9D8DA80EB91E2C
:101B0000F50160817181A601C701800F911F6ED719
:101B10000C0D1D1DFFEF4F1A5F0A6F0A7F0AC8CF19
:101B2000C801DF91CF911F910F91FF90EF90DF904F
:101B3000CF90BF90AF909F908F907F906F905F906D
:101B40004F900895EF92FF920F931F93CF93DF93DF
:101B50008C017B01DC0112962C911297FB012193E1
:101B6000CF011396ED91FC91EF0109900020E9F768
:101B70002197CE1BDF0BAE0170E060E00E946B048A
:101B8000D80113966D917C91AE01C70105962ED7B1
:101B9000CE010596DF91CF911F910F91FF90EF90AD
:101BA0000895CF92DF92EF92FF920F931F93CF93FE
:101BB000DF936C01EB01DC0112968C911297888304
:101BC00013968C91139789831496ED91FC91DF0104
:101BD0000D900020E9F78D01015011090E1B1F0B1C
:101BE000A80170E060E0CE0102960E946B04F6014D
:101BF00064817581A801CE010696F8D6C8010696C3
:101C0000F601A681B781FD0101900020E9F7319727
:101C10007F01EA1AFB0AA70170E060E08C0F9D1FAC
:101C20000E946B04065F1F4FD60116966D917C9142
:101C3000A701CE01800F911FD9D60E0D1F1DF601F1
:101C4000A085B185FD0101900020E9F731977F0162
:101C5000EA1AFB0AA70170E060E0CE01800F911F35
:101C60000E946B040C5F1F4FD60118966D917C91FA
:101C7000A701CE01800F911FB9D6C701800F911F18
:101C8000F6016285438534852585C80FD91F688391
:101C900049833A832B830496DF91CF911F910F9153
:101CA000FF90EF90DF90CF9008951F920F920FB6A4
:101CB0000F9211240BB60F922F933F934F935F9384
:101CC0006F937F938F939F93AF93BF93EF93FF9304
:101CD0008DE394E00E94B601FF91EF91BF91AF9127
:101CE0009F918F917F916F915F914F913F912F9134
:101CF0000F900BBE0F900FBE0F901F9018951F9264
:101D00000F920FB60F9211240BB60F922F938F9351
:101D10009F93EF93FF93E0914D04F0914E048081E7
:101D2000E0915304F091540482FD1DC09081809194
:101D300056048F5F8F7320915704821741F0E09112
:101D40005604F0E0E35CFB4F958F80935604FF91BF
:101D5000EF919F918F912F910F900BBE0F900FBE1F
:101D60000F901F9018958081F2CF1F920F920FB69F
:101D70000F9211242F933F938F939F93AF93BF9311
:101D80008091250490912604A0912704B091280405
:101D90003091240423E0230F2D3758F50196A11D1F
:101DA000B11D209324048093250490932604A093CE
:101DB0002704B09328048091200490912104A091DD
:101DC0002204B09123040196A11DB11D809320042B
:101DD00090932104A0932204B0932304BF91AF9168
:101DE0009F918F913F912F910F900FBE0F901F9059
:101DF000189526E8230F0296A11DB11DD2CF10928F
:101E0000400410923F0488EE93E0A0E0B0E080939D
:101E1000410490934204A0934304B09344048AE4A1
:101E200092E090933E0480933D0485EC90E0909383
:101E30004A048093490484EC90E090934C0480938E
:101E40004B0480EC90E090934E0480934D0481EC21
:101E500090E09093500480934F0482EC90E0909334
:101E600052048093510486EC90E090935404809344
:101E70005304109256041092570410925804109272
:101E8000590482E792E09093A7098093A6091092E3
:101E9000A8091092A9091092AA091092AB091092F0
:101EA000AC091092AD091092AE091092AF091092D0
:101EB000B0091092B1091092B2091092B3091092B0
:101EC000B4098AEE93E090939D0980939C0986EA79
:101ED00099E090939F0980939E091092A509109212
:101EE000A40988E692E09093EB048093EA048DE3E2
:101EF00094E09093ED048093EC0480E091EEA0E0F8
:101F0000B0E08093EE049093EF04A093F004B093BC
:101F1000F104109270098CE592E090937F09809310
:101F20007E091092940910929509109296091092C8
:101F3000970910929B0910929A09E2E0F9E0119238
:101F4000119289E0E433F807D1F7E4E3F9E0119264
:101F5000119289E0E636F807D1F7E2E0F5E082E099
:101F600097E011928E179F07E1F7E2E0F7E01192F8
:101F700089E0E230F807D9F71092800910928109C0
:101F8000109282091092830910928909109288098F
:101F900010928A0910928B0910928C0910928D0967
:101FA00010929309109292091092FE041092FF046D
:101FB00010920005109201058AE892E09093DB04EC
:101FC0008093DA048EE792E09093E1048093E0043A
:101FD0001092E2041092E3041092E4041092E504DB
:101FE00085E391E09093E7048093E60481E090E03C
:101FF0009093E9048093E80485EF93E09093DF04E5
:102000008093DE040895CF93DF9300D01F92CDB765
:10201000DEB7789484B5826084BD84B5816084BD68
:1020200085B5826085BD85B5816085BD80916E0076
:10203000816080936E0010928100809181008260A7
:1020400080938100809181008160809381008091E4
:1020500080008160809380008091B10084608093D3
:10206000B1008091B00081608093B00080919100B8
:1020700082608093910080919100816080939100B3
:10208000809190008160809390008091A100826097
:102090008093A1008091A10081608093A100809134
:1020A000A00081608093A0008091210182608093D4
:1020B0002101809121018160809321018091200183
:1020C00081608093200180917A00846080937A00FF
:1020D00080917A00826080937A0080917A0081609A
:1020E00080937A0080917A00806880937A001092C1
:1020F000C10061E082E00E94170361E083E00E947A
:10210000170362E084E00E9417038091EC04909131
:10211000ED049A838983C090EE04D090EF04E090A0
:10212000F004F090F10460E079E08DE390E0A70125
:10213000960129D3215031094109510956954795F6
:1021400037952795A981BA815096ED91FC9182E04F
:102150008083C114B1EEDB06E104F10421F0211506
:10216000E0E13E07A8F0A981BA815096ED91FC917B
:10217000108260E874E88EE190E0A701960103D335
:1021800021503109410951095695479537952795B1
:10219000A981BA811C96ED91FC911D9730831E9602
:1021A000ED91FC911F97208358961C925897549656
:1021B000ED91FC91559786E080835296ED91FC91CC
:1021C00053978081806180835296ED91FC91539763
:1021D0008081886080835296ED91FC915397808135
:1021E000806880835296ED91FC9180818F7D808301
:1021F0001092670910926609109269091092680995
:1022000010926D0910926C0910926B0910926A0974
:10221000E4E3F9E090E080E021913191232B09F093
:1022200097C0FC01EE0FFF1FEC5CF64F2AED34E087
:10223000318320838C599F4F9093DD048093DC047D
:10224000E2E0F9E090E080E021913191232B09F068
:1022500085C0FC01EE0FFF1FEE5FF64F2CE939E061
:102260003183208383589F4F9093A1098093A009C5
:102270008AEE94E09093A3098093A20902EC11E006
:102280009CE7292E91E0392EF8018491F101E49028
:10229000E6E3F1E0F490FF2009F466C081110E94AA
:1022A0007302EF2DF0E0EE0FFF1FE85EFE4FA591E9
:1022B000B4912C91409131045091320460913304D7
:1022C000709134048091350490913604A0913704C4
:1022D000B0913804E22209F447C0F1E0F093A80974
:1022E0004093A9095093AA096093AB097093AC0974
:1022F0008093AD099093AE09A093AF09B093B00954
:1023000080912D0490912E04A0912F04B09130045F
:102310008093B1099093B209A093B309B093B40923
:102320008091A2099091A3096091A0097091A109DF
:10233000DC01ED91FC910190F081E02D46EA59E03D
:1023400019958AEE94E00E946D090E9443029CCF89
:1023500001968931910509F05FCF72CF01968931DD
:10236000910509F071CF8ACF1092A8090E94480305
:102370002B013C014092390450923A0460923B0494
:1023800070923C048091350490913604A0913704FA
:10239000B091380489839A83AB83BC8380903104E5
:1023A00090903204A0903304B0903404A5019401BD
:1023B000BC01CD01E4D06B017C01C0922D04D09210
:1023C0002E04E0922F04F09230042FE632E143E035
:1023D0005AE3B3D11816ACF42AED3FE049E450E4D7
:1023E000C701B60131D11816F4F090E080E00E94E8
:1023F00007032DEB35EB44E259E3C501B401C0D02E
:102400001DC02FE632E143E05AEBC701B6011CD1F3
:1024100087FF1CC02AED3FE049E450ECC701B6013C
:102420008CD187FDE2CF81E090E00E9407032DEB85
:1024300035EB44E259E3C501B401A1D06093310406
:102440007093320480933304909334048090310469
:1024500090903204A0903304B09034042AED3FE011
:1024600049EC50E4C501B40168D187FD0FC02AEDE5
:102470003FE049EC50E4C501B40181D060933104E0
:102480007093320480933304909334048090310429
:1024900090903204A0903304B090340420E030E0F7
:1024A000A901C501B401D0D087FF0FC02AED3FE0DC
:1024B00049EC50E4C501B40163D0609331047093DA
:1024C00032048093330490933404809129049091D2
:1024D0002A04A0912B04B0912C04481A590A6A0AC4
:1024E0007B0A91ED491697E059066104710408F4DE
:1024F00028CF8091310490913204A0913304B0919F
:1025000034048093A9099093AA09A093AB09B093CE
:10251000AC0989819A81AB81BC818093AD0990938C
:10252000AE09A093AF09B093B009C092B109D0929F
:10253000B209E092B309F092B4098091A209909196
:10254000A3096091A0097091A109DC01ED91FC91B2
:102550000190F081E02D46EA59E019958091390407
:1025600090913A04A0913B04B0913C0480932904DB
:1025700090932A04A0932B04B0932C04E2CE5058DD
:10258000BB27AA270ED09FC090D030F095D020F066
:1025900031F49F3F11F41EF485C00EF4E095E7FB83
:1025A0007BC0E92FA1D080F3BA17620773078407B5
:1025B000950718F071F49EF5B9C00EF4E0950B2E56
:1025C000BA2FA02D0B01B90190010C01CA01A00185
:1025D0001124FF27591B99F0593F50F4503E68F1E0
:1025E0001A16F040A22F232F342F4427585FF3CF21
:1025F000469537952795A795F0405395C9F77EF4F2
:102600001F16BA0B620B730B840BBAF09150A1F03A
:10261000FF0FBB1F661F771F881FC2F70EC0BA0FC0
:10262000621F731F841F48F4879577956795B79548
:10263000F7959E3F08F0B3CF9395880F08F0992740
:10264000EE0F97958795089503D008F481E00895DB
:10265000990F0008550FAA0BE0E8FEEF16161706B3
:10266000E807F907C0F012161306E407F50798F01B
:10267000621B730B840B950B39F40A2661F0232B34
:10268000242B252B21F408950A2609F4A140A695B0
:102690008FEF811D811D089597F99F6780E870E095
:1026A00060E008959FEF80EC089500240A941616C8
:1026B000170618060906089500240A941216130630
:1026C000140605060895092E0394000C11F48823BE
:1026D00052F0BB0F40F4BF2B11F460FF04C06F5FDA
:1026E0007F4F8F4F9F4F089557FD9058440F551FB0
:1026F00059F05F3F71F04795880F97FB991F61F084
:102700009F3F79F087950895121613061406551FFA
:10271000F2CF4695F1DF08C0161617061806991F66
:10272000F1CF86957105610508940895E894BB275B
:1027300066277727CB0197F908958ADF08F48FEF92
:102740000895DB018F939F9348D0BF91AF91A29FD3
:10275000800D911DA39F900DB29F900D112408959F
:1027600097FB072E16F4009406D077FD08D03FD0D3
:1027700007FC05D03EF4909581959F4F0895709584
:1027800061957F4F0895A1E21A2EAA1BBB1BFD0184
:102790000DC0AA1FBB1FEE1FFF1FA217B307E40740
:1027A000F50720F0A21BB30BE40BF50B661F771F98
:1027B000881F991F1A9469F7609570958095909578
:1027C0009B01AC01BD01CF010895EE0FFF1F881FD3
:1027D0008BBF0790F691E02D19941DD0A59F900D09
:1027E000B49F900DA49F800D911D11240895AA1BE4
:1027F000BB1B51E107C0AA1FBB1FA617B70710F0EC
:10280000A61BB70B881F991F5A95A9F7809590951D
:10281000BC01CD010895A29FB001B39FC001A39F49
:10282000700D811D1124911DB29F700D811D112409
:10283000911D08954F925F926F927F928F929F9217
:10284000AF92BF92CF92DF92EF92FF920F931F93BE
:10285000CF93DF938C01009791F4CB01DF91CF915F
:102860001F910F91FF90EF90DF90CF90BF90AF90AE
:102870009F908F907F906F905F904F90C0C0FC01B1
:10288000E60FF71F9C0122503109E217F30708F405
:10289000AAC0D901CD91DC911197C617D70718F1BD
:1028A000C530D10570F0CE0104978617970748F020
:1028B000C61BD70B2297C193D1936D937C93CF0105
:1028C0003AD1C801DF91CF911F910F91FF90EF9006
:1028D000DF90CF90BF90AF909F908F907F906F9040
:1028E0005F904F9008955B01AC1ABD0A4C018C0EAD
:1028F0009D1EA091B709B091B809512C412CF12C23
:10290000E12C109731F58091B5099091B6098815A1
:10291000990509F05CC04616570608F058C080912A
:10292000000290910102009741F48DB79EB740914B
:10293000040250910502841B950BE817F90708F073
:1029400052C0F093B609E093B509F9017183608331
:10295000B8CF8D919C91119712966C901297139607
:102960007C901397A815B90559F56C0142E0C40E87
:10297000D11CCA14DB0420F1AC014A195B09DA014D
:102980001296159780F06282738251834083D90139
:102990006D937C93E114F10471F0D7011396FC93CD
:1029A000EE9312978ECF22968C0F9D1FF901918383
:1029B0008083F301EFCFF093B809E093B70981CF9B
:1029C0004816590608F42C017D01D3019ACFCB019A
:1029D00016D07C01009739F0AE01B80107D0C801CC
:1029E000AAD087016ECF10E000E06BCFFB01DC01C5
:1029F00002C001900D9241505040D8F708950F93B6
:102A00001F93CF93DF938230910510F482E090E022
:102A1000E091B709F091B80930E020E0B0E0A0E023
:102A2000309799F42115310509F44AC0281B390B58
:102A300024303105D8F58A819B816115710589F1B2
:102A4000FB0193838283FE0111C040815181028189
:102A5000138148175907E0F04817590799F4109760
:102A600061F012960C93129713961C933296CF0135
:102A7000DF91CF911F910F9108950093B7091093A3
:102A8000B809F4CF2115310551F04217530738F03A
:102A9000A901DB019A01BD01DF01F801C1CFEF01FE
:102AA000F9CF9093B8098093B709CDCFFE01E20F1B
:102AB000F31F819391932250310939832883D7CF13
:102AC0002091B5093091B609232B41F420910202DF
:102AD000309103023093B6092093B509209100028A
:102AE000309101022115310541F42DB73EB74091D7
:102AF000040250910502241B350BE091B509F091B9
:102B0000B609E217F307A0F42E1B3F0B281739076D
:102B100078F0AC014E5F5F4F2417350748F04E0F39
:102B20005F1F5093B6094093B509819391939FCF4E
:102B3000F0E0E0E09CCFCF93DF930097E9F0FC0159
:102B4000329713821282A091B709B091B809ED01B2
:102B500030E020E01097A1F420813181820F931F93
:102B60002091B5093091B6092817390709F061C0DD
:102B7000F093B609E093B509DF91CF910895EA018A
:102B8000CE17DF07E8F54A815B819E0141155105AB
:102B9000B1F7E901FB83EA8349915991C40FD51F2D
:102BA000EC17FD0761F4808191810296840F951FD7
:102BB000E90199838883828193819B838A83F0E0F2
:102BC000E0E012968D919C9113970097B9F52D91A5
:102BD0003C911197CD010296820F931F2091B50968
:102BE0003091B6092817390739F6309751F5109208
:102BF000B8091092B709B093B609A093B509BCCF34
:102C0000D383C28340815181840F951FC817D90790
:102C100061F44E5F5F4F88819981480F591F51833E
:102C200040838A819B81938382832115310509F03A
:102C3000B0CFF093B809E093B7099ECFFD01DC0156
:0C2C4000C0CF13821282D7CFF894FFCFD0
:102C4C000000B9098000726F7373657269616C5F03
:102C5C006D7367732F526571756573745061726112
:102C6C006D0000000000D10DDE04DB04D804000070
:102C7C0000001806D205CF05CC0500000000A20DFF
:102C8C00830480047D0400000000D801430170011E
:102C9C002402A1017F01930100000000C00CEB078E
:102CAC007A0477040000000063036D0954030000EC
:102CBC000000B107F1067404710400000000E30782
:102CCC001D075C0359030000000023075F035C032E
:102CDC005903666462323832313062666139643766
:102CEC006339313134363236303137386439613505
:102CFC003834007374645F6D7367732F466C6F6147
:102D0C00743634004D6573736167652066726F6D40
:102D1C00206465766963652064726F707065643ACF
:102D2C00206D657373616765206C617267657220D5
:102D3C007468616E206275666665722E003564314A
:102D4C00306666623465313362366136383038301D
:102D5C00376430643137363235646432390041526D
:102D6C00332F4152335F44656275670039663065B5
:102D7C0039386264613635393831393836646466CD
:102D8C003533616661376134306534390031316116
:102D9C0062643733316332353933333236316364FD
:102DAC003631383362643132643632393500726F01
:102DBC007373657269616C5F6D7367732F4C6F67AA
:102DCC0000306164353166383866633434383932F2
:102DDC006638633130363834303737363436303045
:102DEC003500726F7373657269616C5F6D736773B5
:102DFC002F546F706963496E666F006364373136A8
:102E0C00366337346335353263333131666263632D
:102E1C003266653561376263323839007374645FCA
:102E2C006D7367732F54696D65002F4152332F44B6
:102E3C0065627567002F7272626F742F6A6F696EAC
:102E4C0074315F706F736974696F6E5F636F6E74EA
:102E5C00726F6C6C65722F636F6D6D616E640000C8
:020000023000CC
:10E000000D9489F10D94B2F10D94B2F10D94B2F129
:10E010000D94B2F10D94B2F10D94B2F10D94B2F1F0
:10E020000D94B2F10D94B2F10D94B2F10D94B2F1E0
:10E030000D94B2F10D94B2F10D94B2F10D94B2F1D0
:10E040000D94B2F10D94B2F10D94B2F10D94B2F1C0
:10E050000D94B2F10D94B2F10D94B2F10D94B2F1B0
:10E060000D94B2F10D94B2F10D94B2F10D94B2F1A0
:10E070000D94B2F10D94B2F10D94B2F10D94B2F190
:10E080000D94B2F10D94B2F10D94B2F10D94B2F180
:10E090000D94B2F10D94B2F10D94B2F10D94B2F170
:10E0A0000D94B2F10D94B2F10D94B2F10D94B2F160
:10E0B0000D94B2F10D94B2F10D94B2F10D94B2F150
:10E0C0000D94B2F10D94B2F10D94B2F10D94B2F140
:10E0D0000D94B2F10D94B2F10D94B2F10D94B2F130
:10E0E0000D94B2F141546D656761323536300041AF
:10E0F000726475696E6F206578706C6F72657220DE
:10E1000073746B3530305632206279204D4C530099
:10E11000426F6F746C6F616465723E004875683F52
:10E1200000436F6D70696C6564206F6E203D200048
:10E130004350552054797065202020203D20005FF9
:10E140005F4156525F415243485F5F3D2000415658
:10E1500052204C696243205665723D20004743437C
:10E160002056657273696F6E203D20004350552024
:10E1700049442020202020203D20004C6F7720663D
:10E18000757365202020203D20004869676820665F
:10E190007573652020203D200045787420667573D6
:10E1A00065202020203D20004C6F636B2066757336
:10E1B000652020203D20004D617220203720323024
:10E1C000313300312E362E3800342E332E350056A2
:10E1D00023202020414444522020206F7020636F70
:10E1E00064652020202020696E73747275637469E1
:10E1F0006F6E2061646472202020496E74657272B3
:10E20000757074006E6F20766563746F7200726A49
:10E210006D702020006A6D70200057686174207056
:10E220006F72743A00506F7274206E6F7420737541
:10E2300070706F72746564004D7573742062652030
:10E2400061206C6574746572002000577269747483
:10E25000696E672045450052656164696E672045B7
:10E26000450045452065727220636E743D00504F35
:10E27000525400303D5A65726F2061646472003FF1
:10E280003D43505520737461747300403D454550C3
:10E29000524F4D207465737400423D426C696E6B41
:10E2A000204C454400453D44756D70204545505215
:10E2B0004F4D00463D44756D7020464C415348001B
:10E2C000483D48656C70004C3D4C69737420492F83
:10E2D0004F20506F72747300513D51756974005234
:10E2E0003D44756D702052414D00563D73686F7707
:10E2F00020696E7465727275707420566563746FF0
:10E30000727300593D506F727420626C696E6B00BD
:10E310002A0011241FBECFEFD1E2DEBFCDBF01E046
:10E320000CBF12E0A0E0B2E0EEE1FDEF03E00BBFB6
:10E3300002C007900D92A030B107D9F712E0A0E01B
:10E34000B2E001C01D92AE30B107E1F70F9460F367
:10E350000D948DFE01E20EBF0FEF0DBF11241FBE05
:10E360000D9460F30D9400F020E030E040ED57E0B4
:10E3700005C0FA013197F1F72F5F3F4F2817390792
:10E38000C0F308959C01260F311DC901A0E0B0E043
:10E390002F5F3F4FABBFFC018791882361F08093D3
:10E3A000C6008091C00086FFFCCF8091C0008064D1
:10E3B0008093C000EACF08958DE08093C6008091DD
:10E3C000C00086FFFCCF8091C00080648093C000B5
:10E3D0008AE08093C6008091C00086FFFCCF8091C8
:10E3E000C00080648093C00008950F94C2F10F9420
:10E3F000DCF10895FC019081992359F09093C600B7
:10E400008091C00086FFFCCF8091C0008064809323
:10E41000C0003196992379F70895282F982F929567
:10E420009F70892F805D8A3308F0895F8093C600D2
:10E430008091C00086FFFCCF8091C00080648093F3
:10E44000C000822F8F70982F905D9A3308F0995FEB
:10E450009093C6008091C00086FFFCCF8091C000E1
:10E4600080648093C00008959C01FB01853691056E
:10E470001CF46330710594F0C90164E670E00F94F8
:10E480002EFE605D7F4F6093C6008091C00086FFC6
:10E49000FCCF8091C00080648093C0002B30310598
:10E4A00014F43297B4F0C90164E670E00F942EFEC4
:10E4B0006AE070E00F942EFE605D7F4F6093C600AF
:10E4C0008091C00086FFFCCF8091C0008064809363
:10E4D000C000C9016AE070E00F942EFEC0968093E0
:10E4E000C6008091C00086FFFCCF8091C000806490
:10E4F0008093C00008951F93182F8EE692EE60E07F
:10E500000F94C2F11093C6008091C00086FFFCCF2B
:10E510008091C00080648093C0000F94DCF11F9153
:10E5200008952F923F924F925F926F927F928F92B7
:10E530009F92AF92BF92CF92DF92EF92FF920F9392
:10E540001F93DF93CF93CDB7DEB762970FB6F894E2
:10E55000DEBF0FBECDBF382E622ECA01DB015C01CB
:10E560006D01772420E2222E2E010894411C511CBB
:10E570008BC081E0A81680E0B80681E0C80680E084
:10E58000D80628F0C601AA27BB270F940DF2BB2797
:10E59000AD2D9C2D8B2D0F940DF28A2D0F940DF225
:10E5A0002092C6008091C00086FFFCCF8091C00001
:10E5B00080648093C0009DE29093C6008091C0006B
:10E5C00086FFFCCF8091C00080648093C0002092C1
:10E5D000C6008091C00086FFFCCF8091C00080649F
:10E5E0008093C00019828601750188249924A1E0D6
:10E5F0003A1651F03A1620F0B2E03B1661F409C029
:10E600000BBFF701779007C0C7010F9477FE782EF4
:10E6100002C0F7017080872D0F940DF22092C60082
:10E620008091C00086FFFCCF8091C0008064809301
:10E63000C000872D8052F401EF70F0708F3520F408
:10E64000E40DF51D708204C0E40DF51D8EE280839B
:10E650000894E11CF11C011D111D0894811C911CE2
:10E6600090E18916910409F0C2CF80E190E0A0E02A
:10E67000B0E0A80EB91ECA1EDB1E198AC2010F9493
:10E68000FAF10F94DCF16A94662009F072CF629679
:10E690000FB6F894DEBF0FBECDBFCF91DF911F91B3
:10E6A0000F91FF90EF90DF90CF90BF90AF909F9031
:10E6B0008F907F906F905F904F903F902F90089534
:10E6C0002F923F924F925F926F927F928F929F9282
:10E6D000AF92BF92CF92DF92EF92FF920F931F9370
:10E6E000DF93CF93CDB7DEB7CD53D1400FB6F894BB
:10E6F000DEBF0FBECDBF01E20EBF0FEF0DBF94B75F
:10E70000F894A89514BE80916000886180936000A1
:10E7100010926000789493FF05C0E0910002F091A0
:10E7200001021995279A2F9A8091C00082608093E8
:10E73000C00080E18093C40088E18093C1000000A4
:10E74000EE24FF24870144E0A42EB12CCC24DD2448
:10E7500024C0C5010197F1F70894E11CF11C011DCB
:10E76000111D21E2E2162EE4F20620E0020720E06D
:10E77000120718F031E0C32ED12CC801B70127ECE5
:10E780003BE140E050E00F9441FE611571058105C9
:10E79000910519F485B1805885B98091C00087FD35
:10E7A00003C0C114D104A9F2A6014F5F5F4FC25E3E
:10E7B000DE4F59834883CE51D140C25EDE4F8881FF
:10E7C0009981CE51D140019711F00D9410FEC05D9A
:10E7D000DE4F19821882C053D14060E0C15DDE4F28
:10E7E0001882CF52D14088249924C35DDE4F19820C
:10E7F0001882CD52D140C05EDE4F188219821A8233
:10E800001B82C052D140CE5CDE4F188219821A8220
:10E810001B82C253D140EE24FF2487010BBFF701B6
:10E8200007911691C45CDE4F19830883CC53D14005
:10E830000D940BFEC25EDE4F28813981CE51D1404E
:10E840002130310509F52091C600C25EDE4F1982E4
:10E850001882CE51D14022C02F5F3F4F4F4F5F4FA4
:10E86000213082E138078AE7480780E0580780F0C6
:10E87000C45CDE4FE881F981CC53D140EF5FFF4F9C
:10E8800019F0EE27FF27099420E030E040E050E047
:10E890008091C00087FFE0CF2091C600C35DDE4FAE
:10E8A00048815981CD52D1404F5F5F4FC35DDE4FEC
:10E8B00059834883CD52D140213209F063C64A3092
:10E8C000510508F05FC60894811C911C53E0851621
:10E8D000910409F059C600E010E018C081E280936D
:10E8E000C6008091C00086FFFCCF8091C00080648C
:10E8F0008093C0002F5F3F4F2931310579F70F9486
:10E90000DCF10F5F1F4F0530110519F020E030E0FA
:10E91000E5CF10920A0210920B0210920C02109294
:10E920000D02109206021092070210920802109235
:10E930000902109202021092030210920402109235
:10E9400005028FEE90EE60E00F94F5F180E191EE1C
:10E9500060E00F94C2F18091C00087FFFCCF9091DE
:10E96000C600903608F09F759032B8F09093C600BC
:10E970008091C00086FFFCCF8091C00080648093AE
:10E98000C000A0E2A093C6008091C00086FFFCCF2B
:10E990008091C00080648093C000983409F4D7C18E
:10E9A0009934B8F4923409F459C1933458F490333B
:10E9B00019F1903308F4E3C59F33A1F1903409F0C5
:10E9C000DEC5BDC0953409F470C1963409F0D7C5D1
:10E9D00098C1923509F42BC2933538F49C3409F46C
:10E9E000F5C1913509F0CBC518C2963509F445C279
:10E9F000993509F0C4C567C483E792EE62E00F94CD
:10EA0000F5F110920602109207021092080210927D
:10EA1000090210920A0210920B0210920C0210923C
:10EA20000D0213C18FE792EE62E00F94F5F18FEEC5
:10EA300090EE60E00F94F5F181E291EE60E00F94CA
:10EA4000C2F187EB91EE60E00F94F5F180E391EE77
:10EA500060E00F94C2F184EE90EE60E00F94F5F167
:10EA60008FE391EE60E00F94C2F186E090E061E008
:10EA700070E00F9434F20F94DCF18DE591EE60E0DC
:10EA80000F94C2F189EC91EE60E00F94F5F18EE401
:10EA900091EE60E00F94C2F183EC91EE60E00F9490
:10EAA000F5F18CE691EE60E00F94C2F18EE10F94E7
:10EAB0000DF288E90F940DF281E00F940DF20F949E
:10EAC000DCF18BE791EE60E00F94C2F119E0E0E039
:10EAD000F0E010935700E4918E2F0F940DF20F94F5
:10EAE000DCF18AE891EE60E00F94C2F1E3E0F0E03F
:10EAF00010935700E4918E2F0F940DF20F94DCF1D8
:10EB000089E991EE60E00F94C2F1E2E0F0E0109349
:10EB10005700E4918E2F0F940DF20F94DCF188EAE8
:10EB200091EE60E00F94C2F1E1E0F0E01093570045
:10EB30001491812F0F940DF20F94DCF107CF8BE825
:10EB400092EE62E00F94F5F18BE492EE60E00F94A8
:10EB5000F5F10F94DCF100E010E019C0C8016F2D51
:10EB60000F947FFEFF2031F489E492EE60E00F9471
:10EB7000C2F10BC0F092C6008091C00086FFFCCFAE
:10EB80008091C00080648093C0000F5F1F4FC80158
:10EB900081519F41A0E0B0E0ABBFFC01F790BAE229
:10EBA000FB1621F0E2E000301E07C1F60F94DCF105
:10EBB0000F94DCF187E592EE60E00F94F5F10F948D
:10EBC000DCF1CC24DD2400E010E01EC0C8010F946D
:10EBD00077FEF82E882331F489E492EE60E00F94FA
:10EBE000C2F10BC08093C6008091C00086FFFCCFAD
:10EBF0008091C00080648093C000FE1419F00894D6
:10EC0000C11CD11C0F5F1F4FC80181519F41A0E063
:10EC1000B0E0ABBFFC01E790FAE2EF1621F022E092
:10EC20000030120799F60F94DCF10F94DCF182E6C4
:10EC300092EE60E00F94C2F1C60161E070E00F94C3
:10EC400034F20F94DCF10F94DCF110920202109276
:10EC50000302109204021092050278CE89E992EE26
:10EC600062E00F94F5F1279A2F9A16C02F9880E052
:10EC700090E0E0EDF7E03197F1F7019684369105E9
:10EC8000C1F72F9A80E090E0E0EDF7E03197F1F7DF
:10EC9000019684369105C1F78091C00087FFE6CFC9
:10ECA0008091C00087FFFCCF64C485EA92EE62E0E9
:10ECB0000F94F5F140910202509103026091040219
:10ECC0007091050281E020E10F9491F2809102029F
:10ECD00090910302A0910402B091050280509F4FD1
:10ECE000AF4FBF4F8093020290930302A0930402A0
:10ECF000B093050280509041A040B04008F426CE69
:10ED0000A4CF83EB92EE62E00F94F5F140910602FE
:10ED100050910702609108027091090280E020E1A1
:10ED20000F9491F28091060290910702A09108023F
:10ED3000B091090280509F4FAF4FBF4F80930602A2
:10ED400090930702A0930802B0930902FFCD80ECD4
:10ED500092EE62E00F94F5F183E792EE60E00F949B
:10ED6000F5F18FE792EE60E00F94F5F18BE892EE0B
:10ED700060E00F94F5F189E992EE60E00F94F5F10F
:10ED800085EA92EE60E00F94F5F183EB92EE60E09D
:10ED90000F94F5F180EC92EE60E00F94F5F187ECC2
:10EDA00092EE60E00F94F5F188ED92EE60E00F9442
:10EDB000F5F18FED92EE60E00F94F5F18AEE92EEB0
:10EDC00060E00F94F5F183E093EEBDCD87EC92EE19
:10EDD00062E00F94F5F181E40F947BF282E40F94EA
:10EDE0007BF283E40F947BF284E40F947BF285E45E
:10EDF0000F947BF286E40F947BF287E40F947BF20E
:10EE000088E40F947BF28AE40F947BF28BE40F94F6
:10EE10007BF28CE40F947BF299CD88ED92EE62E068
:10EE20000F94F5F1772473948824992409C48FED05
:10EE300092EE62E00F94F5F140910A0250910B02BC
:10EE400060910C0270910D0282E020E10F9491F22A
:10EE500080910A0290910B02A0910C02B0910D02D8
:10EE600080509F4FAF4FBF4F80930A0290930B0289
:10EE7000A0930C02B0930D0269CD8AEE92EE62E08F
:10EE80000F94F5F184EE90EE60E00F94F5F18FECC5
:10EE900091EE60E00F94F5F1662477244301CC5D98
:10EEA000DE4F19821882C452D140D401C301B695F5
:10EEB000A79597958795CA5DDE4F88839983AA8326
:10EEC000BB83C652D140CC5DDE4FA881B981C4520C
:10EED000D1401196CC5DDE4FB983A883C452D14096
:10EEE000CD0162E070E00F9434F2B0E2B093C6005E
:10EEF0008091C00086FFFCCF8091C0008064809329
:10EF0000C000EDE2E093C6008091C00086FFFCCF18
:10EF10008091C00080648093C000F0E2F093C6004E
:10EF20008091C00086FFFCCF8091C00080648093F8
:10EF3000C000CA5DDE4FE880F9800A811B81C6529D
:10EF4000D140BB27A12F902F8F2D0F940DF2CA5DBA
:10EF5000DE4F8881C652D1400F940DF2B0E2FB2EF5
:10EF6000F092C6008091C00086FFFCCF8091C00067
:10EF700080648093C0000DE30093C6008091C000C0
:10EF800086FFFCCF8091C00080648093C00010E2B7
:10EF90001093C6008091C00086FFFCCF8091C00016
:10EFA00080648093C0008BBEF3012791C65DDE4F65
:10EFB0002883CA52D140A22EBB24CC24DD2408943D
:10EFC000611C711C811C911C8BBEF3018791282E42
:10EFD0003324442455240894611C711C811C911C09
:10EFE0008BBEF3013791C55DDE4F3883CB52D140E4
:10EFF0000894611C711C811C911C8BBEF30147910C
:10F00000C45DDE4F4883CC52D140ADEFEA2EAFEF66
:10F01000FA2EAFEF0A2FAFEF1A2F6E0C7F1C801E57
:10F02000911E142D032DF22CEE24EA0CFB1C0C1D5A
:10F030001D1D0F940DF220E22093C6008091C000A8
:10F0400086FFFCCF8091C00080648093C000C65DC5
:10F05000DE4F8881CA52D1400F940DF230E23093D6
:10F06000C6008091C00086FFFCCF8091C000806404
:10F070008093C000C45DDE4F8881CC52D1400F9494
:10F080000DF240E24093C6008091C00086FFFCCFA5
:10F090008091C00080648093C000C55DDE4F888190
:10F0A000CB52D1400F940DF250E25093C6008091A4
:10F0B000C00086FFFCCF8091C00080648093C000B8
:10F0C0008FEFE8168FEFF80680E0080780E018075A
:10F0D00031F484E092EE60E00F94C2F1DFC0D80119
:10F0E000C7018070907CA070B0708050904CA040A0
:10F0F000B040D1F52FEF3FE340E050E0E222F322B1
:10F1000004231523CA5DDE4FA880B980CA80DB8046
:10F11000C652D140AE0CBF1CC01ED11EAA0CBB1CD7
:10F12000CC1CDD1C8EE092EE60E00F94C2F1BB2798
:10F13000A12F902F8F2D0F940DF28E2D0F940DF285
:10F1400030E23093C6008091C00086FFFCCF8091F2
:10F15000C00080648093C0004EE34093C60080915D
:10F16000C00086FFFCCF87C08EE09EEFA0E0B0E03D
:10F17000E822F9220A231B239CE0E91694E9F90608
:10F1800090E0090790E0190709F088C0C45DDE4FE0
:10F19000A881CC52D140EA2EFF2400E010E0102FCD
:10F1A0000F2DFE2CEE24C55DDE4FB881CB52D14031
:10F1B000EB0EF11C011D111DD601C501817090706F
:10F1C000A070B070DC0199278827E80EF91E0A1F8D
:10F1D0001B1F20EF30E040E050E0A222B322C42207
:10F1E000D52241E1AA0CBB1CCC1CDD1C4A95D1F7F1
:10F1F000EA0CFB1C0C1D1D1D81E090E0A0E0B0E0BE
:10F20000282239224A225B2235E1220C331C441C7D
:10F21000551C3A95D1F7E20CF31C041D151D57013E
:10F220006801AA0CBB1CCC1CDD1C85E192EE60E0E1
:10F230000F94C2F1C801AA27BB270F940DF2BB2778
:10F24000A12F902F8F2D0F940DF28E2D0F940DF274
:10F2500090E29093C6008091C00086FFFCCF809121
:10F26000C00080648093C000AEE3A093C60080918C
:10F27000C00086FFFCCF8091C00080648093C000F6
:10F28000C601AA27BB270F940DF2BB27AD2D9C2DDD
:10F290008B2D0F940DF28A2D0F940DF20F94DCF14B
:10F2A000CC5DDE4FE881F981C452D140F99709F471
:10F2B0004DCBF4E0EF2EF12C012D112D6E0C7F1CA7
:10F2C000801E911EF2CD83E093EE62E00F94F5F183
:10F2D0008AE192EE60E00F94C2F18091C00087FF56
:10F2E000FCCF1091C6001F751093C6008091C0001E
:10F2F00086FFFCCF8091C00080648093C0000F9493
:10F30000DCF1812F81548A3108F036C1163409F4BA
:10F3100095C0173490F4133409F44EC0143430F40B
:10F320001134F1F0123409F01DC130C0143409F465
:10F3300059C0153409F016C16BC01A3409F4C4C0A1
:10F340001B3438F4173409F48FC0183409F00AC19B
:10F35000A1C01B3409F4D2C01C3409F003C1E8C0B9
:10F360008FEF81B90DC082B1809582B980E090E0C5
:10F37000E0EDF7E03197F1F70196883C9105C1F790
:10F380008091C00087FFEFCF12B8EFC08FEF84B934
:10F390000DC085B1809585B980E090E0E0EDF7E0A3
:10F3A0003197F1F70196883C9105C1F78091C00033
:10F3B00087FFEFCF15B8D9C08FEF87B90DC088B1DF
:10F3C000809588B980E090E0E0EDF7E03197F1F7C3
:10F3D0000196883C9105C1F78091C00087FFEFCF6F
:10F3E00018B8C3C08FEF8AB90DC08BB180958BB9A7
:10F3F00080E090E0E0EDF7E03197F1F70196883C8E
:10F400009105C1F78091C00087FFEFCF1BB8ADC059
:10F410008FEF8DB90DC08EB180958EB980E090E0F0
:10F42000E0EDF7E03197F1F70196883C9105C1F7DF
:10F430008091C00087FFEFCF1EB897C08FEF80BBD1
:10F440000DC081B3809581BB80E090E0E0EDF7E0F6
:10F450003197F1F70196883C9105C1F78091C00082
:10F4600087FFEFCF11BA81C08FEF83BB0DC084B38C
:10F47000809584BB80E090E0E0EDF7E03197F1F714
:10F480000196883C9105C1F78091C00087FFEFCFBE
:10F4900014BA6BC08FEF809301010FC080910201FD
:10F4A00080958093020180E090E0E0EDF7E03197F5
:10F4B000F1F70196883C9105C1F78091C00087FF64
:10F4C000EDCF1092020151C08FEF809304010FC065
:10F4D0008091050180958093050180E090E0E0ED4A
:10F4E000F7E03197F1F70196883C9105C1F78091DB
:10F4F000C00087FFEDCF1092050137C08FEF8093DA
:10F5000007010FC08091080180958093080180E079
:10F5100090E0E0EDF7E03197F1F70196883C910536
:10F52000C1F78091C00087FFEDCF109208011DC088
:10F530008FEF80930A010FC080910B01809580931B
:10F540000B0180E090E0E0EDF7E03197F1F70196F4
:10F55000883C9105C1F78091C00087FFEDCF1092E4
:10F560000B0103C085E292EEEEC98091C00087FFD7
:10F57000FCCF8091C600EAC988E392EEE4C98CE131
:10F5800091EEE1C988249924933011F1943028F444
:10F59000913089F09230B8F408C0953061F195301F
:10F5A000F0F0963009F048C043C02B3109F042C951
:10F5B00091E06BE13FC96227C15DDE4F2883CF52E6
:10F5C000D14092E037C9B22FA0E0622793E032C960
:10F5D000822F90E0A82BB92B622794E02BC92E3004
:10F5E00009F039C3622795E0C05DDE4F19821882A9
:10F5F000C053D1401FC9E1E0F0E0EC0FFD1FC05D3A
:10F60000DE4F08811981C053D140E00FF11F2083E4
:10F610000F5F1F4FC05DDE4F19830883C053D14079
:10F6200062270A171B0709F005C9D80196E002C92D
:10F63000261709F010C303C0973009F0FBC87724E0
:10F640009981933109F412C19431C8F4963009F4C8
:10F65000D8C0973050F4923009F406C1933009F4C1
:10F660006DC0913009F059C253C0913109F477C08F
:10F67000923108F0BBC0903109F04FC2F5C098310B
:10F6800009F487C0993150F4953109F4EFC09531F0
:10F6900008F4C6C1963109F040C2C2C19A3109F4DA
:10F6A0006CC09A3108F491C09B3109F45BC09D3164
:10F6B00009F033C29D81903359F48F81882311F46E
:10F6C0009EE11CC0813011F091E018C098E916C08D
:10F6D000892F807591F0903539F4E0E0F0E089E011
:10F6E0008093570094910AC0983539F4E3E0F0E034
:10F6F00089E080935700949101C090E01A821B82A8
:10F700008D818C831D829E831F8227E030E009C299
:10F710001A8288E08B8381E48C8386E58D8382E581
:10F720008E8389E48F8383E5888780E589878FE5E9
:10F730008A8782E38B872BE030E0F3C18A818139AD
:10F7400041F0823941F0803911F48FE005C080E04A
:10F7500003C082E001C08AE01A828B8344C0772410
:10F76000739482C08D81882311F48EE12CC0813086
:10F7700011F081E028C088E926C01A82E1E0F0E0BB
:10F7800089E08093570084918B831C8224E030E0D1
:10F79000C8C18B81803589F48C81883039F4E2E0EE
:10F7A000F0E089E08093570084910DC0E0E0F0E044
:10F7B00089E080935700849106C0E3E0F0E089E09F
:10F7C0008093570084911A82DFCF8D81836C99E0FA
:10F7D000E1E0F0E0082E90935700E89507B600FCB2
:10F7E000FDCF1A821B8223E030E09BC180EC8A832C
:10F7F000CE5CDE4F188219821A821B82C253D1401E
:10F800008EC18A8190E0A0E0B0E0582F44273327D2
:10F8100022278B8190E0A0E0B0E0DC0199278827C7
:10F82000282B392B4A2B5B2B8D8190E0A0E0B0E098
:10F83000282B392B4A2B5B2B8C8190E0A0E0B0E089
:10F84000BA2FA92F982F8827282B392B4A2B5B2BCF
:10F85000220F331F441F551FC05EDE4F288339839C
:10F860004A835B83C052D1401A8259C13A81C95C34
:10F87000DE4F3883C753D140CA5CDE4F1882C6536F
:10F88000D1408B81C82EDD24CA5CDE4F488159816E
:10F89000C653D140C42AD52A933109F082C0CE5C28
:10F8A000DE4F88819981AA81BB81C253D1408050AB
:10F8B000904CA340B04030F583E0CE5CDE4FE88052
:10F8C000F9800A811B81C253D140F70100935B008C
:10F8D00080935700E89507B600FCFDCFCE5CDE4F65
:10F8E000088119812A813B81C253D14000501F4FAA
:10F8F0002F4F3F4FCE5CDE4F088319832A833B8313
:10F90000C253D140C05EDE4F488159816A817B81FC
:10F91000C052D140DE011B9631E08C9111962C91A2
:10F9200011971296C75CDE4F2883C953D140C85C3B
:10F93000DE4F1882C853D14090E0C85CDE4FE881AA
:10F94000F981C853D1408E2B9F2B0C01FA01609393
:10F950005B0030935700E89511244E5F5F4F6F4F67
:10F960007F4F0EEFE02E0FEFF02ECE0CDF1CC114F8
:10F97000D10499F685E0C05EDE4F088119812A81A5
:10F980003B81C052D140F80120935B008093570027
:10F99000E89507B600FCFDCF81E180935700E8951C
:10F9A00035C0C05EDE4F88819981AA81BB81C0527B
:10F9B000D140B695A795979587957C018601ABE0D8
:10F9C000AA2EB12CAC0EBD1E0BC0D5016D915D01F0
:10F9D000C7010F947FFE0894E11CF11C01501040F8
:10F9E0000115110591F7A60160E070E0440F551F65
:10F9F000661F771FC05EDE4FE880F9800A811B8199
:10FA0000C052D1404E0D5F1D601F711F1A82C05E33
:10FA1000DE4F488359836A837B83C052D1407FC0C5
:10FA2000FA80C55CDE4FF882CB53D140C65CDE4F16
:10FA30001882CA53D1408B81C82EDD24C65CDE4FAC
:10FA400008811981CA53D140C02AD12A1A828981DA
:10FA5000BE016D5F7F4F843121F59601C05EDE4FA0
:10FA6000E880F9800A811B81C052D1400BBFF701A9
:10FA700087919691DB018C9311969C936E5F7F4FDB
:10FA8000D801C7010296A11DB11DC05EDE4F88835B
:10FA90009983AA83BB83C052D14022503040F1F6F3
:10FAA00036C0C05EDE4F288139814A815B81C052F9
:10FAB000D1400894C108D108760100E010E0089414
:10FAC000C11CD11C0894E11CF11C011D111DE20E8A
:10FAD000F31E041F151F21BDBB27A52F942F832FB5
:10FAE00082BD2F5F3F4F4F4F5F4FF89A80B5DB01CC
:10FAF0008D93BD012E153F054007510761F7C05E8C
:10FB0000DE4F288339834A835B83C052D1409601FC
:10FB10002D5F3F4FFB01108204C080EC8A8322E0FE
:10FB200030E08BE18093C6008091C00086FFFCCF5F
:10FB30008091C00080648093C000C15DDE4FF88179
:10FB4000CF52D140F093C6008091C00086FFFCCF19
:10FB50008091C00080648093C000432F3093C60022
:10FB60008091C00086FFFCCF8091C00080648093AC
:10FB7000C000922F2093C6008091C00086FFFCCF6A
:10FB80008091C00080648093C0008EE08093C600A6
:10FB90008091C00086FFFCCF8091C000806480937C
:10FBA000C00065E1C15DDE4FE880CF52D1406E25D7
:10FBB00069276427FE01319610C090819093C6009A
:10FBC0008091C00086FFFCCF31968091C000806498
:10FBD0008093C0006927215030402115310569F715
:10FBE0006093C6008091C00086FFFCCF8091C0006A
:10FBF00080648093C00085B1805885B9772081F4F6
:10FC0000C15DDE4F0881CF52D1400F5FC15DDE4F35
:10FC10000883CF52D14090E0A0E0B0E00D941AF4F8
:10FC200027982F9880E090E020ED37E0F901319798
:10FC3000F1F7019684369105C9F700008091C00064
:10FC40008D7F8093C00081E180935700E895EE2777
:10FC5000FF270994FFCF90E00D941AF497FB092E2B
:10FC600007260AD077FD04D02ED006D000201AF443
:10FC7000709561957F4F0895F6F7909581959F4F08
:10FC80000895A1E21A2EAA1BBB1BFD010DC0AA1FDD
:10FC9000BB1FEE1FFF1FA217B307E407F50720F0F5
:10FCA000A21BB30BE40BF50B661F771F881F991F70
:10FCB0001A9469F760957095809590959B01AC01B9
:10FCC000BD01CF010895AA1BBB1B51E107C0AA1FAC
:10FCD000BB1FA617B70710F0A61BB70B881F991FED
:10FCE0005A95A9F780959095BC01CD010895F99991
:10FCF000FECF92BD81BDF89A992780B50895262F31
:10FD0000F999FECF1FBA92BD81BD20BD0FB6F89400
:0EFD1000FA9AF99A0FBE01960895F894FFCF63
:040000033000E000E9
:00000001FF
