:100000000C9462000C948A000C948A000C948A0070
:100010000C948A000C948A000C948A000C948A0038
:100020000C948A000C948A000C948A000C948A0028
:100030000C948A000C948A000C948A000C948A0018
:100040000C94B60F0C948A000C94840F0C945E0FE1
:100050000C948A000C948A000C948A000C948A00F8
:100060000C948A000C948A000000000024002700F1
:100070002A0000000000250028002B0000000000DE
:1000800023002600290004040404040404040202DA
:100090000202020203030303030301020408102007
:1000A0004080010204081020010204081020000012
:1000B0000008000201000003040700000000000027
:1000C0000000001011241FBECFEFD8E0DEBFCDBF6F
:1000D00013E0A0E0B1E0EEE6F5E302C005900D927A
:1000E000A43FB107D9F728E0A4EFB3E001C01D9207
:1000F000A935B207E1F710E0C2E6D0E004C02197CD
:10010000FE010E947E18C136D107C9F70E94F8117E
:100110000C94B51A0C940000FC0182819381A48197
:10012000B58180932D0490932E04A0932F04B09357
:1001300030040895FC0182819381A481B58180936C
:10014000250490932604A0932704B09328040895CF
:10015000FC0182819381A481B58180931D049093D9
:100160001E04A0931F04B09320040895FC01828113
:100170009381A481B5818093150490931604A09374
:100180001704B09318040895FC0182819381A4811F
:10019000B58180930D0490930E04A0930F04B09347
:1001A00010040895FC0182819381A481B58180931C
:1001B000050490930604A0930704B09308040895DF
:1001C000ECEAF7E030E020E041915191452B71F4E9
:1001D000F901EE0FFF1FE455F84F918380832C59EE
:1001E0003F4FFC013383228381E008952F5F3F4F0F
:1001F0002931310549F780E00895AF92BF92CF923F
:10020000DF92EF92FF920F931F93CF93DF936C01D6
:100210007B018B01040F151FEB015E01AE18BF08B7
:10022000C017D10759F06991D601ED91FC91019069
:10023000F081E02DC6010995892B79F7C501DF9181
:10024000CF911F910F91FF90EF90DF90CF90BF90D3
:10025000AF900895FC01538D448D252F30E0842FFD
:1002600090E0821B930B541710F0CF9608950197DE
:100270000895FC01918D828D981761F0A28DAE0FCB
:10028000BF2FB11D5D968C91928D9F5F9F73928F52
:1002900090E008958FEF9FEF0895FC01918D828D7E
:1002A000981731F0828DE80FF11D858D90E008954B
:1002B0008FEF9FEF0895FC01918D228D892F90E0A3
:1002C000805C9F4F821B91098F739927089585E366
:1002D00094E00E945B0121E0892B09F420E0822F49
:1002E000089580E090E0892B29F00E946701811138
:1002F0000C9400000895FC01A48DA80FB92FB11D26
:10030000A35ABF4F2C91848D90E001968F7399274B
:10031000848FA689B7892C93A089B1898C91837029
:1003200080648C93938D848D981306C00288F38922
:10033000E02D80818F7D80830895EF92FF920F934F
:100340001F93CF93DF93EC0181E0888F9B8D8C8D81
:1003500098131AC0E889F989808185FF15C09FB775
:10036000F894EE89FF896083E889F9898081837038
:10037000806480839FBF81E090E0DF91CF911F91E7
:100380000F91FF90EF900895F62E0B8D10E00F5F08
:100390001F4F0F731127E02E8C8D8E110CC00FB6DE
:1003A00007FCFACFE889F989808185FFF5CFCE0176
:1003B0000E947B01F1CFEB8DEC0FFD2FF11DE35A75
:1003C000FF4FF0829FB7F8940B8FEA89FB898081F9
:1003D0008062CFCFCF93DF93EC01888D8823B9F073
:1003E000AA89BB89E889F9898C9185FD03C0808140
:1003F00086FD0DC00FB607FCF7CF8C9185FFF2CFBD
:10040000808185FFEDCFCE010E947B01E9CFDF9196
:10041000CF910895833081F028F4813099F08230B3
:10042000A9F008958730A9F08830C9F08430B1F47C
:10043000809180008F7D03C0809180008F778093B2
:100440008000089584B58F7784BD089584B58F7D2D
:10045000FBCF8091B0008F778093B000089580919A
:10046000B0008F7DF9CF1F93CF93DF93282F30E01B
:10047000F901E255FF4F8491F901E656FF4FD491FF
:10048000F901EA57FF4FC491CC23A9F0162F81112F
:100490000E940A02EC2FF0E0EE0FFF1FEE58FF4F14
:1004A000A591B4918FB7F894EC91111108C0D09533
:1004B000DE23DC938FBFDF91CF911F910895DE2B58
:1004C000F8CFCF93DF9390E0FC01E656FF4F2491E5
:1004D0008A579F4FFC0184918823D1F090E0880FC8
:1004E000991FFC01E859FF4FA591B491FC01EE580A
:1004F000FF4FC591D491623071F49FB7F8943C914D
:10050000822F809583238C93E8812E2B28839FBF95
:10051000DF91CF9108958FB7F894EC912E2B2C9307
:100520008FBFF6CF2FB7F8946091F5037091F60363
:100530008091F7039091F8032FBF08958A549D4F3F
:10054000FC018081089584E991E0089585EB91E0B4
:100550000895FC01868597850895AF92BF92CF924A
:10056000DF92EF92FF920F931F93CF93DF9300D010
:1005700000D01F92CDB7DEB7643671054CF0FC0198
:10058000EA54FD4F2081F12CE12C222309F476C09E
:10059000DA017B018C01BC01695C7E4FED91FC911D
:1005A0000190F081E02DCA010995680120EDC21A81
:1005B0002EEFD20A2FEFD6012C93F801EF5CFE4FFD
:1005C0002EEF208331968083319690833196292FA8
:1005D000280F209520833196E0821696FC9245E004
:1005E00050E030E020E0DC011696A417B50734F0A7
:1005F0006191260F311D4F5F5F4FF7CF7C01B8E04F
:10060000EB0EF11C800F911FFC01E95CFE4F209561
:100610002083E9E1EE16E1E0FE06B4F45601C501DF
:100620008C199D098E159F054CF5D80112968D9158
:100630009C91F50161915F01DC01ED91FC910190CC
:10064000F081E02D0995EBCF80E491E09A838983D6
:1006500083E08B8386EC91E09D838C83D801ED91C0
:10066000FC910190F081E02DAE014F5F5F4F67E09C
:1006700070E0C8010995EE24EA94FE2CC7010F90A2
:100680000F900F900F900F90DF91CF911F910F91CE
:10069000FF90EF90DF90CF90BF90AF9008950F93B1
:1006A0001F93CF93DF93CDB7DEB72A970FB6F89499
:1006B000DEBF0FBECDBF8C0184E391E09A838983B6
:1006C0001B821C821D821E821F82188619861A8632
:1006D000D801ED91FC910190F081E02DAE014F5FCA
:1006E0005F4F6AE070E0C80109950E949202F8012C
:1006F00060877187828793872A960FB6F894DEBF4A
:100700000FBECDBFDF91CF911F910F910895CF9272
:10071000DF92EF92FF92DC011D921D921D921C92BE
:100720001397FB0130E020E0419150E0022E02C01F
:10073000440F551F0A94E2F7052E000C660B770B49
:10074000CD90DD90ED90FC9013974C295D296E299A
:100750007F294D935D936D937C931397285F3F4F53
:100760002032310509F7FF90EF90DF90CF90089588
:10077000FC0140835183128213820895CF93C82FC6
:10078000862F60E04130510509F061E00E9433029C
:1007900061E08C2F0E9433028BE891E00197F1F722
:1007A00060E08C2FCF910C9433024F925F926F9246
:1007B0007F928F929F92AF92BF92CF92DF92EF92F1
:1007C000FF920F931F93CF93DF935C014B01EA01DC
:1007D00039012FE632E143E05AE3C301B8010E9438
:1007E000A71718163CF52AED3FE049E450E4C30191
:1007F000B8010E94BB1618168CF150E040E0B4011D
:10080000C5010E94BE03A701960160E070E080E888
:100810009FE30E94C0162AED3FE049EC50E40E949D
:10082000AC179B01AC01688179818A819B810E9410
:100830004F1630C02FE632E143E05AEBC301B80156
:100840000E94BB1687FF2AC02AED3FE049E450EC26
:10085000C301B8010E94A71787FDCFCF41E050E048
:10086000B401C5010E94BE03A701960160E070E0DB
:1008700080E89FE30E94C0162AED3FE049EC50E477
:100880000E94AC179B01AC01688179818A819B81B0
:100890000E944E16688379838A839B83C880D9809F
:1008A000EA80FB802AED3FE049EC50E4C701B60145
:1008B0000E94A71787FD0CC02AED3FE049EC50E4E9
:1008C000C701B6010E944E16688379838A839B8391
:1008D000C880D980EA80FB8020E030E0A901C70110
:1008E000B6010E94BB1687FF0CC02AED3FE049EC21
:1008F00050E4C701B6010E944F16688379838A834A
:100900009B83DF91CF911F910F91FF90EF90DF902C
:10091000CF90BF90AF909F908F907F906F905F909F
:100920004F9008958FEF91E0089580E292E008954E
:100930008EE292E0089588E091E008958FE492E0DD
:10094000089580E792E008954F925F926F927F92B0
:100950008F929F92AF92BF92EF92FF920F931F934D
:10096000CF93DF9300D000D0CDB7DEB77C018B01F1
:10097000FB018191BF01F7018283CE0101960E94A4
:10098000870389819A81AB81BC814C015D01F5E0CF
:100990008F0E911CA11CB11CA8014C5F5F4FFA0186
:1009A00025E030E02901712C612C481459046A04B7
:1009B0007B0428F4618161932F5F3F4FF3CFF801EF
:1009C000E80FF91F1482F7015483438305960F90B3
:1009D0000F900F900F90DF91CF911F910F91FF908B
:1009E000EF90BF90AF909F908F907F906F905F90AF
:1009F0004F90089583E892E0089584EA92E0089584
:100A00004F925F926F927F928F929F92AF92BF921E
:100A1000CF92DF92EF92FF920F931F93CF93DF93CA
:100A2000CDB7DEB72C970FB6F894DEBF0FBECDBFA3
:100A30007C018B01DB018C9190E0F7019383828331
:100A400011962C91922B938382836E5F7F4FCE0100
:100A500001960E94870389809A80AB80BC80240124
:100A60003501F6E04F0E511C611C711C98012B5F83
:100A70003F4FF90186E090E0AC0170E060E0441582
:100A800055056605770520F4418141930196F4CF21
:100A9000B4016A5F7F4FF801E80DF91D1582D70197
:100AA00015963C932E931497600F711FCE010596F7
:100AB0000E948703BAE08B0E911C4D805E806F8090
:100AC0007884C401092C000CAA0BBB0B5C016D01DE
:100AD000A40CB51CC61CD71CF801E80DF91DAF010C
:100AE000401B510B70E060E04A155B056C057D050D
:100AF00038F42191AF0142505109DA012C93EFCF24
:100B0000480C591CB801640D751DFB01319710820A
:100B1000C4010197800F911FF70197838683CE014F
:100B200009960E94870392012C5F3F4F89849A8423
:100B3000AB84BC84A901032E000C660B770B480D17
:100B4000591D6A1D7B1DF801E20FF31FCF01801BA9
:100B5000910BB0E0A0E084179507A607B70728F42B
:100B60008191DF0112978C93F1CFC901880D991DF6
:100B7000F801E80FF91FDF0111971C92215031098C
:100B8000020F131FD70119961C930E9318972181FA
:100B9000428150E070E060E0BA0155274427522BB3
:100BA0002081422B2381722BF70142875387648770
:100BB000758704962C960FB6F894DEBF0FBECDBF96
:100BC000DF91CF911F910F91FF90EF90DF90CF9029
:100BD000BF90AF909F908F907F906F905F904F905D
:100BE00008958DEB92E008958EED92E00895FC015A
:100BF000DB014C9150E070E060E0428353836483FA
:100C0000758311968C911197582B4283538364837B
:100C1000758312968C911297682B42835383648359
:100C2000758313968C911397782B42835383648337
:100C3000758314964C91149750E070E060E0468301
:100C400057836087718715968C911597582B46832B
:100C500057836087718716968C911697682B468309
:100C600057836087718717968C91782B46835783BB
:100C70006087718788E090E00895DC01FB0112969F
:100C80008C911297808313968C911397818314967D
:100C90008C911497828315968C9115978383169661
:100CA0008C911697848317968C9117978583189645
:100CB0008C911897868319968C91878388E090E0B1
:100CC0000895CF92DF92EF92FF920F931F93FC0152
:100CD000DB01C3800C2D10E030E020E045E03695CC
:100CE0002795179507954A95D1F70D931D932D9349
:100CF0003C9313978481C82ED12CF12CE12C53E026
:100D0000CC0CDD1CEE1CFF1C5A95D1F7C02AD12A51
:100D1000E22AF32ACD92DD92ED92FC92139785811F
:100D2000082F10E030E020E06BE0000F111F221FC1
:100D3000331F6A95D1F70C291D292E293F290D93C0
:100D40001D932D933C931397468150E070E060E033
:100D500083E1440F551F661F771F8A95D1F74427FB
:100D6000552768777727042B152B262B372B0D93C8
:100D70001D932D933C931397478150E070E060E002
:100D800094E0440F551F661F771F9A95D1F7407F57
:100D9000577066277727C680D12CF12CE12C84E090
:100DA000F694E794D794C7948A95D1F74C295D2996
:100DB0006E297F294115510561057105A1F0405843
:100DC00053406109710997E1440F551F661F771F52
:100DD0009A95D1F7402B512B622B732B4D935D933A
:100DE0006D937C931397478150E070E060E0742F1F
:100DF00066275527442744275527662770780D9185
:100E00001D912D913C911397402B512B622B732BED
:100E10004D935D936D937C93139788E090E01F91C1
:100E20000F91FF90EF90DF90CF900895EF92FF9297
:100E30000F931F93CF93DF938C017B01FB012191D3
:100E4000CF01F8012283B8016D5F7F4F0E946106D8
:100E5000EC012196B801695F7F4FC7018C0F9D1F80
:100E60000E946106C80FD91FB801655F7F4FC70197
:100E70008C0F9D1F0E946106C80FD91FB801615FCA
:100E80007F4FC7018C0F9D1F0E946106C80FD91F9D
:100E9000B8016D5E7F4FC7018C0F9D1F0E946106D8
:100EA000C80FD91FB801695E7F4FC7018C0F9D1F06
:100EB0000E946106C80FD91FB801655E7F4FC70148
:100EC0008C0F9D1F0E946106C80FD91FB801615E7B
:100ED0007F4FC7018C0F9D1F0E946106C80FD91F4D
:100EE000B8016D5D7F4FC7018C0F9D1F0E94610689
:100EF000C80FD91FB801695D7F4FC7018C0F9D1FB7
:100F00000E946106C80FD91FB801655D7F4FC701F8
:100F10008C0F9D1F0E946106C80FD91FB801615D2B
:100F20007F4FC7018C0F9D1F0E9461068C0F9D1F74
:100F3000DF91CF911F910F91FF90EF9008959B014A
:100F4000BC016E5F7F4FC9010C9461060F931F9324
:100F5000CF93DF938C01EC012696CE010E949F0770
:100F6000D8011C96ED91FC91CE01DF91CF911F919C
:100F70000F9109948F929F92AF92BF92CF92DF927E
:100F8000EF92FF92CF93DF93EC014A015B01DB010B
:100F9000CA0147E1B595A795979587954A95D1F7E9
:100FA0009927AA27BB270097A105B10521F08058F2
:100FB0009C4FAF4FBF4F188219821A82B501A4010E
:100FC00025E0440F551F661F771F2A95D1F74B83E5
:100FD000B501A40133E075956795579547953A9506
:100FE000D1F74C83B501A401EBE075956795579552
:100FF0004795EA95D1F74D83B501A401F3E17595C5
:10100000679557954795FA95D1F74F706C017D011B
:1010100024E0CC0CDD1CEE1CFF1C2A95D1F74C29DA
:101020004E836C017D0134E0F594E794D794C79426
:101030003A95D1F720E030E0A901C501B4010E9442
:10104000BB1687FD0EC0CF8288E090E0DF91CF9184
:10105000FF90EF90DF90CF90BF90AF909F908F90D8
:1010600008958C2D80688F83EFCFEF92FF920F93BE
:101070001F93CF93DF938C017B01FC012281FB0145
:101080002193CF01F80143815481658176810E94CB
:10109000BA07EC012196F801478150856185728578
:1010A000C7018C0F9D1F0E94BA07C80FD91FF801F6
:1010B0004385548565857685C7018C0F9D1F0E94E9
:1010C000BA07C80FD91FF80147855089618972890D
:1010D000C7018C0F9D1F0E94BA07C80FD91FF801C6
:1010E0004389548965897689C7018C0F9D1F0E94A9
:1010F000BA07C80FD91FF8014789508D618D728DCD
:10110000C7018C0F9D1F0E94BA07C80FD91FF80195
:10111000438D548D658D768DC7018C0F9D1F0E9468
:10112000BA07C80FD91FF801478D50A161A172A15C
:10113000C7018C0F9D1F0E94BA07C80FD91FF80165
:1011400043A154A165A176A1C7018C0F9D1F0E94E8
:10115000BA07C80FD91FF80147A150A561A572A50C
:10116000C7018C0F9D1F0E94BA07C80FD91FF80135
:1011700043A554A565A576A5C7018C0F9D1F0E94A8
:10118000BA07C80FD91FF80147A550A961A972A9CC
:10119000C7018C0F9D1F0E94BA078C0F9D1FDF9106
:1011A000CF911F910F91FF90EF9008959B01FC014B
:1011B0004281538164817581C9010C94BA072F92D1
:1011C0003F924F925F926F927F928F929F92AF92D7
:1011D000BF92CF92DF92EF92FF920F931F93CF9324
:1011E000DF93CDB7DEB72E970FB6F894DEBF0FBEF4
:1011F000CDBF8C016B01DB018D909D90AD90BC90BB
:10120000FC0182819381A481B58188159905AA0585
:10121000BB0570F4B401660F771F660F771F8285D8
:1012200093850E949318D8011B969C938E931A97CE
:10123000F80182829382A482B582C60140E050E028
:10124000BA01A4E0EA2EF12C98012A5F3F4FDC019D
:101250001596EC91159716964C901697512C712C6B
:10126000612C3201552444245E2A1496EC91149783
:101270004E2A1796EC917E2AD7011701E4E02E0E34
:10128000311C71010496F80182809380A480B5809E
:10129000481559056A057B05A8F446825782608681
:1012A00071861497A284B384AA0DBB1DE4E0BE2E00
:1012B000F90101900D92BA94E1F74F5F5F4F6F4FC4
:1012C0007F4FC5CF84859585A685B78584159505FF
:1012D000A605B70570F4B201660F771F660F771F7A
:1012E000848995890E949318D80155969C938E9372
:1012F0005497F8014486558666867786C601820D26
:10130000931D412C512C32011C019801205F3F4F4D
:10131000DC0111966C91119712968C901297912C7A
:10132000B12CA12C540199248824962A6C91862AE8
:1013300013966C91B62AB4E0EB0EF11CF8014485CB
:101340005585668577854416550666067706C0F48A
:10135000808A918AA28AB38ABC0162197309A4891E
:10136000B589A60FB71F64E0F90101900D926A9547
:10137000E1F7BFEF4B1A5B0A6B0A7B0A0496C8CFF2
:1013800086899789A08DB18D88159905AA05BB0519
:1013900060F4B401660F771F848D958D0E949318B9
:1013A000D8015D969C938E935C97F801868A978A04
:1013B000A08EB18E412C512C32011801FAE12F0E72
:1013C000311CF80186899789A08DB18D4816590680
:1013D0006A067B0608F05CC0B6016E0D7F1DCE016B
:1013E00001960E94870397012C5F3F4F3E872D8710
:1013F00089809A80AB80BC80C901032E000CAA0BA7
:10140000BB0BAC01BD01480D591D6A1D7B1D4987F1
:101410005A876B877C87F901EC0DFD1D9F012C1904
:101420003D09B90190E080E029853A854B855C85CE
:10143000621773078407950728F42191DF0112973B
:101440002C93ECCFED84FE84E80CF91CF601EE0D34
:10145000FF1D319710828D859E8501978C0D9D1DF6
:10146000D8015B969C938E935A97C201880F991F5F
:101470005C96ED91FC91E80FF91FD1018D919C9143
:1014800091838083BFEF4B1A5B0A6B0A7B0A99CF6B
:10149000C7012E960FB6F894DEBF0FBECDBFDF9109
:1014A000CF911F910F91FF90EF90DF90CF90BF9061
:1014B000AF909F908F907F906F905F904F903F90F4
:1014C0002F9008952F923F924F925F926F927F924A
:1014D0008F929F92AF92BF92CF92DF92EF92FF9244
:1014E0000F931F93CF93DF93CDB7DEB7A6970FB6B9
:1014F000F894DEBF0FBECDBF8C010E9492024B015B
:101500005C01980125543D4F3E8B2D8BF901808164
:101510009181A281B38175016401C81AD90AEA0ACE
:10152000FB0AD701C601893F9A42A105B10510F017
:1015300035971082180134E5231A3DEF330AD101A3
:101540008D919C91892B79F0F801E154FD4F8081B8
:101550009181A281B38188159905AA05BB0518F46C
:10156000F1011182108298012C543D4F3A8B298B46
:10157000A80140555D4F5C8B4B8BC8014896988FF6
:101580008F8BD801AA54BD4FBC8FAB8FF801EC53A1
:10159000FD4FFE8FED8F215F3F4F38A32F8F4250BD
:1015A0005109588B4F8786569D4F9A8F898F199670
:1015B000BAA3A9A3A50194012C5E3F4F4F4F5F4FE3
:1015C0002BA33CA34DA35EA3F80184899589A6892A
:1015D000B789892B8A2B8B2BB9F5D80112968D915F
:1015E0009C91DC01ED91FC910284F385E02D09953D
:1015F0009C0197FF3DC0F801EA54FD4F808188238C
:1016000001F17801B9E4EB1ABDEFFB0AF701808123
:101610009181A281B381A5019401281B390B4A0B4A
:101620005B0BDA01C901853C9940A105B10548F081
:10163000C8010E944F03D7018D929D92AD92BC923A
:10164000139790E080E0B8C10E949202681979096E
:101650008A099B09F801C488D588E688F788C616E8
:10166000D706E806F90608F0B8CF8EEF9FEFA4C1C1
:10167000A989BA898D919C911197820F931F8D939F
:101680009C93F1014081518147305105F9F4A98DB6
:10169000BA8D8D919C911197AC014F5F5F4F4D9327
:1016A0005C93800F911FFC01208FAF85B8898D91CD
:1016B0009C91119701978D939C93892B09F084CF6E
:1016C00088E090E0F101918380837ECF4115510540
:1016D00021F52F3F310581F481E090E091838083F3
:1016E000CBA0DCA0EDA0FEA0A9A1BAA1CD92DD9275
:1016F000ED92FC92139768CF0E94920268197909C3
:101700008A099B09693873418105910508F45CCF0A
:10171000F801EA54FD4F1082A8CF4130510589F4F9
:101720002E3F310519F482E090E0CCCF1182108277
:10173000EB8DFC8D8081811147CFC8010E944F0342
:1017400043CF4230510591F4AF85B8892D933C9336
:10175000E98DFA8D1182108283E090E0D1018D93A2
:101760009C93E989FA89318320832ECF4330510538
:1017700071F4322F2227AF85B8898D919C911197F2
:10178000280F391F2D933C9384E090E09BCF443089
:10179000510579F460E071E00E9429188F3F9105AE
:1017A00029F485E090E0918380830ECF118210822E
:1017B0000BCF4530510569F4AB89BC892D933C931F
:1017C00086E090E091838083A989BA892D933C9328
:1017D000FBCE46305105A1F4322F2227EB89FC893C
:1017E00080819181280F391F3183208387E090E029
:1017F000D1018D939C93EF85F889808191815DCF94
:101800004830510509F0E0CE1182108260E071E0AD
:101810000E9429188F3F910509F0D6CEAB89BC896B
:10182000ED91FC91309709F0E0C0C8010E944F0390
:1018300088E291E09A8389831C821B828EEF91E07B
:101840009E838D8398878F839A8789871B861C86C2
:101850001D861E866801B8EBCB1ABDEFDB0A780146
:10186000E6E8EE1AEDEFFE0A28E1422E55245394E5
:10187000612C712CD601ED91FC913097A9F18481F6
:1018800095819C838B83808191819E838D838281CE
:101890009381DC01ED91FC910480F581E02D0995A7
:1018A00098878F83D601ED91FC9182819381DC0131
:1018B000ED91FC910680F781E02D09959A87898743
:1018C0004B865C866D867E86D601ED91FC916085A7
:1018D0007185D801ED91FC910190F081E02DAE0170
:1018E0004F5F5F4FC8010995B2E0CB0ED11CEC14DD
:1018F000FD0409F0BFCF98E1492E55245394612C83
:10190000712CF701A081B1811097E1F112968D91B0
:101910009C9113979C838B8314968D919C91159722
:101920009E838D83ED91FC9111970480F581E02DCC
:10193000CD01099598878F83D7018D919C91DC010A
:10194000ED91FC910680F781E02D09959A878987B2
:101950004B865C866D867E86D801ED91FC91C080B9
:10196000D180F70180819181DC01ED91FC910280B1
:10197000F381E02D0995AE014F5F5F4FBC01C801B7
:10198000F6010995F2E0EF0EF11CE214F30409F000
:10199000B8CFF801EA54FD4F81E080833196808210
:1019A0009182A282B382AD89BE898D929D92AD92C1
:1019B000BC9213978FEF9FEFA6960FB6F894DEBFF9
:1019C0000FBECDBFDF91CF911F910F91FF90EF9090
:1019D000DF90CF90BF90AF909F908F907F906F904F
:1019E0005F904F903F902F900895EA30F10509F0F5
:1019F000A1C084E391E09A8389831B821C821D82AB
:101A00001E821F82188619861A860E949202F80189
:101A1000C084D184E284F3849B01AC012C193D097C
:101A20004E095F0969017A016F89788DCE010196AF
:101A30000E94F705C701B60128EE33E040E050E010
:101A40000E943D1869017A019B01AC018B819C8148
:101A5000AD81BE818C0D9D1DAE1DBF1D8B839C83F2
:101A6000AD83BE8360E472E48FE090E00E941918B9
:101A7000CF80D884E984FA84DC01CB018C0D9D1DD4
:101A8000AE1DBF1D8F839887A987BA870E949202D7
:101A9000CF80D884E984FA8436E3D31A35E6E30AA2
:101AA00034ECF30A28EE33E040E050E00E943D18A9
:101AB00029013A019B01AC0160E472E48FE090E0FF
:101AC0000E941918A7019601261B370B480B590BCA
:101AD000CA01B9012B813C814D815E8121503109C0
:101AE0004109510969017A01C418D508E608F708C7
:101AF0002601370120E03AEC4AE95BE30E943D18F9
:101B0000420E531E641E751ED8011C964D925D92A6
:101B10006D927C921F97F801608B718B828B938BF7
:101B20000E949202AD89BE896D937D938D939C93A3
:101B300013974ACDE630F10559F46F89788D8D8D74
:101B40009E8D0E94DF0881E0EF8DF8A180833CCD5F
:101B5000EB30F10521F4AB8DBC8D1C9235CDE752F5
:101B6000FF4FEE0FFF1FE00FF11F80819181009763
:101B700009F42ACDDC01ED91FC910190F081E02D7A
:101B80006F89788D099520CD4F925F926F927F92E9
:101B90008F929F92AF92BF92CF92DF92EF92FF927D
:101BA0000F931F93CF93DF93EC017B018A81FB019D
:101BB00080838B8181838C8182838D818383349622
:101BC000412C512C320104E010E09F012F5F3F4F68
:101BD000CF010296DF011396A8010C5F1F4F8A8088
:101BE0009B80AC80BD80481459046A047B04C8F40F
:101BF000AA85BB85A40FB51F14974C9111962C9103
:101C0000119712969C91129713968C914083218381
:101C1000928383838FEF481A580A680A780A3496A9
:101C2000D4CF4C8540834D85F90140832E85FC013E
:101C300020838F858C93F701E00FF11F412C512CED
:101C40003201AF019F012F5F3F4FCF010296DF01AD
:101C500013960C5F1F4F8C849D84AE84BF84481400
:101C600059046A047B04D8F4CF01841B950BAC891A
:101C7000BD89A80FB91F3C9111962C91119712960E
:101C80009C91129713968C91308321839283838346
:101C90008FEF481A580A680A780A3496D3CF4E89CB
:101CA00040834F89F9014083288DFC012083898D71
:101CB0008C93412C512C32018E899F89A88DB98D2E
:101CC000481659066A067B0680F55201AA0CBB1C11
:101CD000EC8DFD8DEA0DFB1DA081B181FD01019010
:101CE0000020E9F731976F01CA1ADB0AA60170E0FC
:101CF00060E0C701800F911F0E94B8030C5F1F4F67
:101D00008C8D9D8DA80EB91EF50160817181A60193
:101D1000C701800F911F0E9450190C0D1D1DFFEF70
:101D20004F1A5F0A6F0A7F0AC7CFC801DF91CF91B0
:101D30001F910F91FF90EF90DF90CF90BF90AF90E9
:101D40009F908F907F906F905F904F900895EF924B
:101D5000FF920F931F93CF93DF938C017B01DC01E4
:101D600012962C911297FB012193CF011396ED91BE
:101D7000FC91EF0109900020E9F72197CE1BDF0BC2
:101D8000AE0170E060E00E94B803D80113966D9137
:101D90007C91AE01C70105960E945019CE010596AF
:101DA000DF91CF911F910F91FF90EF900895CF9207
:101DB000DF92EF92FF920F931F93CF93DF936C010B
:101DC000EB01DC0112968C911297888313968C910B
:101DD000139789831496ED91FC91DF010D900020FB
:101DE000E9F78D01015011090E1B1F0BA80170E0CE
:101DF00060E0CE0102960E94B803F601648175810D
:101E0000A801CE0106960E945019C8010696F60157
:101E1000A681B781FD0101900020E9F731977F018C
:101E2000EA1AFB0AA70170E060E08C0F9D1F0E9478
:101E3000B803065F1F4FD60116966D917C91A701DE
:101E4000CE01800F911F0E9450190E0D1F1DF6012B
:101E5000A085B185FD0101900020E9F731977F0150
:101E6000EA1AFB0AA70170E060E0CE01800F911F23
:101E70000E94B8030C5F1F4FD60118966D917C919C
:101E8000A701CE01800F911F0E945019C701800F3A
:101E9000911FF6016285438534852585C80FD91FBA
:101EA000688349833A832B830496DF91CF911F91F6
:101EB0000F91FF90EF90DF90CF9008951F920F92B7
:101EC0000FB60F9211242F933F934F935F936F930D
:101ED0007F938F939F93AF93BF93EF93FF9385E38C
:101EE00094E00E947B01FF91EF91BF91AF919F9190
:101EF0008F917F916F915F914F913F912F910F90B3
:101F00000FBE0F901F9018951F920F920FB60F9251
:101F100011242F938F939F93EF93FF93E0914504A8
:101F2000F09146048081E0914B04F0914C0482FDD5
:101F30001BC0908180914E048F5F8F7320914F045E
:101F4000821741F0E0914E04F0E0EB5CFB4F958F7F
:101F500080934E04FF91EF919F918F912F910F905D
:101F60000FBE0F901F9018958081F4CF1F920F9293
:101F70000FB60F9211242F933F938F939F93AF939C
:101F8000BF938091F5039091F603A091F703B09170
:101F9000F8033091F40323E0230F2D3758F5019611
:101FA000A11DB11D2093F4038093F5039093F603D4
:101FB000A093F703B093F8038091F9039091FA038B
:101FC000A091FB03B091FC030196A11DB11D80936C
:101FD000F9039093FA03A093FB03B093FC03BF9122
:101FE000AF919F918F913F912F910F900FBE0F90C6
:101FF0001F90189526E8230F0296A11DB11DD2CF80
:10200000109238041092370488EE93E0A0E0B0E01C
:102010008093390490933A04A0933B04B0933C041A
:102020008CE491E0909336048093350485EC90E045
:10203000909342048093410484EC90E09093440494
:102040008093430480EC90E0909346048093450491
:1020500081EC90E0909348048093470482EC90E0F8
:1020600090934A048093490486EC90E090934C044A
:1020700080934B0410924E0410924F04109250041F
:10208000109251048EE193E1A4E7B8E380935108E4
:1020900090935208A0935308B093540884E791E0BA
:1020A00090931F0880931E08109220081092210818
:1020B00010922208109223081092240810922508EA
:1020C00010922608109227081092280810922908CA
:1020D00010922A0810922B0810922C0810922D08AA
:1020E00010922E0810922F0810923008109231088A
:1020F000109232081092330810923408109235086A
:102100001092360810923708109238081092390849
:1021100010923A0810923B0810923C0810923D0829
:1021200010923E0810923F08109240081092410809
:1021300010924208109243081092440810924508E9
:1021400010924608109247081092480810924908C9
:1021500010924A0810924B0810924C0810924D08A9
:1021600010924E0810924F08109250088CEE92E098
:1021700090931508809314088EE198E090931708C7
:102180008093160810921D0810921C088AE691E0B0
:10219000909333058093320585E394E09093350561
:1021A0008093340580E091EEA0E0B0E080933605A6
:1021B00090933705A0933805B09339051092E8073E
:1021C0008EE591E09093F7078093F60710920C0844
:1021D00010920D0810920E0810920F08109213081A
:1021E00010921208EAE7F7E01192119287E0EC3AB8
:1021F000F807D1F7ECEAF7E01192119287E0EE3D93
:10220000F807D1F7EAE4F5E082E696E011928E173E
:102210009F07E1F7E2E6F6E0119287E0EA37F80778
:10222000D9F71092F8071092F9071092FA07109256
:10223000FB071092010810920008109202081092F9
:102240000308109204081092050810920B081092CF
:102250000A08109246051092470510924805109200
:1022600049054CE851E0509323054093220520E8AE
:1022700031E0309329052093280510922A05109209
:102280002B0510922C0510922D058CE890E0909370
:102290002F0580932E0581E090E090933105809387
:1022A000300567EF72E07093270560932605509321
:1022B00013054093120530931905209318051092C9
:1022C0001A0510921B0510921C0510921D056AE953
:1022D00070E070931F0560931E0590932105809315
:1022E000200561E273E07093170560931605509323
:1022F00003054093020530930905209308051092C9
:102300000A0510920B0510920C0510920D0568EA53
:1023100070E070930F0560930E0590931105809304
:1023200010056BE473E07093070560930605509306
:10233000F3044093F2043093F9042093F8041092CC
:10234000FA041092FB041092FC041092FD0466EB58
:1023500070E07093FF046093FE04909301058093F6
:10236000000565E773E07093F7046093F6045093FB
:10237000E3044093E2043093E9042093E8041092CC
:10238000EA041092EB041092EC041092ED0464EC59
:1023900070E07093EF046093EE049093F1048093E7
:1023A000F0046FE973E07093E7046093E6045093E0
:1023B000D3044093D2043093D9042093D8041092CC
:1023C000DA041092DB041092DC041092DD0422ED9A
:1023D00030E03093DF042093DE049093E104809397
:1023E000E00489EC93E09093D7048093D604089599
:1023F000CF93DF93CDB7DEB764970FB6F894DEBF07
:102400000FBECDBF789484B5826084BD84B58160F1
:1024100084BD85B5826085BD85B5816085BD8091AF
:102420006E00816080936E00109281008091810027
:10243000826080938100809181008160809381001F
:10244000809180008160809380008091B1008460E1
:102450008093B1008091B00081608093B000809142
:102460007A00846080937A0080917A008260809301
:102470007A0080917A00816080937A0080917A005E
:10248000806880937A001092C10061E086E10E942A
:10249000610261E087E10E94610261E088E10E94DF
:1024A000610261E089E10E94610261E08AE10E94CB
:1024B000610261E08BE10E94610261E08CE10E94B7
:1024C000610261E08DE10E94610261E08EE10E94A3
:1024D000610261E08FE10E94610261E080E20E949E
:1024E000610261E081E20E94610262E08DE00E948F
:1024F000610220913405309135053A832983C090DB
:102500003605D0903705E0903805F090390560E049
:1025100079E08DE390E0A70196010E943D182150DB
:102520003109410951095695479537952795A98154
:10253000BA815096ED91FC9182E08083C114B1EE96
:10254000DB06E104F10421F02115E0E13E07B0F0E3
:10255000A981BA815096ED91FC91108260E874E8EF
:102560008EE190E0A70196010E943D1821503109AB
:10257000410951095695479537952795A981BA8103
:102580001C96ED91FC911D9730831E96ED91FC9168
:102590001F97208358961C9258975496ED91FC9162
:1025A000559786E080835296ED91FC9153978081F8
:1025B000806180835296ED91FC9153978081886071
:1025C00080835296ED91FC9153978081806880833F
:1025D0005296ED91FC9180818F7D80831092DF0770
:1025E0001092DE071092E1071092E0071092E507C3
:1025F0001092E4071092E3071092E20782E295E05E
:102600000E94E00082E195E00E94E00082E095E017
:102610000E94E00082EF94E00E94E00082EE94E0ED
:102620000E94E00082ED94E00E94E000EAE7F7E01B
:1026300090E080E021913191232B09F055C2FC01FB
:10264000EE0FFF1FE658F84F24E138E03183208376
:1026500083589F4F909319088093180882E395E060
:1026600090931B0880931A08B0E02B2EB0E03B2E0D
:10267000EBEBF0E08491E7EAF0E0F491F983E3E931
:10268000F0E01491112309F435C281110E940A026D
:10269000E12FF0E0EE0FFF1FE458FF4FA591B4913A
:1026A0008C91F981F82391E080E009F490E0909317
:1026B0000001809301013FB7F8948091F903909154
:1026C000FA03A091FB03B091FC0326B5A89B05C0BB
:1026D0002F3F19F00196A11DB11D3FBFBA2FA92FA1
:1026E000982F8827820F911DA11DB11D4C015D01FE
:1026F000E2E0880C991CAA1CBB1CEA95D1F78092D9
:10270000310490923204A0923304B0923404809148
:10271000000190910101892B09F0EFC1109220086E
:1027200020912D0430912E0440912F0450913004BB
:1027300029833A834B835C832091290430912A04B6
:1027400040912B0450912C0469817A818B819C816A
:102750000E944E168B019C01C12CD12C8AEFE82ED1
:1027600086E4F82E49E254E067E170E086E190E00B
:102770000E94D5038091250490912604A0912704FE
:10278000B09128048D839E83AF83B8872091210464
:10279000309122044091230450912404BC01CD01C6
:1027A0000E944E168B019C01C12C90E4D92E9CE115
:1027B000E92E98E4F92E41E254E069E170E088E105
:1027C00090E00E94D50320911D0430911E04409199
:1027D0001F045091200429873A874B875C872091FA
:1027E000190430911A0440911B0450911C0469850E
:1027F0007A858B859C850E944E168B019C01C12C8D
:1028000040E4D42E4CE9E42E47E4F42E49E154E0B0
:102810006BE170E08AE190E00E94D503809115049D
:1028200090911604A0911704B09118048D879E878B
:10283000AF87B88B2091110430911204409113049A
:1028400050911404BC01CD010E944E168B019C01D5
:1028500058E6C52E5BEAD52E5BE2E52E57E4F52E51
:1028600041E154E06DE170E08CE190E00E94D5031D
:1028700040900D0450900E0460900F04709010046E
:10288000C0905108D0905208E0905308F09054083E
:102890002091090430910A0440910B0450910C04DA
:1028A000C301B2010E944E168B019C0149E054E025
:1028B0006FE170E08EE190E00E94D5032091050465
:1028C000309106044091070450910804298B3A8BFB
:1028D0004B8B5C8B209101043091020440910304E6
:1028E0005091040469897A898B899C890E944E16CB
:1028F0008B019C0165E4C62E6AE0D62E60EFE62EC1
:1029000066E4F62E41E054E061E270E080E290E09F
:102910000E94D5038091FD039091FE03A091FF03D7
:10292000B0910004881A990AAA0ABB0A31E88316F2
:1029300034E893063EE1A306B10408F4C5C08091D3
:10294000290490912A04A0912B04B0912C04809327
:10295000210890932208A0932308B093240889812A
:102960009A81AB81BC818093250890932608A0931F
:102970002708B09328088091210490912204A09107
:102980002304B09124048093290890932A08A093EB
:102990002B08B0932C082D813E814F8158852093C0
:1029A0002D0830932E0840932F08509330088091C3
:1029B000190490911A04A0911B04B0911C048093F7
:1029C000310890933208A0933308B0933408898576
:1029D0009A85AB85BC858093350890933608A09383
:1029E0003708B09338088091110490911204A09197
:1029F0001304B09114048093390890933A08A0937B
:102A00003B08B0933C082D853E854F85588920931F
:102A10003D0830933E0840933F0850934008809112
:102A2000090490910A04A0910B04B0910C048093C6
:102A3000410890934208A0934308B0934408409201
:102A40004508509246086092470870924808809165
:102A5000010490910204A0910304B09104048093B6
:102A6000490890934A08A0934B08B0934C08898971
:102A70009A89AB89BC8980934D0890934E08A093A6
:102A80004F08B093500880911A0890911B086091EC
:102A9000180870911908DC01ED91FC910190F0810A
:102AA000E02D4EE158E00995809131049091320477
:102AB000A0913304B09134048093FD039093FE03FE
:102AC000A093FF03B093000482E395E00E94620AA2
:102AD0002114310409F4CCCD0E946701882309F444
:102AE000C7CD0E940000C4CD01968931910509F03F
:102AF000A1CDBACD90E080E0DACD8091FD03909138
:102B0000FE03A091FF03B0910004A5019401281BCE
:102B1000390B4A0B5B0BDA01C90181389448AE418D
:102B2000B10590F241E040932008809129049091F2
:102B30002A04A0912B04B0912C0480932108909337
:102B40002208A0932308B093240880912D0490912B
:102B50002E04A0912F04B091300480932508909307
:102B60002608A0932708B09328088091210490910B
:102B70002204A0912304B091240480932908909307
:102B80002A08A0932B08B0932C08809125049091DB
:102B90002604A0912704B091280480932D089093D7
:102BA0002E08A0932F08B0933008809119049091BB
:102BB0001A04A0911B04B0911C04809331089093D7
:102BC0003208A0933308B093340880911D0490918B
:102BD0001E04A0911F04B0912004809335089093A7
:102BE0003608A0933708B09338088091110490916B
:102BF0001204A0911304B0911404809339089093A7
:102C00003A08A0933B08B0933C088091150490913A
:102C10001604A0911704B091180480933D08909376
:102C20003E08A0933F08B09340088091090490911A
:102C30000A04A0910B04B0910C0480934108909376
:102C40004208A0934308B093440880910D049091EA
:102C50000E04A0910F04B091100480934508909346
:102C60004608A0934708B0934808809101049091CA
:102C70000204A0910304B091040480934908909346
:102C80004A08A0934B08B0934C088091050490919A
:102C90000604A0910704B0910804EDCE5058BB275C
:102CA000AA270E9466160C946D170E945F1738F0D1
:102CB0000E94661720F039F49F3F19F426F40C9413
:102CC0005C170EF4E095E7FB0C945617E92F0E9471
:102CD0007E1758F3BA17620773078407950720F029
:102CE00079F4A6F50C94A0170EF4E0950B2EBA2FEC
:102CF000A02D0B01B90190010C01CA01A001112402
:102D0000FF27591B99F0593F50F4503E68F11A16AD
:102D1000F040A22F232F342F4427585FF3CF46953E
:102D200037952795A795F0405395C9F77EF41F1660
:102D3000BA0B620B730B840BBAF09150A1F0FF0F2A
:102D4000BB1F661F771F881FC2F70EC0BA0F621F16
:102D5000731F841F48F4879577956795B795F79506
:102D60009E3F08F0B0CF9395880F08F09927EE0F9B
:102D70009795879508950E94321708F481E0089589
:102D80000E94D4160C946D170E94661758F00E948A
:102D90005F1740F029F45F3F29F00C94561751114A
:102DA0000C94A1170C945C170E947E1768F399236A
:102DB000B1F3552391F3951B550BBB27AA27621737
:102DC0007307840738F09F5F5F4F220F331F441F44
:102DD000AA1FA9F335D00E2E3AF0E0E832D0915078
:102DE0005040E695001CCAF72BD0FE2F29D0660F65
:102DF000771F881FBB1F261737074807AB07B0E8A8
:102E000009F0BB0B802DBF01FF2793585F4F3AF0AD
:102E10009E3F510578F00C9456170C94A1175F3F14
:102E2000E4F3983ED4F3869577956795B795F79533
:102E30009F5FC9F7880F911D9695879597F908951B
:102E4000E1E0660F771F881FBB1F621773078407B7
:102E5000BA0720F0621B730B840BBA0BEE1F88F7C6
:102E6000E0950895990F0008550FAA0BE0E8FEEFD2
:102E700016161706E807F907C0F012161306E4073E
:102E8000F50798F0621B730B840B950B39F40A2637
:102E900061F0232B242B252B21F408950A2609F415
:102EA000A140A6958FEF811D811D089597F99F6719
:102EB00080E870E060E008959FEF80EC08950024C2
:102EC0000A941616170618060906089500240A948F
:102ED00012161306140605060895092E0394000C15
:102EE00011F4882352F0BB0F40F4BF2B11F460FFA4
:102EF00004C06F5F7F4F8F4F9F4F089557FD9058CD
:102F0000440F551F59F05F3F71F04795880F97FBAD
:102F1000991F61F09F3F79F0879508951216130667
:102F20001406551FF2CF4695F1DF08C01616170696
:102F30001806991FF1CF86957105610508940895CB
:102F4000E894BB2766277727CB0197F908950E945D
:102F5000321708F48FEF08950E94BF170C946D1775
:102F60000E945F1738F00E94661720F0952311F039
:102F70000C9456170C945C1711240C94A1170E9402
:102F80007E1770F3959FC1F3950F50E0551F629F18
:102F9000F001729FBB27F00DB11D639FAA27F00DB2
:102FA000B11DAA1F649F6627B00DA11D661F829FD9
:102FB0002227B00DA11D621F739FB00DA11D621FBE
:102FC000839FA00D611D221F749F3327A00D611DDB
:102FD000231F849F600D211D822F762F6A2F1124BD
:102FE0009F5750409AF0F1F088234AF0EE0FFF1FF0
:102FF000BB1F661F771F881F91505040A9F79E3F47
:10300000510580F00C9456170C94A1175F3FE4F320
:10301000983ED4F3869577956795B795F795E7959C
:103020009F5FC1F7FE2B880F911D9695879597F9A5
:103030000895DB018F939F930E945F18BF91AF911A
:10304000A29F800D911DA39F900DB29F900D112402
:10305000089597FB072E16F4009407D077FD09D04A
:103060000E946A1807FC05D03EF4909581959F4F09
:103070000895709561957F4F0895A1E21A2EAA1BBD
:10308000BB1BFD010DC0AA1FBB1FEE1FFF1FA21718
:10309000B307E407F50720F0A21BB30BE40BF50B15
:1030A000661F771F881F991F1A9469F7609570959E
:1030B000809590959B01AC01BD01CF0108950E94C0
:1030C0008418A59F900DB49F900DA49F800D911D15
:1030D00011240895AA1BBB1B51E107C0AA1FBB1FE7
:1030E000A617B70710F0A61BB70B881F991F5A9594
:1030F000A9F780959095BC01CD010895EE0FFF1FB3
:103100000590F491E02D0994A29FB001B39FC001F6
:10311000A39F700D811D1124911DB29F700D811D03
:103120001124911D0895B0E0A0E0E9E9F8E10C94C4
:10313000801A8C01009751F4CB010E9459198C011F
:10314000C801CDB7DEB7E0E10C949C1AFC01E60F94
:10315000F71F9C0122503109E217F30708F49DC0C4
:10316000D901CD91DC911197C617D70798F0C530DA
:10317000D10530F3CE0104978617970708F3C61BD5
:10318000D70B2297C193D1936D937C93CF010E946B
:10319000F519D6CF5B01AC1ABD0A4C018C0E9D1EF1
:1031A000A0915708B0915808512C412CF12CE12CDA
:1031B000109731F58091550890915608881599051A
:1031C00009F05CC04616570608F058C0809102010D
:1031D00090910301009741F48DB79EB7409106018D
:1031E00050910701841B950BE817F90708F055C0AB
:1031F000F0935608E0935508F90171836083A0CFDE
:103200008D919C91119712966C90129713967C90C9
:103210001397A815B90559F56C0142E0C40ED11CED
:10322000CA14DB0420F1AC014A195B09DA011296D9
:10323000159780F06282738251834083D9016D9328
:103240007C93E114F10471F0D7011396FC93EE9393
:10325000129776CF22968C0F9D1FF9019183808360
:10326000F301EFCFF0935808E093570869CF481661
:10327000590608F42C017D01D3019ACFCB010E949D
:1032800059197C01009749F0AE01B8010E9450190C
:10329000C8010E94F519870153CF10E000E050CF1C
:1032A000FB01DC0102C001900D9241505040D8F763
:1032B00008950F931F93CF93DF938230910510F4FD
:1032C00082E090E0E0915708F091580830E020E06B
:1032D000B0E0A0E0309799F42115310509F44AC017
:1032E000281B390B24303105D8F58A819B81611563
:1032F000710589F1FB0193838283FE0111C0408136
:1033000051810281138148175907E0F04817590786
:1033100099F4109761F012960C93129713961C93E0
:103320003296CF01DF91CF911F910F9108950093B5
:10333000570810935808F4CF2115310551F0421762
:10334000530738F0A901DB019A01BD01DF01F80143
:10335000C1CFEF01F9CF9093580880935708CDCF94
:10336000FE01E20FF31F81939193225031093983BB
:103370002883D7CF2091550830915608232B41F44C
:10338000209104013091050130935608209355088F
:1033900020910201309103012115310541F42DB72F
:1033A0003EB74091060150910701241B350BE09177
:1033B0005508F0915608E217F307A0F42E1B3F0BB7
:1033C0002817390778F0AC014E5F5F4F2417350797
:1033D00048F04E0F5F1F5093560840935508819355
:1033E00091939FCFF0E0E0E09CCFCF93DF930097E5
:1033F000E9F0FC01329713821282A0915708B09134
:103400005808ED0130E020E01097A1F420813181CF
:10341000820F931F209155083091560828173907BD
:1034200009F061C0F0935608E0935508DF91CF9101
:103430000895EA01CE17DF07E8F54A815B819E0116
:1034400041155105B1F7E901FB83EA83499159918F
:10345000C40FD51FEC17FD0761F48081918102969E
:10346000840F951FE90199838883828193819B83CF
:103470008A83F0E0E0E012968D919C91139700977B
:10348000B9F52D913C911197CD010296820F931FB2
:1034900020915508309156082817390739F630978A
:1034A00051F51092580810925708B0935608A093FF
:1034B0005508BCCFD383C28340815181840F951FAF
:1034C000C817D90761F44E5F5F4F88819981480F13
:1034D000591F518340838A819B8193838283211565
:1034E000310509F0B0CFF0935808E09357089ECF0C
:1034F000FD01DC01C0CF13821282D7CF2F923F9201
:103500004F925F926F927F928F929F92AF92BF92F3
:10351000CF92DF92EF92FF920F931F93CF93DF939F
:10352000CDB7DEB7CA1BDB0B0FB6F894DEBF0FBEFC
:10353000CDBF09942A88398848885F846E847D8449
:103540008C849B84AA84B984C884DF80EE80FD804B
:103550000C811B81AA81B981CE0FD11D0FB6F894C1
:0E356000DEBF0FBECDBFED010895F894FFCF82
:10356E000100000059088000726F73736572696103
:10357E006C5F6D7367732F526571756573745061EF
:10358E0072616D0000000000D70E0005FD04FA0404
:10359E00000000003D06F705F405F10500000000EF
:1035AE00A70EA404A1049E04000000009D01FD00CE
:1035BE002A01EA015B0139014D0100000000C40D32
:1035CE00DF089B04980400000000AD02620A9E0210
:1035DE000000000035081607950492040000000054
:1035EE00D6089F07A602A30200000000A607A902A4
:1035FE00A602A302666462323832313062666139E5
:10360E0064376339313134363236303137386439D4
:10361E0061353834007374645F6D7367732F466C55
:10362E006F61743634004D65737361676520667221
:10363E006F6D206465766963652064726F70706566
:10364E00643A206D657373616765206C617267659E
:10365E0072207468616E206275666665722E00381F
:10366E00616330386136373263386238636661655C
:10367E006365643663653438653835303036350009
:10368E004152332F4152335F44656275670039668C
:10369E0030653938626461363539383139383664D7
:1036AE0064663533616661376134306534390031B3
:1036BE003161626437333163323539333332363107
:1036CE0063643631383362643132643632393500F0
:1036DE00726F7373657269616C5F6D7367732F4C74
:1036EE006F6700306164353166383866633434385C
:1036FE00393266386331303638343037373634360F
:10370E0030303500726F7373657269616C5F6D7303
:10371E0067732F546F706963496E666F0063643709
:10372E003136366337346335353263333131666261
:10373E00636332666535613762633238390073749C
:10374E00645F6D7367732F54696D65002F4152333B
:10375E002F4465627567002F7272626F742F6A6FE5
:10376E00696E74315F706F736974696F6E5F636FCA
:10377E006E74726F6C6C65722F636F6D6D616E64BB
:10378E00002F7272626F742F6A6F696E74325F707F
:10379E006F736974696F6E5F636F6E74726F6C6C4A
:1037AE0065722F636F6D6D616E64002F7272626F42
:1037BE00742F6A6F696E74335F706F736974696F9B
:1037CE006E5F636F6E74726F6C6C65722F636F6D6C
:1037DE006D616E64002F7272626F742F6A6F696E04
:1037EE0074345F706F736974696F6E5F636F6E743C
:1037FE00726F6C6C65722F636F6D6D616E64002FEE
:10380E007272626F742F6A6F696E74355F706F7348
:10381E006974696F6E5F636F6E74726F6C6C6572D4
:10382E002F636F6D6D616E64002F7272626F742FF5
:10383E006A6F696E74365F706F736974696F6E5FED
:10384E00636F6E74726F6C6C65722F636F6D6D61EA
:04385E006E64000094
:107E0000112484B714BE81FFF0D085E080938100F7
:107E100082E08093C00088E18093C10086E0809377
:107E2000C20080E18093C4008EE0C9D0259A86E02C
:107E300020E33CEF91E0309385002093840096BBD3
:107E4000B09BFECF1D9AA8958150A9F7CC24DD24C4
:107E500088248394B5E0AB2EA1E19A2EF3E0BF2EE7
:107E6000A2D0813461F49FD0082FAFD0023811F036
:107E7000013811F484E001C083E08DD089C08234E0
:107E800011F484E103C0853419F485E0A6D080C0E4
:107E9000853579F488D0E82EFF2485D0082F10E0AE
:107EA000102F00270E291F29000F111F8ED06801E7
:107EB0006FC0863521F484E090D080E0DECF843638
:107EC00009F040C070D06FD0082F6DD080E0C81688
:107ED00080E7D80618F4F601B7BEE895C0E0D1E017
:107EE00062D089930C17E1F7F0E0CF16F0E7DF06D8
:107EF00018F0F601B7BEE89568D007B600FCFDCFD4
:107F0000A601A0E0B1E02C9130E011968C91119780
:107F100090E0982F8827822B932B1296FA010C0160
:107F200087BEE89511244E5F5F4FF1E0A038BF0790
:107F300051F7F601A7BEE89507B600FCFDCF97BE46
:107F4000E89526C08437B1F42ED02DD0F82E2BD052
:107F50003CD0F601EF2C8F010F5F1F4F84911BD097
:107F6000EA94F801C1F70894C11CD11CFA94CF0C13
:107F7000D11C0EC0853739F428D08EE10CD085E9AC
:107F80000AD08FE07ACF813511F488E018D01DD067
:107F900080E101D065CF982F8091C00085FFFCCF94
:107FA0009093C60008958091C00087FFFCCF809118
:107FB000C00084FD01C0A8958091C6000895E0E648
:107FC000F0E098E1908380830895EDDF803219F02E
:107FD00088E0F5DFFFCF84E1DECF1F93182FE3DFCA
:107FE0001150E9F7F2DF1F91089580E0E8DFEE27F6
:047FF000FF270994CA
:027FFE00040479
:0400000300007E007B
:00000001FF
