:1000000002C1000031C100002FC100002DC100005D
:100010002BC1000029C1000027C1000025C100003C
:1000200023C1000021C100001FC100001DC100004C
:100030001BC1000019C1000017C1000015C100005C
:1000400013C1000011C100000FC100000DC100006C
:100050000BC1000009C1000007C100000C9448104A
:1000600003C100000C9412100C94E80FFDC00000B6
:10007000FBC00000F9C00000F7C00000F5C00000A0
:10008000F3C00000F1C00000EFC00000EDC00000B0
:10009000EBC00000E9C00000E7C00000E5C00000C0
:1000A000E3C00000E1C00000DFC00000DDC00000D0
:1000B000DBC00000D9C00000D7C00000D5C00000E0
:1000C000D3C00000D1C00000CFC00000CDC00000F0
:1000D000CBC00000C9C00000C7C00000C5C0000000
:1000E000C3C0000000002100240027002A002D00CA
:1000F0003000330001010000040107010A01000083
:100100002200250028002B002E00310034000201BF
:100110000000050108010B0100002000230026005B
:1001200029002C002F00320000010000030106010D
:10013000090105050505070508080808020202026D
:100140000A0A080804040404010101010101010173
:100150000303030303030303040707070C0C0C0C3E
:100160000C0C0C0C02020202060606060606060627
:100170000B0B0B0B0B0B0B0B0102102020080810B4
:100180002040102040800201020108040201010207
:1001900004081020408080402010080402018004E0
:1001A000020180402010080402010804020101023B
:1001B0000408102040800102040810204080000044
:1001C0000A0B02090C0D0E080703040100000000D1
:1001D000000000000000000000000000000000001F
:1001E00000000000000000000000121110000000DC
:1001F00000000000000000000000000000000000FF
:1002000000000000921011241FBECFEFD1E2DEBF2C
:10021000CDBF00E00CBF14E0A0E0B2E0E0E3F7E304
:1002200000E00BBF02C007900D92AC30B107D9F7C8
:100230002AE0ACE0B4E001C01D92A735B207E1F7B7
:1002400011E0C3E0D1E000E006C021970109802F52
:10025000FE010E945719C230D10780E00807A9F7B4
:100260000E941D120C94961BCBCE28E1FC01359602
:10027000A1E6B4E001900D922A95E1F7FC012281FC
:1002800030E03093160420931504838190E090931E
:10029000600480935F040895EFE0FAE0868197811F
:1002A00064817581DC01ED91FC910190F081E02D7C
:1002B00049E15AE01994AF92BF92CF92DF92EF9248
:1002C000FF920F931F93CF93DF936C017B018B0100
:1002D000040F151FEB015E01AE18BF08C017D10750
:1002E00059F06991D601ED91FC910190F081E02DDA
:1002F000C6011995892B79F7C501DF91CF911F911F
:100300000F91FF90EF90DF90CF90BF90AF90089546
:10031000FC01538D448D252F30E0842F90E0821B0B
:10032000930B541710F0CF96089501970895FC0190
:10033000918D828D981761F0A28DAE0FBF2FB11DE8
:100340005D968C91928D9F5F9F73928F90E0089540
:100350008FEF9FEF0895FC01918D828D981731F0FA
:10036000828DE80FF11D858D90E008958FEF9FEF4E
:100370000895FC01918D228D892F90E0805C9F4F24
:10038000821B91098F739927089589E994E0F1DF21
:1003900021E0892B09F420E0822F0895FC01A48D2F
:1003A000A80FB92FB11DA35ABF4F2C91848D90E097
:1003B00001968F739927848FA689B7892C93A0897A
:1003C000B1898C91837080648C93938D848D981304
:1003D00006C00288F389E02D80818F7D8083089597
:1003E000EF92FF920F931F93CF93DF93EC0181E085
:1003F000888F9B8D8C8D98131AC0E889F98980812C
:1004000085FF15C09FB7F894EE89FF896083E8895E
:10041000F98980818370806480839FBF81E090E050
:10042000DF91CF911F910F91FF90EF900895F62EDD
:100430000B8D10E00F5F1F4F0F731127E02E8C8D77
:100440008E110BC00FB607FCFACFE889F9898081BD
:1004500085FFF5CFCE01A2DFF2CFEB8DEC0FFD2FA4
:10046000F11DE35AFF4FF0829FB7F8940B8FEA8992
:10047000FB8980818062D0CFCF93DF93EC01888DA0
:100480008823B1F0AA89BB89E889F9898C9185FD17
:1004900003C0808186FD0CC00FB607FCF7CF8C919E
:1004A00085FFF2CF808185FFEDCFCE0177DFEACFE8
:1004B000DF91CF91089580E090E0892B21F065DFF6
:1004C00081110E94000080E090E0892B49F080E0DB
:1004D00090E0892B29F00E94000081110E94000009
:1004E00080E090E0892B49F080E090E0892B29F0B2
:1004F0000E94000081110E94000080E090E0892BA2
:1005000049F080E090E0892B29F00E9400008111E1
:100510000C94000008958150823108F05AC0E82FF1
:10052000F0E08827E956FD4F8F4F0C945719B7021A
:10053000BB02A902AF02B302E902BE02C402C802B2
:10054000CE02D202D602DC02E002E902E402EA02B2
:10055000EE02809180008F778093800008958091D3
:1005600080008F7DF9CF80918000877FF5CF84B5A3
:100570008F7784BD089584B58F7DFBCF8091B000C7
:100580008F778093B00008958091B0008F7DF9CF70
:10059000809190008F7780939000089580919000D3
:1005A0008F7DF9CF80919000877FF5CF8091A0005B
:1005B0008F778093A00008958091A0008F7DF9CF60
:1005C0008091A000877FF5CF809120018F77809365
:1005D00020010895809120018F7DF9CF8091200125
:1005E000877FF5CFCF93DF93282F30E0F901E254D6
:1005F000FE4F8491F901E858FE4FD491F901EE5C69
:10060000FE4FC491CC2399F0811185DFEC2FF0E0EF
:10061000EE0FFF1FE85EFE4FA591B491EC91ED2324
:1006200081E090E009F480E0DF91CF91089580E0CF
:1006300090E0FACF1F93CF93DF93282F30E0F9019A
:10064000E254FE4F8491F901E858FE4FD491F9012C
:10065000EE5CFE4FC491CC23A1F0162F81115BDF1D
:10066000EC2FF0E0EE0FFF1FE250FF4FA591B49189
:100670008FB7F894EC91111108C0D095DE23DC936C
:100680008FBFDF91CF911F910895DE2BF8CFCF93CD
:10069000DF9390E0FC01E858FE4F24918E5C9E4F62
:1006A000FC0184918823D1F090E0880F991FFC0110
:1006B000EC51FF4FA591B491FC01E250FF4FC59161
:1006C000D491623071F49FB7F8943C91822F809559
:1006D00083238C93E8812E2B28839FBFDF91CF91BA
:1006E00008958FB7F894EC912E2B2C938FBFF6CFF3
:1006F0002FB7F89460910D0470910E0480910F044F
:10070000909110042FBF08958A579B4FFC01808160
:10071000089584E992E0089585EB92E00895FC0144
:1007200085A196A10895AF92BF92CF92DF92EF92EA
:10073000FF920F931F93CF93DF9300D01F921F92CE
:10074000CDB7DEB7643671054CF0FC01EA57FB4FBC
:100750002081F12CE12C222309F476C0DA017B01FF
:100760008C01BC01615E7D4FED91FC910190F081A7
:10077000E02DCA011995680128EEC21A2DEFD20AA0
:100780002FEFD6012C93F801E75EFD4F2EEF20836B
:1007900031968083319690833196292F280F2095AA
:1007A00020833196E0821696FC9245E050E030E0DE
:1007B00020E0DC011696A417B50734F06191260FEE
:1007C000311D4F5F5F4FF7CF7C01B8E0EB0EF11C9E
:1007D000800F911FFC01E15EFD4F20952083E1E039
:1007E000EE16E2E0FE06B4F45601C5018C199D092F
:1007F0008E159F054CF5D80112968D919C91F501AF
:1008000061915F01DC01ED91FC910190F081E02D9F
:100810001995EBCF80E492E09A83898383E08B8300
:1008200088EC92E09D838C83D801ED91FC9101903E
:10083000F081E02DAE014F5F5F4F67E070E0C801CF
:100840001995EE24EA94FE2CC7010F900F900F909B
:100850000F900F90DF91CF911F910F91FF90EF902C
:10086000DF90CF90BF90AF9008950F931F93CF93D9
:10087000DF9300D000D000D01F92CDB7DEB78C013F
:1008800084E392E09A8389831B821C821D821E82EC
:100890001F82188619861A86D801ED91FC91019065
:1008A000F081E02DAE014F5F5F4F6AE070E0C8015C
:1008B00019951EDFF80160877187828793872A96D2
:1008C0000FB6F894DEBF0FBECDBFDF91CF911F9161
:1008D0000F910895CF92DF92EF92FF92DC011D926B
:1008E0001D921D921C921397FB0130E020E0419174
:1008F00050E0022E02C0440F551F0A94E2F7052E65
:10090000000C660B770BCD90DD90ED90FC9013976B
:100910004C295D296E297F294D935D936D937C93BE
:100920001397285F3F4F2032310509F7FF90EF9072
:10093000DF90CF900895FC0140835183128213828F
:100940000895CF93C82F862F60E04130510509F0FC
:1009500061E070DE61E08C2F6DDE83EC90E001974A
:10096000F1F760E08C2FCF9165CE4F925F926F923E
:100970007F928F929F92AF92BF92CF92DF92EF922F
:10098000FF920F931F93CF93DF935C014B01EA011A
:1009900039012FE632E143E05AE3C301B8010E9476
:1009A000AC18181634F52BED3FE049E450E4C301D0
:1009B000B8010E948E17181684F150E040E0B4018F
:1009C000C501BFDFA701960160E070E080E89FE30A
:1009D0000E9492172BED3FE049EC50E40E94B018C2
:1009E0009B01AC01688179818A819B810E942A17D1
:1009F0002FC02FE632E143E05AEBC301B8010E9459
:100A00008E1787FF29C02BED3FE049E450ECC3016E
:100A1000B8010E94AC1887FDD0CF41E050E0B4018E
:100A2000C5018FDFA701960160E070E080E89FE3D9
:100A30000E9492172BED3FE049EC50E40E94B01861
:100A40009B01AC01688179818A819B810E94291771
:100A5000688379838A839B83C880D980EA80FB80FE
:100A60002BED3FE049EC50E4C701B6010E94AC1801
:100A700087FD0CC02BED3FE049EC50E4C701B60107
:100A80000E942917688379838A839B83C880D980D1
:100A9000EA80FB8020E030E0A901C701B6010E9496
:100AA0008E1787FF0CC02BED3FE049EC50E4C701E7
:100AB000B6010E942A17688379838A839B83DF911A
:100AC000CF911F910F91FF90EF90DF90CF90BF904B
:100AD000AF909F908F907F906F905F904F90089510
:100AE00081E093E0089582E293E0089583E393E048
:100AF000089588E092E0089584E593E0089585E7FD
:100B000093E008954F925F926F927F928F929F929F
:100B1000AF92BF92EF92FF920F931F93CF93DF9309
:100B200000D01F92CDB7DEB77C018B01FB01819114
:100B3000BF01F7018283CE010196CCDE89819A81C3
:100B4000AB81BC814C015D01F5E08F0E911CA11CB5
:100B5000B11CA8014C5F5F4FFA0125E030E029018C
:100B6000712C612C481459046A047B0428F46181B7
:100B700061932F5F3F4FF3CFF801E80FF91F148205
:100B8000F7015483438305960F900F900F900F90B9
:100B9000DF91CF911F910F91FF90EF90BF90AF9099
:100BA0009F908F907F906F905F904F90089588E80E
:100BB00093E0089589EA93E008954F925F926F92CF
:100BC0007F928F929F92AF92BF92CF92DF92EF92DD
:100BD000FF920F931F93CF93DF93CDB7DEB72C9780
:100BE0000FB6F894DEBF0FBECDBF7C018B01DB01D9
:100BF0008C9190E0F7019383828311962C91922B34
:100C0000938382836E5F7F4FCE01019663DE89807E
:100C10009A80AB80BC8024013501F6E04F0E511C58
:100C2000611C711C98012B5F3F4FF90186E090E039
:100C3000AC0170E060E0441555056605770520F4C9
:100C4000418141930196F4CFB4016A5F7F4FF8016F
:100C5000E80DF91D1582D70115963C932E93149734
:100C6000600F711FCE01059635DEBAE08B0E911C28
:100C70004D805E806F807884C401092C000CAA0B23
:100C8000BB0B5C016D01A40CB51CC61CD71CF80184
:100C9000E80DF91DAF01401B510B70E060E04A15F3
:100CA0005B056C057D0538F42191AF014250510977
:100CB000DA012C93EFCF480C591CB801640D751D57
:100CC000FB0131971082C4010197800F911FF7013A
:100CD00097838683CE010996FDDD92012C5F3F4FFD
:100CE00089849A84AB84BC84A901032E000C660B12
:100CF000770B480D591D6A1D7B1DF801E20FF31F8C
:100D0000CF01801B910BB0E0A0E084179507A607E8
:100D1000B70728F48191DF0112978C93F1CFC901B5
:100D2000880D991DF801E80FF91FDF0111971C923A
:100D300021503109020F131FD70119961C930E93EE
:100D400018972181428150E070E060E0BA01552798
:100D50004427522B2081422B2381722BF70142879B
:100D600053876487758704962C960FB6F894DEBF78
:100D70000FBECDBFDF91CF911F910F91FF90EF90EC
:100D8000DF90CF90BF90AF909F908F907F906F90AB
:100D90005F904F90089582EC93E0089583EE93E086
:100DA0000895FC01DB014C9150E070E060E042836B
:100DB00053836483758311968C911197582B4283CA
:100DC00053836483758312968C911297682B4283A8
:100DD00053836483758313968C911397782B428386
:100DE00053836483758314964C91149750E070E09C
:100DF00060E0468357836087718715968C911597BD
:100E0000582B468357836087718716968C91169767
:100E1000682B468357836087718717968C91782B50
:100E2000468357836087718788E090E00895DC01EE
:100E3000FB0112968C911297808313968C911397D5
:100E4000818314968C911497828315968C911597B3
:100E5000838316968C911697848317968C91179797
:100E6000858318968C911897868319968C91878321
:100E700088E090E00895CF92DF92EF92FF920F9377
:100E80001F93FC01DB01C3800C2D10E030E020E05B
:100E900045E036952795179507954A95D1F70D9317
:100EA0001D932D933C9313978481C82ED12CF12C44
:100EB000E12C53E0CC0CDD1CEE1CFF1C5A95D1F745
:100EC000C02AD12AE22AF32ACD92DD92ED92FC9239
:100ED00013978581082F10E030E020E06BE0000FD1
:100EE000111F221F331F6A95D1F70C291D292E29A6
:100EF0003F290D931D932D933C931397468150E00A
:100F000070E060E083E1440F551F661F771F8A95EC
:100F1000D1F74427552768777727042B152B262BE5
:100F2000372B0D931D932D933C931397478150E0DE
:100F300070E060E094E0440F551F661F771F9A959C
:100F4000D1F7407F577066277727C680D12CF12CC8
:100F5000E12C84E0F694E794D794C7948A95D1F76E
:100F60004C295D296E297F294115510561057105BF
:100F7000A1F0405853406109710997E1440F551F92
:100F8000661F771F9A95D1F7402B512B622B732B3D
:100F90004D935D936D937C931397478150E070E080
:100FA00060E0742F66275527442744275527662776
:100FB00070780D911D912D913C911397402B512BE1
:100FC000622B732B4D935D936D937C93139788E005
:100FD00090E01F910F91FF90EF90DF90CF900895D8
:100FE000CF92DF92EF92FF920F931F93CF93DF93F5
:100FF000EC016B01FB0180818A8381818B8382817B
:101000008C837E01F5E0EF0EF11C6D9603E010E09D
:10101000B701C601800F911F2EDF080F191F84E052
:10102000E80EF11CEC16FD0699F7C801DF91CF918F
:101030001F910F91FF90EF90DF90CF9008950F9345
:101040001F93CF93DF938C01EC012696CE01C8DF6E
:10105000D8019396ED91FC91CE01DF91CF911F9134
:101060000F911994AF92BF92CF92DF92EF92FF92BD
:101070000F931F93CF93DF938C016B01FB01808152
:10108000F8018283FB018181F8018383FB01828166
:10109000F8018483FB018381F8018583E8012696AA
:1010A0005801FEE1AF0EB11C84E0E82EF12CBE0128
:1010B000C6018E0D9F1DDFDEE80EF91E2496CA15AF
:1010C000DB05A9F70A5C1F4FBE01C6018E0D9F1DEF
:1010D000D2DEE80EF91E2496C017D107A9F7C70182
:1010E000DF91CF911F910F91FF90EF90DF90CF9004
:1010F000BF90AF9008958F929F92AF92BF92CF9280
:10110000DF92EF92FF92CF93DF93EC014A015B01F4
:10111000DB01CA0147E1B595A795979587954A9553
:10112000D1F79927AA27BB270097A105B10521F080
:1011300080589C4FAF4FBF4F188219821A82B50159
:10114000A40125E0440F551F661F771F2A95D1F78C
:101150004B83B501A40133E0759567955795479585
:101160003A95D1F74C83B501A401EBE075956795ED
:1011700057954795EA95D1F74D83B501A401F3E161
:101180007595679557954795FA95D1F74F706C010E
:101190007D0124E0CC0CDD1CEE1CFF1C2A95D1F750
:1011A0004C294E836C017D0134E0F594E794D7948B
:1011B000C7943A95D1F720E030E0A901C501B40108
:1011C0000E948E1787FD0EC0CF8288E090E0DF91ED
:1011D000CF91FF90EF90DF90CF90BF90AF909F9016
:1011E0008F9008958C2D80688F83EFCFCF92DF9200
:1011F000EF92FF920F931F93CF93DF93EC017B014C
:101200008A81FB0180838B8181838C8182836E0143
:10121000F5E0CF0ED11C6D9603E010E0F601419190
:101220005191619171916F01C701800F911F63DF2F
:10123000080F191FCC16DD0689F7C801DF91CF9181
:101240001F910F91FF90EF90DF90CF900895AF9294
:10125000BF92CF92DF92EF92FF920F931F93CF93A3
:10126000DF93EC016B018A81FB0180838B81818399
:101270008C8182838D8183838E010A5F1F4F5E0183
:10128000FEE1AF0EB11C84E0E82EF12CF801419193
:101290005191619171918F01C6018E0D9F1D2BDFC0
:1012A000E80EF91E0A151B0589F7E696F80141912B
:1012B0005191619171918F01C6018E0D9F1D1BDFB0
:1012C000E80EF91EC017D10789F7C701DF91CF914A
:1012D0001F910F91FF90EF90DF90CF90BF90AF9054
:1012E00008952F923F924F925F926F927F928F92CA
:1012F0009F92AF92BF92CF92DF92EF92FF920F93A5
:101300001F93CF93DF93CDB7DEB72E970FB6F89428
:10131000DEBF0FBECDBF8C016B01DB018D909D90B8
:10132000AD90BC90FC0182819381A481B581881528
:101330009905AA05BB0570F4B401660F771F660F07
:10134000771F828593850E948C19D8011B969C93E8
:101350008E931A97F80182829382A482B582C60185
:1013600040E050E0BA01A4E0EA2EF12C98012A5F97
:101370003F4FDC011596EC91159716964C901697F9
:10138000512C712C612C3201552444245E2A149670
:10139000EC9114974E2A1796EC917E2AD7011701EB
:1013A000E4E02E0E311C71010496F80182809380D6
:1013B000A480B580481559056A057B05A8F44682C6
:1013C0005782608671861497A284B384AA0DBB1DD0
:1013D000E4E0BE2EF90101900D92BA94E1F74F5F5F
:1013E0005F4F6F4F7F4FC5CF84859585A685B785A5
:1013F00084159505A605B70570F4B201660F771F31
:10140000660F771F848995890E948C19D80155969B
:101410009C938E935497F80144865586668677860A
:10142000C601820D931D412C512C32011C019801E3
:10143000205F3F4FDC0111966C91119712968C90B2
:101440001297912CB12CA12C540199248824962A0E
:101450006C91862A13966C91B62AB4E0EB0EF11CBF
:10146000F8014485558566857785441655066606D8
:101470007706C0F4808A918AA28AB38ABC01621975
:101480007309A489B589A60FB71F64E0F90101901B
:101490000D926A95E1F7BFEF4B1A5B0A6B0A7B0A64
:1014A0000496C8CF86899789A08DB18D8815990536
:1014B000AA05BB0560F4B401660F771F848D958D76
:1014C0000E948C19D8015D969C938E935C97F801CD
:1014D000868A978AA08EB18E412C512C3201180138
:1014E000FAE12F0E311CF80186899789A08DB18D04
:1014F000481659066A067B0608F05BC0B6016E0DF9
:101500007F1DCE010196E6D997012C5F3F4F3E87A4
:101510002D8789809A80AB80BC80C901032E000C86
:10152000AA0BBB0BAC01BD01480D591D6A1D7B1DEB
:1015300049875A876B877C87F901EC0DFD1D9F0158
:101540002C193D09B90190E080E029853A854B8549
:101550005C85621773078407950728F42191DF01E2
:1015600012972C93ECCFED84FE84E80CF91CF60165
:10157000EE0DFF1D319710828D859E8501978C0D94
:101580009D1DD8015B969C938E935A97C201880F3C
:10159000991F5C96ED91FC91E80FF91FD1018D9197
:1015A0009C9191838083BFEF4B1A5B0A6B0A7B0A85
:1015B0009ACFC7012E960FB6F894DEBF0FBECDBFEF
:1015C000DF91CF911F910F91FF90EF90DF90CF901F
:1015D000BF90AF909F908F907F906F905F904F9053
:1015E0003F902F9008952F923F924F925F926F926B
:1015F0007F928F929F92AF92BF92CF92DF92EF92A3
:10160000FF920F931F93CF93DF93CDB7DEB7A697CB
:101610000FB6F894DEBF0FBECDBF8C0169D84B0169
:101620005C01980125573B4F3E8B2D8BF901808142
:101630009181A281B38175016401C81AD90AEA0AAD
:10164000FB0AD701C601893F9A42A105B10510F0F6
:1016500035971082180134E8231A3BEF330AD10181
:101660008D919C91892B79F0F801E157FB4F808196
:101670009181A281B38188159905AA05BB0518F44B
:10168000F1011182108298012C573B4F3A8B298B24
:10169000A80140585B4F5C8B4B8BC8014896988FD4
:1016A0008F8BD801AA57BB4FBC8FAB8FF801EC567C
:1016B000FB4FFE8FED8F215F3F4F38A32F8F42509E
:1016C0005109588B4F8786599B4F9A8F898F19964E
:1016D000BAA3A9A3A50194012C5E3F4F4F4F5F4FC2
:1016E0002BA33CA34DA35EA3F80184899589A68909
:1016F000B789892B8A2B8B2BB1F5D80112968D9146
:101700009C91DC01ED91FC910284F385E02D19950B
:101710009C0197FF3CC0F801EA57FB4F808188236A
:10172000F9F07801B9E7EB1ABBEFFB0AF70180810A
:101730009181A281B381A5019401281B390B4A0B29
:101740005B0BDA01C901853C9940A105B10540F068
:10175000C8018BD8D7018D929D92AD92BC92139700
:1017600090E080E0B5C10E947803681979098A0980
:101770009B09F801C488D588E688F788C616D7067D
:10178000E806F90608F0B9CF8EEF9FEFA1C1A9894D
:10179000BA898D919C911197820F931F8D939C9381
:1017A000F1014081518147305105F9F4A98DBA8D7D
:1017B0008D919C911197AC014F5F5F4F4D935C935E
:1017C000800F911FFC01208FAF85B8898D919C916E
:1017D000119701978D939C93892B09F085CF88E011
:1017E00090E0F101918380837FCF4115510521F570
:1017F0002F3F310581F481E090E091838083CBA07D
:10180000DCA0EDA0FEA0A9A1BAA1CD92DD92ED923F
:10181000FC92139769CF0E947803681979098A09A5
:101820009B09693873418105910508F45DCFF80182
:10183000EA57FB4F1082A8CF4130510581F42E3F6B
:10184000310519F482E090E0CCCF11821082EB8D4B
:10185000FC8D8081811148CFC80107D845CF423027
:10186000510591F4AF85B8892D933C93E98DFA8D9C
:101870001182108283E090E0D1018D939C93E989DD
:10188000FA893183208330CF4330510571F4322FF0
:101890002227AF85B8898D919C911197280F391F08
:1018A0002D933C9384E090E09CCF4430510579F433
:1018B00060E071E00E9422198F3F910529F485E0D4
:1018C00090E09183808310CF118210820DCF45303C
:1018D000510569F4AB89BC892D933C9386E090E077
:1018E00091838083A989BA892D933C93FDCE46309C
:1018F0005105A1F4322F2227EB89FC898081918147
:10190000280F391F3183208387E090E0D1018D9328
:101910009C93EF85F889808191815ECF4830510595
:1019200009F0E2CE1182108260E071E00E9422197B
:101930008F3F910509F0D8CEAB89BC89ED91FC9120
:10194000309709F0DEC0C8010E94350488E292E0B9
:101950009A8389831C821B8280E093E09E838D831F
:1019600098878F839A8789871B861C861D861E868B
:101970006801B8EECB1ABBEFDB0A7801E6EBEE1A92
:10198000EBEFFE0A412C22E0522E612C712CD60185
:10199000ED91FC913097A9F1848195819C838B8393
:1019A000808191819E838D8382819381DC01ED9181
:1019B000FC910480F581E02D199598878F83D601DD
:1019C000ED91FC9182819381DC01ED91FC91068087
:1019D000F781E02D19959A8789874B865C866D86FD
:1019E0007E86D601ED91FC9160857185D801ED91DF
:1019F000FC910190F081E02DAE014F5F5F4FC80177
:101A00001995B2E0CB0ED11CEC14FD0409F0BFCF48
:101A1000412C92E0592E612C712CF701A081B181EB
:101A20001097E1F112968D919C9113979C838B8373
:101A300014968D919C9115979E838D83ED91FC91C9
:101A400011970480F581E02DCD01199598878F833A
:101A5000D7018D919C91DC01ED91FC910680F7817D
:101A6000E02D19959A8789874B865C866D867E86E0
:101A7000D801ED91FC91C080D180F70180819181E6
:101A8000DC01ED91FC910280F381E02D1995AE010E
:101A90004F5F5F4FBC01C801F6011995F2E0EF0EF0
:101AA000F11CE214F30409F0B8CFF801EA57FB4F38
:101AB00081E08083319680829182A282B382AD8957
:101AC000BE898D929D92AD92BC9213978FEF9FEF3E
:101AD000A6960FB6F894DEBF0FBECDBFDF91CF91B3
:101AE0001F910F91FF90EF90DF90CF90BF90AF903C
:101AF0009F908F907F906F905F904F903F902F902E
:101B00000895EA30F10509F0A0C084E392E09A83D9
:101B100089831B821C821D821E821F821886198661
:101B20001A860E947803F801C084D184E284F38489
:101B30009B01AC012C193D094E095F0969017A012D
:101B40006F89788DCE0101962CD9C701B60128EE98
:101B500033E040E050E00E94351969017A019B01B1
:101B6000AC018B819C81AD81BE818C0D9D1DAE1D14
:101B7000BF1D8B839C83AD83BE8360E472E48FE0E2
:101B800090E00E941319CF80D884E984FA84DC01A4
:101B9000CB018C0D9D1DAE1DBF1D8F839887A9871E
:101BA000BA870E947803CF80D884E984FA8436E328
:101BB000D31A35E6E30A34ECF30A28EE33E040E0CA
:101BC00050E00E94351929013A019B01AC0160E403
:101BD00072E48FE090E00E941319A7019601261B82
:101BE000370B480B590BCA01B9012B813C814D8140
:101BF0005E81215031094109510969017A01C418F6
:101C0000D508E608F7082601370120E03AEC4AE952
:101C10005BE30E943519420E531E641E751ED801E7
:101C20001C964D925D926D927C921F97F801608B8D
:101C3000718B828B938B0E947803AD89BE896D93E3
:101C40007D938D939C9313974FCDE630F10551F41E
:101C50006F89788D8D8D9E8D44DB81E0EF8DF8A1AD
:101C6000808342CDEB30F10521F4AB8DBC8D1C920D
:101C70003BCDEF53FE4FEE0FFF1FE00FF11F8081B2
:101C80009181009709F430CDDC01ED91FC91019038
:101C9000F081E02D6F89788D199526CD4F925F9256
:101CA0006F927F928F929F92AF92BF92CF92DF926C
:101CB000EF92FF920F931F93CF93DF93EC017B0181
:101CC0008A81FB0180838B8181838C8182838D81DA
:101CD00083833496412C512C320104E010E09F01A3
:101CE0002F5F3F4FCF010296DF011396A8010C5FD3
:101CF0001F4F8A809B80AC80BD80481459046A04C1
:101D00007B04C8F4AA85BB85A40FB51F14974C911A
:101D100011962C91119712969C91129713968C9173
:101D200040832183928383838FEF481A580A680A7D
:101D3000780A3496D4CF4C8540834D85F901408391
:101D40002E85FC0120838F858C93F701E00FF11F16
:101D5000412C512C3201AF019F012F5F3F4FCF012A
:101D60000296DF0113960C5F1F4F8C849D84AE8416
:101D7000BF84481459046A047B04D8F4CF01841B3F
:101D8000950BAC89BD89A80FB91F3C9111962C9178
:101D9000119712969C91129713968C913083218300
:101DA000928383838FEF481A580A680A780A349618
:101DB000D3CF4E8940834F89F9014083288DFC01A0
:101DC0002083898D8C93412C512C32018E899F89DF
:101DD000A88DB98D481659066A067B0680F5520112
:101DE000AA0CBB1CEC8DFD8DEA0DFB1DA081B18101
:101DF000FD0101900020E9F731976F01CA1ADB0A53
:101E0000A60170E060E0C701800F911F0E949B0453
:101E10000C5F1F4F8C8D9D8DA80EB91EF501608142
:101E20007181A601C701800F911F0E94681A0C0DD5
:101E30001D1DFFEF4F1A5F0A6F0A7F0AC7CFC80147
:101E4000DF91CF911F910F91FF90EF90DF90CF9096
:101E5000BF90AF909F908F907F906F905F904F90CA
:101E60000895EF92FF920F931F93CF93DF938C010E
:101E70007B01DC0112962C911297FB012193CF017B
:101E80001396ED91FC91EF0109900020E9F721975D
:101E9000CE1BDF0BAE0170E060E00E949B04D80116
:101EA00013966D917C91AE01C70105960E94681A48
:101EB000CE010596DF91CF911F910F91FF90EF908A
:101EC0000895CF92DF92EF92FF920F931F93CF93DB
:101ED000DF936C01EB01DC0112968C9112978883E1
:101EE00013968C91139789831496ED91FC91DF01E1
:101EF0000D900020E9F78D01015011090E1B1F0BF9
:101F0000A80170E060E0CE0102960E949B04F601F9
:101F100064817581A801CE0106960E94681AC801E5
:101F20000696F601A681B781FD0101900020E9F730
:101F300031977F01EA1AFB0AA70170E060E08C0F7D
:101F40009D1F0E949B04065F1F4FD60116966D9140
:101F50007C91A701CE01800F911F0E94681A0E0D7F
:101F60001F1DF601A085B185FD0101900020E9F754
:101F700031977F01EA1AFB0AA70170E060E0CE0109
:101F8000800F911F0E949B040C5F1F4FD601189673
:101F90006D917C91A701CE01800F911F0E94681A5C
:101FA000C701800F911FF601628543853485258521
:101FB000C80FD91F688349833A832B830496DF9126
:101FC000CF911F910F91FF90EF90DF90CF900895E8
:101FD0001F920F920FB60F9211240BB60F922F93F0
:101FE0003F934F935F936F937F938F939F93AF93A1
:101FF000BF93EF93FF9389E994E00E94CE01FF9194
:10200000EF91BF91AF919F918F917F916F915F9170
:102010004F913F912F910F900BBE0F900FBE0F90DD
:102020001F9018951F920F920FB60F9211240BB6A6
:102030000F922F938F939F93EF93FF93E091A904B7
:10204000F091AA048081E091AF04F091B00482FD88
:102050001DC090818091B2048F5F8F732091B30473
:10206000821741F0E091B204F0E0E756FB4F958F04
:102070008093B204FF91EF919F918F912F910F90D8
:102080000BBE0F900FBE0F901F9018958081F2CF5E
:102090001F920F920FB60F9211242F933F938F939D
:1020A0009F93AF93BF9380910D0490910E04A091E4
:1020B0000F04B091100430910C0423E0230F2D374E
:1020C00058F50196A11DB11D20930C0480930D04B9
:1020D00090930E04A0930F04B09310048091110408
:1020E00090911204A0911304B09114040196A11DC3
:1020F000B11D8093110490931204A0931304B09324
:102100001404BF91AF919F918F913F912F910F90A8
:102110000FBE0F901F90189526E8230F0296A11D61
:10212000B11DD2CF10929C0410929B0488EE93E0D4
:10213000A0E0B0E080939D0490939E04A0939F0440
:10214000B093A0048CE492E090939A048093990455
:1021500085EC90E09093A6048093A50484EC90E035
:102160009093A8048093A70480EC90E09093AA0435
:102170008093A90481EC90E09093AC048093AB042D
:1021800082EC90E09093AE048093AD0486EC90E0F6
:102190009093B0048093AF041092B2041092B304F1
:1021A0001092B4041092B50486E091E4A6E8B6E477
:1021B00080934F0A9093500AA093510AB093520A09
:1021C00080E892E090931A0A8093190A10921B0AF1
:1021D00010921C0A10921D0A10921E0A10921F0AD9
:1021E0001092200A1092210A1092220A1092230AB9
:1021F0001092240A1092250A1092260A1092270A99
:102200001092280A1092290A10922A0A10922B0A78
:1022100010922C0A10922D0A10922E0A10922F0A58
:102220001092300A1092310A1092320A1092330A38
:102230001092340A1092350A1092360A1092370A18
:102240001092380A1092390A10923A0A10923B0AF8
:1022500010923C0A10923D0A10923E0A10923F0AD8
:102260001092400A1092410A1092420A1092430AB8
:102270001092440A1092450A1092460A1092470A98
:102280001092480A1092490A10924A0A10924B0A78
:1022900010924C0A10924D0A10924E0A81EF93E070
:1022A0009093100A80930F0A89E19AE09093120AA2
:1022B0008093110A1092180A1092170A86E792E08A
:1022C00090935E0580935D0589E994E090936005A5
:1022D00080935F0580E091EEA0E0B0E0809361051F
:1022E00090936205A0936305B09364051092E3098F
:1022F0008AE692E09093F2098093F1091092070A1E
:102300001092080A1092090A10920A0A10920E0AF4
:1023100010920D0AE5E7F9E01192119289E0E73A8F
:10232000F807D1F7E7EAF9E01192119289E0E93D67
:10233000F807D1F7E5E7F5E0119287E0E537F80710
:10234000D9F7E5E7F7E0119289E0E537F807D9F723
:102350001092F3091092F4091092F5091092F609FF
:102360001092FC091092FB091092FD091092FE09CF
:102370001092FF091092000A1092060A1092050AA4
:1023800010927105109272051092730510927405E7
:102390008CE892E090933705809336058EE592E0C5
:1023A00090933D0580933C0510923E0510923F05A9
:1023B000109240051092410510924205109243057B
:1023C000109244051092450510924605109247055B
:1023D000109248051092490510924A0510924B053B
:1023E00010924C0510924D0510924E0510924F051B
:1023F00010925005109251051092520510925305FB
:1024000010925405109255051092560510925705DA
:102410001092580585E391E090935A0580935905F1
:1024200081E090E090935C0580935B058FEF93E0F3
:1024300090933B0580933A050895CF93DF9300D0A6
:102440001F92CDB7DEB7789484B5826084BD84B521
:10245000816084BD85B5826085BD85B5816085BD9F
:1024600080916E00816080936E0010928100809157
:1024700081008260809381008091810081608093DF
:102480008100809180008160809380008091B10004
:1024900084608093B1008091B00081608093B0002F
:1024A0008091910082608093910080919100816081
:1024B0008093910080919000816080939000809142
:1024C000A10082608093A1008091A100816080932F
:1024D000A1008091A00081608093A00080912101E3
:1024E000826080932101809121018160809321018C
:1024F0008091200181608093200180917A00846026
:1025000080937A0080917A00826080937A00809133
:102510007A00816080937A0080917A00806880934D
:102520007A001092C10061E086E10E94470361E0F9
:1025300087E10E94470361E088E10E94470361E070
:1025400089E10E94470361E08AE10E94470361E05C
:102550008BE10E94470361E08CE10E94470361E048
:102560008DE10E94470361E08EE10E94470361E034
:102570008FE10E94470361E080E20E94470361E02F
:1025800081E20E94470362E08DE00E94470362E01F
:1025900082E00E94470320915F05309160053A83F5
:1025A0002983C0906105D0906205E0906305F090AA
:1025B000640560E079E08DE390E0A701960155D6CF
:1025C000215031094109510956954795379527956D
:1025D000A981BA815096ED91FC9182E08083C1146B
:1025E000B1EEDB06E104F10421F02115E0E13E0744
:1025F000A8F0A981BA815096ED91FC91108260E813
:1026000074E88EE190E0A70196012FD621503109A0
:10261000410951095695479537952795A981BA8162
:102620001C96ED91FC911D9730831E96ED91FC91C7
:102630001F97208358961C9258975496ED91FC91C1
:10264000559786E080835296ED91FC915397808157
:10265000806180835296ED91FC91539780818860D0
:1026600080835296ED91FC9153978081806880839E
:102670005296ED91FC9180818F7D80831092DA09D2
:102680001092D9091092DC091092DB091092E0092E
:102690001092DF091092DE091092DD09E7EAF9E0F5
:1026A00090E080E021913191232B09F085C0FC015D
:1026B000EE0FFF1FE955F64F26E335E03183208307
:1026C0008C599F4F9093390580933805E5E7F9E0E1
:1026D00090E080E021913191232B09F073C0FC013F
:1026E000EE0FFF1FEB58F64F2FE03AE031832083C7
:1026F00083589F4F9093140A8093130A8DE595E0B9
:102700009093160A8093150A7BE3272E76E0372EE6
:102710008DE00E94F20290930102809300029FB725
:10272000F894C0901104D0901204E0901304F0903B
:10273000140486B5A89B07C08F3F29F0BFEFCB1AC2
:10274000DB0AEB0AFB0A9FBFFE2CED2CDC2CCC2411
:10275000C80ED11CE11CF11C62E0CC0CDD1CEE1C8F
:10276000FF1C6A95D1F7C0929504D0929604E0922E
:102770009704F09298042091000230910102809118
:10278000910490919204A0919304B0919404232B0E
:10279000F9F0C81AD90AEA0AFB0AE1E8CE16E4E819
:1027A000DE06EEE1EE06F10408F4AAC2F1E0F093D1
:1027B0001B0A10921E0A80C201968931910509F008
:1027C00071CF84CF01968931910509F083CF9CCFD9
:1027D000A7019601281B390B4A0B5B0B29833A830F
:1027E0004B835C8380915F0490916004892B09F492
:1027F000F2C210921B0A31E030931E0A2091790434
:1028000030917A0440917B0450917C046091610482
:102810007091620480916304909164041AD34B0117
:102820005C0120E030E0A90197D42401350118169D
:1028300024F077FA709477F8709423EC35EF48E43D
:1028400050E4C301B20188D418160CF460C240925F
:102850004704509248046092490470924A044090A0
:102860004704509048046090490470904A0423EC57
:1028700035EF48EC5FE3C301B20150D387FF57C285
:10288000A301920160E070E080E89FE34BD39B01DD
:10289000AC0166D460932F047093300480933104AC
:1028A00090933204C701B601A5D32B013C012091BE
:1028B0001704309118044091190450911A04C9D298
:1028C00020912F0430913004409131045091320412
:1028D00043D41816C4F4C12CD12C4AE7E42E47E4A3
:1028E000F42E9501840149E754E067E170E086E148
:1028F00090E00E94B5044092170450921804609230
:10290000190470921A0420917D0430917E04409144
:102910007F045091800460916504709166048091F9
:1029200067049091680495D24B015C0120E030E08F
:10293000A90112D475016401181624F0F7FAF09475
:10294000F7F8F09423EC35EF48E450E4C701B60102
:1029500003D418160CF4F4C1C0924B04D0924C046A
:10296000E0924D04F0924E04C0904B04D0904C0481
:10297000E0904D04F0904E0423EC35EF48EC5FE31B
:10298000C701B601CBD287FFEBC1A701960160E07A
:1029900070E080E89FE3C6D29B01AC01E1D3609375
:1029A000330470933404809335049093360420915B
:1029B0001B0430911C0440911D0450911E04C3015E
:1029C000B20147D220913304309134044091350450
:1029D00050913604C1D31816CCF4C12C30E4D32E58
:1029E0003CE1E32E38E4F32E950184014DE754E0F9
:1029F00069E170E088E190E00E94B50440921B0418
:102A000050921C0460921D0470921E042091810457
:102A10003091820440918304509184046091690450
:102A200070916A0480916B0490916C0412D24B01F6
:102A30005C0120E030E0A9018FD375016401181614
:102A400024F0F7FAF094F7F8F09423EC35EF48E42B
:102A500050E4C701B60180D318160CF48AC1C092A5
:102A60004F04D0925004E0925104F0925204C0906E
:102A70004F04D0905004E0905104F090520423ECA5
:102A800035EF48EC5FE3C701B60148D287FF81C14B
:102A9000A701960160E070E080E89FE343D29B01CC
:102AA000AC015ED36093370470933804809339048B
:102AB00090933A0420911F04309120044091210406
:102AC00050912204C301B201C4D120913704309146
:102AD00038044091390450913A043ED31816CCF48E
:102AE000C12C20E4D22E2CE9E22E27E4F22E95010F
:102AF000840141E854E06BE170E08AE190E00E94DB
:102B0000B50440921F0450922004609221047092F8
:102B100022042091850430918604409187045091CD
:102B2000880460916D0470916E0480916F0490919F
:102B300070048FD18B019C0194E2C92E9BEAD92E9F
:102B400095E5E92E97E4F92E45E854E06DE170E053
:102B50008CE190E00E94B5042091890430918A04B0
:102B600040918B0450918C046091710470917204B7
:102B700080917304909174046CD14B015C0120E04E
:102B800030E0A901E9D275016401181624F0F7FAC2
:102B9000F094F7F8F09423EC35EF48E450E4C701E3
:102BA000B601DAD218160CF4FDC0C0925704D092C8
:102BB0005804E0925904F0925A04C0905704D090FF
:102BC0005804E0905904F0905A0423EC35EF48EC97
:102BD0005FE3C701B601A2D187FFF4C0A701960148
:102BE00060E070E080E89FE39DD19B01AC01B8D22A
:102BF00060933F0470934004809341049093420497
:102C000020912704309128044091290450912A04EE
:102C1000C301B2011ED120913F0430914004409184
:102C200041045091420498D21816D4F4C0904F0A2F
:102C3000D090500AE090510AF090520A9501840118
:102C400049E854E06FE170E08EE190E00E94B50445
:102C500040922704509228046092290470922A041A
:102C600020918D0430918E0440918F0450919004F6
:102C70006091750470917604809177049091780446
:102C8000E8D08B019C0185E4C82E8AE0D82E80EF25
:102C9000E82E86E4F82E4DE854E061E270E080E230
:102CA00090E00E94B50489819A81AB81BC81813812
:102CB0009448AE41B10520F188E1E9E7F4E0AFE1E5
:102CC000BAE001900D928A95E1F788E1E1E6F4E03F
:102CD000A7E3BAE001900D928A95E1F70E944C01BA
:102CE0008091950490919604A0919704B0919804D6
:102CF0008093910490939204A0939304B0939404CE
:102D00008DE595E00E94F30A0E945B0201CD23EC61
:102D100035EF48E450E4C301B2019BD0609347040F
:102D2000709348048093490490934A0498CD10927C
:102D30002F04109230041092310410923204B2CD5C
:102D400023EC35EF48E450E4C701B60182D060932C
:102D50004B0470934C0480934D0490934E0404CE26
:102D600010923304109234041092350410923604F9
:102D70001ECE23EC35EF48E450E4C701B60169D01C
:102D800060934F04709350048093510490935204C5
:102D90006ECE1092370410923804109239041092BB
:102DA0003A0488CE23EC35EF48E450E4C701B6017D
:102DB00050D06093570470935804809359049093B3
:102DC0005A04FBCE10923F0410924004109241042A
:102DD0001092420415CF8091150490911604892B0E
:102DE00059F110921E0A10921B0A82E00E94F20210
:102DF000892B91F480911C0A81110EC041E050E0B2
:102E000067E170E086E190E00E94A104C1010197B2
:102E1000F1F710921C0A47CF24EE3BEC46E950E450
:102E20002093790430937A0440937B0450937C047C
:102E300031E030931C0A37CF29813A814B815C8184
:102E4000213834484E41510508F45ACF10921B0ADC
:102E5000B0CC5058BB27AA270ED044C135D130F092
:102E60003AD120F031F49F3F11F41EF42AC10EF440
:102E7000E095E7FB20C1E92F46D180F3BA1762073E
:102E800073078407950718F071F49EF55EC10EF480
:102E9000E0950B2EBA2FA02D0B01B90190010C016A
:102EA000CA01A0011124FF27591B99F0593F50F482
:102EB000503E68F11A16F040A22F232F342F4427DA
:102EC000585FF3CF469537952795A795F0405395D2
:102ED000C9F77EF41F16BA0B620B730B840BBAF0A2
:102EE0009150A1F0FF0FBB1F661F771F881FC2F70D
:102EF0000EC0BA0F621F731F841F48F48795779521
:102F00006795B795F7959E3F08F0B3CF9395880FD7
:102F100008F09927EE0F979587950895A8D008F4A3
:102F200081E008950CD0DEC0D6D040F0CDD030F096
:102F300021F45F3F19F0BFC0511108C1C2C0E3D0F6
:102F400098F39923C9F35523B1F3951B550BBB2770
:102F5000AA2762177307840738F09F5F5F4F220F1D
:102F6000331F441FAA1FA9F333D00E2E3AF0E0E816
:102F700030D091505040E695001CCAF729D0FE2F62
:102F800027D0660F771F881FBB1F261737074807F4
:102F9000AB07B0E809F0BB0B802DBF01FF279358AA
:102FA0005F4F2AF09E3F510568F085C0CFC05F3F5C
:102FB000ECF3983EDCF3869577956795B795F79592
:102FC0009F5FC9F7880F911D9695879597F908958A
:102FD000E1E0660F771F881FBB1F62177307840726
:102FE000BA0720F0621B730B840BBA0BEE1F88F735
:102FF000E0950895E89409C097FB3EF4909580957C
:10300000709561957F4F8F4F9F4F9923A9F0F92FAE
:1030100096E9BB279395F695879577956795B7952C
:10302000F111F8CFFAF4BB0F11F460FF1BC06F5F12
:103030007F4F8F4F9F4F16C0882311F096E911C024
:10304000772321F09EE8872F762F05C0662371F045
:1030500096E8862F70E060E02AF09A95660F771F59
:10306000881FDAF7880F9695879597F90895990F35
:103070000008550FAA0BE0E8FEEF16161706E80742
:10308000F907C0F012161306E407F50798F0621B63
:10309000730B840B950B39F40A2661F0232B242B38
:1030A000252B21F408950A2609F4A140A6958FEF57
:1030B000811D811D089597F99F6780E870E060E0A9
:1030C00008959FEF80EC089500240A9416161706C1
:1030D00018060906089500240A9412161306140609
:1030E00005060895092E0394000C11F4882352F06C
:1030F000BB0F40F4BF2B11F460FF04C06F5F7F4F24
:103100008F4F9F4F089557FD9058440F551F59F00A
:103110005F3F71F04795880F97FB991F61F09F3FC4
:1031200079F087950895121613061406551FF2CFED
:103130004695F1DF08C0161617061806991FF1CF3D
:1031400086957105610508940895E894BB27662764
:103150007727CB0197F908958ADF08F48FEF089558
:103160000BD0C0CFB1DF28F0B6DF18F0952309F0FF
:10317000A2CFA7CF1124EACFC6DFA0F3959FD1F34A
:10318000950F50E0551F629FF001729FBB27F00D15
:10319000B11D639FAA27F00DB11DAA1F649F66276A
:1031A000B00DA11D661F829F2227B00DA11D621FB9
:1031B000739FB00DA11D621F839FA00D611D221F73
:1031C000749F3327A00D611D231F849F600D211D57
:1031D000822F762F6A2F11249F5750408AF0E1F0FA
:1031E00088234AF0EE0FFF1FBB1F661F771F881F43
:1031F00091505040A9F79E3F510570F05CCFA6CF8B
:103200005F3FECF3983EDCF3869577956795B7952D
:10321000F795E7959F5FC1F7FE2B880F911D969557
:10322000879597F90895DB018F939F9348D0BF91BD
:10323000AF91A29F800D911DA39F900DB29F900D05
:103240001124089597FB072E16F4009406D077FDFD
:1032500008D03FD007FC05D03EF4909581959F4F54
:103260000895709561957F4F0895A1E21A2EAA1BCB
:10327000BB1BFD010DC0AA1FBB1FEE1FFF1FA21726
:10328000B307E407F50720F0A21BB30BE40BF50B23
:10329000661F771F881F991F1A9469F760957095AC
:1032A000809590959B01AC01BD01CF010895EE0F73
:1032B000FF1F881F8BBF0790F691E02D19941DD03A
:1032C000A59F900DB49F900DA49F800D911D11247A
:1032D0000895AA1BBB1B51E107C0AA1FBB1FA6175D
:1032E000B70710F0A61BB70B881F991F5A95A9F7AF
:1032F00080959095BC01CD010895A29FB001B39F28
:10330000C001A39F700D811D1124911DB29F700DEE
:10331000811D1124911D08954F925F926F927F92AB
:103320008F929F92AF92BF92CF92DF92EF92FF92D5
:103330000F931F93CF93DF938C01009791F4CB01F0
:10334000DF91CF911F910F91FF90EF90DF90CF9081
:10335000BF90AF909F908F907F906F905F904F90B5
:10336000C0C0FC01E60FF71F9C0122503109E21793
:10337000F30708F4AAC0D901CD91DC911197C617C3
:10338000D70718F1C530D10570F0CE010497861724
:10339000970748F0C61BD70B2297C193D1936D9323
:1033A0007C93CF013AD1C801DF91CF911F910F914A
:1033B000FF90EF90DF90CF90BF90AF909F908F9055
:1033C0007F906F905F904F9008955B01AC1ABD0A9B
:1033D0004C018C0E9D1EA091550AB091560A512C9D
:1033E000412CF12CE12C109731F58091530A9091EA
:1033F000540A8815990509F05CC04616570608F06E
:1034000058C08091020290910302009741F48DB759
:103410009EB74091060250910702841B950BE81756
:10342000F90708F052C0F093540AE093530AF901E7
:1034300071836083B8CF8D919C91119712966C9097
:10344000129713967C901397A815B90559F56C013E
:1034500042E0C40ED11CCA14DB0420F1AC014A19AD
:103460005B09DA011296159780F0628273825183AC
:103470004083D9016D937C93E114F10471F0D7017D
:103480001396FC93EE9312978ECF22968C0F9D1F6E
:10349000F90191838083F301EFCFF093560AE09313
:1034A000550A81CF4816590608F42C017D01D30135
:1034B0009ACFCB0116D07C01009739F0AE01B8014C
:1034C00007D0C801AAD087016ECF10E000E06BCF13
:1034D000FB01DC0102C001900D9241505040D8F731
:1034E00008950F931F93CF93DF938230910510F4CB
:1034F00082E090E0E091550AF091560A30E020E039
:10350000B0E0A0E0309799F42115310509F44AC0E4
:10351000281B390B24303105D8F58A819B81611530
:10352000710589F1FB0193838283FE0111C0408103
:1035300051810281138148175907E0F04817590754
:1035400099F4109761F012960C93129713961C93AE
:103550003296CF01DF91CF911F910F910895009383
:10356000550A1093560AF4CF2115310551F0421730
:10357000530738F0A901DB019A01BD01DF01F80111
:10358000C1CFEF01F9CF9093560A8093550ACDCF62
:10359000FE01E20FF31F8193919322503109398389
:1035A0002883D7CF2091530A3091540A232B41F41A
:1035B00020910402309105023093540A2093530A5B
:1035C00020910202309103022115310541F42DB7FB
:1035D0003EB74091060250910702241B350BE09143
:1035E000530AF091540AE217F307A0F42E1B3F0B85
:1035F0002817390778F0AC014E5F5F4F2417350765
:1036000048F04E0F5F1F5093540A4093530A819322
:1036100091939FCFF0E0E0E09CCFCF93DF930097B2
:10362000E9F0FC01329713821282A091550AB09101
:10363000560AED0130E020E01097A1F4208131819D
:10364000820F931F2091530A3091540A281739078B
:1036500009F061C0F093540AE093530ADF91CF91CF
:103660000895EA01CE17DF07E8F54A815B819E01E4
:1036700041155105B1F7E901FB83EA83499159915D
:10368000C40FD51FEC17FD0761F48081918102966C
:10369000840F951FE90199838883828193819B839D
:1036A0008A83F0E0E0E012968D919C911397009749
:1036B000B9F52D913C911197CD010296820F931F80
:1036C0002091530A3091540A2817390739F6309758
:1036D00051F51092560A1092550AB093540AA093CD
:1036E000530ABCCFD383C28340815181840F951F7D
:1036F000C817D90761F44E5F5F4F88819981480FE1
:10370000591F518340838A819B8193838283211532
:10371000310509F0B0CFF093560AE093550A9ECFD9
:10372000FD01DC01C0CF13821282D7CFF894FFCF06
:1037300001000000570A8000726F7373657269613F
:103740006C5F6D7367732F5265717565737450612B
:1037500072616D0000000000610FDD05DA05D7051C
:10376000000000001707D106CE06CB0600000000BF
:10377000310F82057F057C0500000000F0015B0130
:1037800088013C02B9019701AB0100000000F60876
:10379000F0078C038903000000004E0E71097905C3
:1037A0007605000000009303F30A84030000000084
:1037B0002709320873057005000000001F088F03F9
:1037C0008C03890361623366363365626132343259
:1037D000383937663435346164653039373938669D
:1037E00061336564005465656E73792F4152335FB0
:1037F000436F6E74726F6C004D6573736167652003
:1038000066726F6D206465766963652064726F709F
:103810007065643A206D657373616765206C6172D1
:10382000676572207468616E206275666665722EC7
:103830000038666635356530653531396335333383
:10384000666234386461643030353762373239301B
:1038500030004152332F4152335F466565646261E7
:10386000636B0039663065393862646136353938E2
:1038700031393836646466353361666137613430B6
:10388000653439003131616264373331633235393F
:103890003333323631636436313833626431326403
:1038A0003632393500726F7373657269616C5F6DA2
:1038B0007367732F4C6F6700306164353166383839
:1038C00066633434383932663863313036383430F0
:1038D000373736343630303500726F73736572693E
:1038E000616C5F6D7367732F546F706963496E66A7
:1038F0006F0063643731363663373463353532638E
:1039000033313166626363326665356137626332D3
:103910003839007374645F6D7367732F54696D6514
:10392000002F4152332F466565646261636B002F3F
:0C3930004152332F436F6E74726F6C00B5
:00000001FF
