:10000000F5C0000024C1000022C1000020C1000092
:100010001EC100001CC100001AC1000018C1000070
:1000200016C1000014C1000012C1000010C1000080
:100030000EC100000CC100000AC1000008C1000090
:1000400006C1000004C1000002C1000000C10000A0
:10005000FEC00000FCC00000FAC000000C94410E7D
:10006000F6C000000C940B0E0C94E10DF0C00000E3
:10007000EEC00000ECC00000EAC00000E8C00000D4
:10008000E6C00000E4C00000E2C00000E0C00000E4
:10009000DEC00000DCC00000DAC00000D8C00000F4
:1000A000D6C00000D4C00000D2C00000D0C0000004
:1000B000CEC00000CCC00000CAC00000C8C0000014
:1000C000C6C00000C4C00000C2C00000C0C0000024
:1000D000BEC00000BCC00000BAC00000B8C0000034
:1000E000B6C0000000000A0B02090C0D0E08070341
:1000F00004010000000000000000000000000000FB
:1001000000000000000000000000000000000000EF
:1001100012111000000000000000000000000000AC
:100120000000000000000000000000002200250088
:1001300028002B002E0031003400020100000501D0
:1001400008010B0100002100240027002A002D00D7
:100150003000330001010000040107010A01050518
:100160000505070508080808020202020A0A08082D
:10017000040404040101010101010101030303035B
:1001800003030303040707070C0C0C0C0C0C0C0CEA
:100190000202020206060606060606060B0B0B0BFB
:1001A0000B0B0B0B01021020200808102040102020
:1001B000408002010201080402010102040810202B
:1001C0004080804020100804020180040201804029
:1001D0002010080402010804020101020408102092
:1001E000408001020408102040808B0E11241FBEA5
:1001F000CFEFD1E2DEBFCDBF00E00CBF13E0A0E047
:10020000B2E0E8E4F9E200E00BBF02C007900D9213
:10021000A43FB107D9F729E0A4EFB3E001C01D92D4
:10022000A837B207E1F710E0C6EFD0E000E006C063
:1002300021970109802FFE010E946312C53FD1075B
:1002400080E00807A9F70E947D0F0C94A214D8CE75
:1002500090E0FC01EC55FE4F2491825A9E4FFC0128
:100260008491882399F090E0880F991FFC01EC5B42
:10027000FE4FA591B491FC01E65DFE4F85919491EE
:100280008FB7F894EC91E22BEC938FBF0895AF9267
:10029000BF92CF92DF92EF92FF920F931F93CF9373
:1002A000DF936C017B018B01040F151FEB015E01D5
:1002B000AE18BF08C017D10759F06991D601ED916A
:1002C000FC910190F081E02DC6011995892B79F7F9
:1002D000C501DF91CF911F910F91FF90EF90DF90BB
:1002E000CF90BF90AF900895FC01538D448D252F82
:1002F00030E0842F90E0821B930B541710F0CF96C0
:10030000089501970895FC01918D828D981761F0F1
:10031000A28DAE0FBF2FB11D5D968C91928D9F5F08
:100320009F73928F90E008958FEF9FEF0895FC01E7
:10033000918D828D981731F0828DE80FF11D858D9A
:1003400090E008958FEF9FEF0895FC01918D228D2D
:10035000892F90E0805C9F4F821B91098F739927B2
:10036000089585E094E0F1DF21E0892B09F420E095
:10037000822F0895FC01A48DA80FB92FB11DA35A97
:10038000BF4F2C91848D90E001968F739927848FB5
:10039000A689B7892C93A089B1898C9183708064D8
:1003A0008C93938D848D981306C00288F389E02D79
:1003B00080818F7D80830895EF92FF920F931F932A
:1003C000CF93DF93EC0181E0888F9B8D8C8D981308
:1003D0001AC0E889F989808185FF15C09FB7F89414
:1003E000EE89FF896083E889F98980818370806460
:1003F00080839FBF81E090E0DF91CF911F910F91AB
:10040000FF90EF900895F62E0B8D10E00F5F1F4FB9
:100410000F731127E02E8C8D8E110BC00FB607FCC9
:10042000FACFE889F989808185FFF5CFCE01A2DF77
:10043000F2CFEB8DEC0FFD2FF11DE35AFF4FF08251
:100440009FB7F8940B8FEA89FB8980818062D0CFB7
:10045000CF93DF93EC01888D8823B1F0AA89BB8903
:10046000E889F9898C9185FD03C0808186FD0CC0E7
:100470000FB607FCF7CF8C9185FFF2CF808185FF07
:10048000EDCFCE0177DFEACFDF91CF91089580E005
:1004900090E0892B21F065DF81110E94000080E04F
:1004A00090E0892B49F080E090E0892B29F00E94B0
:1004B000000081110E94000080E090E0892B49F04B
:1004C00080E090E0892B29F00E94000081110E94B9
:1004D000000080E090E0892B49F080E090E0892BDB
:1004E00029F00E94000081110C9400000895282F2B
:1004F00030E0F901EC51FF4F9491F901EC55FE4FBA
:100500004491225A3E4FF9012491222309F435C027
:10051000992311F191509231F8F4E92FF0E08827F6
:10052000EB56FD4F8F4F0C946312C602CA02A7020E
:10053000BE02C202AC02CD02D302D702DD02E1024A
:10054000E502EB02EF02AC02F302F902FD02809138
:1005500080008F7780938000E22FF0E0EE0FFF1F86
:10056000E65DFE4FA591B4918FB7F894EC916111BF
:1005700048C040954E234C938FBF089580918000D2
:100580008F7DE8CF80918000877FE4CF84B58F771F
:1005900084BDE2CF84B58F7DFBCF8091B0008F7793
:1005A0008093B000D9CF8091B0008F7DF9CF80913A
:1005B00090008F7780939000CFCF809190008F7DB7
:1005C000F9CF80919000877FF5CF8091A0008F7741
:1005D0008093A000C1CF8091A0008F7DF9CF809142
:1005E000A000877FF5CF809120018F778093200135
:1005F000B3CF809120018F7DF9CF80912001877F3B
:10060000F5CF4E2BB8CF61E0019709F060E083E0B1
:100610006EDF61E082E06BDF8BEA94E00197F1F737
:1006200060E082E064CF2FB7F8946091F903709195
:10063000FA038091FB039091FC032FBF08958A5722
:100640009B4FFC018081089586E892E0089587EA37
:1006500092E00895FC01868597850895AF92BF9238
:10066000CF92DF92EF92FF920F931F93CF93DF937E
:1006700000D01F921F92CDB7DEB7643671054CF0E3
:10068000FC01EA57FB4F2081F12CE12C222309F4D5
:1006900076C0DA017B018C01BC01615E7D4FED917A
:1006A000FC910190F081E02DCA011995680128EEB6
:1006B000C21A2DEFD20A2FEFD6012C93F801E75E74
:1006C000FD4F2EEF208331968083319690833196B3
:1006D000292F280F209520833196E0821696FC92D0
:1006E00045E050E030E020E0DC011696A417B507A5
:1006F00034F06191260F311D4F5F5F4FF7CF7C01C2
:10070000B8E0EB0EF11C800F911FFC01E15EFD4F84
:1007100020952083E1E0EE16E2E0FE06B4F45601F7
:10072000C5018C199D098E159F054CF5D8011296AF
:100730008D919C91F50161915F01DC01ED91FC913E
:100740000190F081E02D1995EBCF8EE392E09A8332
:10075000898383E08B8388EB92E09D838C83D8012F
:10076000ED91FC910190F081E02DAE014F5F5F4F64
:1007700067E070E0C8011995EE24EA94FE2CC701E9
:100780000F900F900F900F900F90DF91CF911F91CE
:100790000F91FF90EF90DF90CF90BF90AF900895B2
:1007A0000F931F93CF93DF9300D000D000D01F9200
:1007B000CDB7DEB78C0182E392E09A8389831B82F6
:1007C0001C821D821E821F82188619861A86D801F5
:1007D000ED91FC910190F081E02DAE014F5F5F4FF4
:1007E0006AE070E0C80119951EDFF8016087718723
:1007F000828793872A960FB6F894DEBF0FBECDBFCF
:10080000DF91CF911F910F910895CF92DF92EF92D8
:10081000FF92DC011D921D921D921C921397FB0109
:1008200030E020E0419150E0022E02C0440F551FFD
:100830000A94E2F7052E000C660B770BCD90DD9045
:10084000ED90FC9013974C295D296E297F294D93DB
:100850005D936D937C931397285F3F4F2032310552
:1008600009F7FF90EF90DF90CF900895FC0140834F
:100870005183128213820895FC0182819381A481A5
:10088000B5818093010490930204A0930304B09374
:1008900004048091FD039091FE03A091FF03B091A9
:1008A00000048093700990937109A0937209B0932A
:1008B0007309E4E6F9E08681978164817581DC0142
:1008C000ED91FC910190F081E02D4EE659E01994F4
:1008D000CF92DF92EF92FF920F931F93FC01DB0107
:1008E0001396CC9013970C2D10E030E020E095E0AB
:1008F00036952795179507959A95D1F70283138317
:100900002483358314968C911497C82ED12CF12C06
:10091000E12C43E0CC0CDD1CEE1CFF1C4A95D1F70A
:10092000C02AD12AE22AF32AC282D382E482F58243
:1009300015968C911597082F10E030E020E05BE0D1
:10094000000F111F221F331F5A95D1F70C291D29A3
:100950002E293F29028313832483358316964C91D5
:10096000169750E070E060E083E1440F551F661F6A
:10097000771F8A95D1F74427552768777727042B67
:10098000152B262B372B028313832483358317964D
:100990004C91179750E070E060E094E0440F551FD1
:1009A000661F771F9A95D1F7407F57706627772784
:1009B0001696CC901697D12CF12CE12C84E0F6946D
:1009C000E794D794C7948A95D1F74C295D296E296D
:1009D0007F29411551056105710599F04058534033
:1009E0006109710987E1440F551F661F771F8A95BA
:1009F000D1F7402B512B622B732B4283538364839B
:100A0000758317968C9190E0B0E0A0E0B82FAA27EC
:100A10009927882788279927AA27B0784281538168
:100A200064817581842B952BA62BB72B82839383AE
:100A3000A483B58388E090E01F910F91FF90EF9021
:100A4000DF90CF9008950F931F93CF93DF938C0186
:100A5000EC012696CE013CDFD8011C96ED91FC916D
:100A6000CE01DF91CF911F910F9119948F929F9298
:100A7000AF92BF92CF92DF92EF92FF92CF93DF932C
:100A8000EB01FC0182809380A480B580D501C40174
:100A900047E1B595A795979587954A95D1F79927F9
:100AA000AA27BB270097A105B10521F080589C4FCC
:100AB000AF4FBF4F188219821A82B501A40125E0F9
:100AC000440F551F661F771F2A95D1F74B83B50139
:100AD000A40133E075956795579547953A95D1F7F9
:100AE0004C83B501A401EBE0759567955795479543
:100AF000EA95D1F74D83B501A401F3E175956795AA
:100B000057954795FA95D1F74F706C017D0124E018
:100B1000CC0CDD1CEE1CFF1C2A95D1F74C294E8312
:100B20006C017D0134E0F594E794D794C7943A952D
:100B3000D1F720E030E0A901C501B4010E94A21163
:100B400087FD0EC0CF8288E090E0DF91CF91FF90CB
:100B5000EF90DF90CF90BF90AF909F908F900895CF
:100B60008C2D80688F83EFCF81EF92E0089586E02F
:100B700092E0089582E193E0089583E393E008957D
:100B80004F925F926F927F928F929F92AF92BF929D
:100B9000EF92FF920F931F93CF93DF9300D01F929A
:100BA000CDB7DEB77C018B01FB018191BF01F7015D
:100BB0008283CE01019629DE89819A81AB81BC8135
:100BC0004C015D01F5E08F0E911CA11CB11CA80128
:100BD0004C5F5F4FFA0125E030E02901712C612C58
:100BE000481459046A047B0428F4618161932F5FDF
:100BF0003F4FF3CFF801E80FF91F1482F701548338
:100C0000438305960F900F900F900F90DF91CF9137
:100C10001F910F91FF90EF90BF90AF909F908F909A
:100C20007F906F905F904F90089586E493E00895D1
:100C300087E693E008954F925F926F927F928F9232
:100C40009F92AF92BF92CF92DF92EF92FF920F935B
:100C50001F93CF93DF93CDB7DEB72C970FB6F894E1
:100C6000DEBF0FBECDBF7C018B01DB018C9190E01C
:100C7000F7019383828311962C91922B9383828325
:100C80006E5F7F4FCE010196C0DD89809A80AB8078
:100C9000BC8024013501F6E04F0E511C611C711C13
:100CA00098012B5F3F4FF90186E090E0AC0170E0C6
:100CB00060E0441555056605770520F441814193B0
:100CC0000196F4CFB4016A5F7F4FF801E80DF91D7A
:100CD0001582D70115963C932E931497600F711FC0
:100CE000CE01059692DDBAE08B0E911C4D805E80A0
:100CF0006F807884C401092C000CAA0BBB0B5C012B
:100D00006D01A40CB51CC61CD71CF801E80DF91D1B
:100D1000AF01401B510B70E060E04A155B056C05AC
:100D20007D0538F42191AF0142505109DA012C932D
:100D3000EFCF480C591CB801640D751DFB013197AC
:100D40001082C4010197800F911FF701978386835A
:100D5000CE0109965ADD92012C5F3F4F89849A8417
:100D6000AB84BC84A901032E000C660B770B480DE5
:100D7000591D6A1D7B1DF801E20FF31FCF01801B77
:100D8000910BB0E0A0E084179507A607B70728F4F9
:100D90008191DF0112978C93F1CFC901880D991DC4
:100DA000F801E80FF91FDF0111971C92215031095A
:100DB000020F131FD70119961C930E9318972181C8
:100DC000428150E070E060E0BA0155274427522B81
:100DD0002081422B2381722BF7014287538764873E
:100DE000758704962C960FB6F894DEBF0FBECDBF64
:100DF000DF91CF911F910F91FF90EF90DF90CF90F7
:100E0000BF90AF909F908F907F906F905F904F902A
:100E1000089580E893E0089581EA93E00895FC0145
:100E2000DB014C9150E070E060E0428353836483C7
:100E3000758311968C911197582B42835383648349
:100E4000758312968C911297682B42835383648327
:100E5000758313968C911397782B42835383648305
:100E6000758314964C91149750E070E060E04683CF
:100E700057836087718715968C911597582B4683F9
:100E800057836087718716968C911697682B4683D7
:100E900057836087718717968C91782B4683578389
:100EA0006087718788E090E00895DC01FB0112966D
:100EB0008C911297808313968C911397818314964B
:100EC0008C911497828315968C911597838316962F
:100ED0008C911697848317968C9117978583189613
:100EE0008C911897868319968C91878388E090E07F
:100EF00008952F923F924F925F926F927F928F92BE
:100F00009F92AF92BF92CF92DF92EF92FF920F9398
:100F10001F93CF93DF93CDB7DEB72E970FB6F8941C
:100F2000DEBF0FBECDBF8C016B01DB018D909D90AC
:100F3000AD90BC90FC0182819381A481B58188151C
:100F40009905AA05BB0570F4B401660F771F660FFB
:100F5000771F828593850E949812D8011B969C93D7
:100F60008E931A97F80182829382A482B582C60179
:100F700040E050E0BA01A4E0EA2EF12C98012A5F8B
:100F80003F4FDC011596EC91159716964C901697ED
:100F9000512C712C612C3201552444245E2A149664
:100FA000EC9114974E2A1796EC917E2AD7011701DF
:100FB000E4E02E0E311C71010496F80182809380CA
:100FC000A480B580481559056A057B05A8F44682BA
:100FD0005782608671861497A284B384AA0DBB1DC4
:100FE000E4E0BE2EF90101900D92BA94E1F74F5F53
:100FF0005F4F6F4F7F4FC5CF84859585A685B78599
:1010000084159505A605B70570F4B201660F771F24
:10101000660F771F848995890E949812D80155968A
:101020009C938E935497F8014486558666867786FE
:10103000C601820D931D412C512C32011C019801D7
:10104000205F3F4FDC0111966C91119712968C90A6
:101050001297912CB12CA12C540199248824962A02
:101060006C91862A13966C91B62AB4E0EB0EF11CB3
:10107000F8014485558566857785441655066606CC
:101080007706C0F4808A918AA28AB38ABC01621969
:101090007309A489B589A60FB71F64E0F90101900F
:1010A0000D926A95E1F7BFEF4B1A5B0A6B0A7B0A58
:1010B0000496C8CF86899789A08DB18D881599052A
:1010C000AA05BB0560F4B401660F771F848D958D6A
:1010D0000E949812D8015D969C938E935C97F801BC
:1010E000868A978AA08EB18E412C512C320118012C
:1010F000FAE12F0E311CF80186899789A08DB18DF8
:10110000481659066A067B0608F05BC0B6016E0DEC
:101110007F1DCE01019679DB97012C5F3F4F3E8703
:101120002D8789809A80AB80BC80C901032E000C7A
:10113000AA0BBB0BAC01BD01480D591D6A1D7B1DDF
:1011400049875A876B877C87F901EC0DFD1D9F014C
:101150002C193D09B90190E080E029853A854B853D
:101160005C85621773078407950728F42191DF01D6
:1011700012972C93ECCFED84FE84E80CF91CF60159
:10118000EE0DFF1D319710828D859E8501978C0D88
:101190009D1DD8015B969C938E935A97C201880F30
:1011A000991F5C96ED91FC91E80FF91FD1018D918B
:1011B0009C9191838083BFEF4B1A5B0A6B0A7B0A79
:1011C0009ACFC7012E960FB6F894DEBF0FBECDBFE3
:1011D000DF91CF911F910F91FF90EF90DF90CF9013
:1011E000BF90AF909F908F907F906F905F904F9047
:1011F0003F902F9008952F923F924F925F926F925F
:101200007F928F929F92AF92BF92CF92DF92EF9296
:10121000FF920F931F93CF93DF93CDB7DEB7A697BF
:101220000FB6F894DEBF0FBECDBF8C01FCD94B01C9
:101230005C01980125573B4F3E8B2D8BF901808136
:101240009181A281B38175016401C81AD90AEA0AA1
:10125000FB0AD701C601893F9A42A105B10510F0EA
:1012600035971082180134E8231A3BEF330AD10175
:101270008D919C91892B79F0F801E157FB4F80818A
:101280009181A281B38188159905AA05BB0518F43F
:10129000F1011182108298012C573B4F3A8B298B18
:1012A000A80140585B4F5C8B4B8BC8014896988FC8
:1012B0008F8BD801AA57BB4FBC8FAB8FF801EC5670
:1012C000FB4FFE8FED8F215F3F4F38A32F8F425092
:1012D0005109588B4F8786599B4F9A8F898F199642
:1012E000BAA3A9A3A50194012C5E3F4F4F4F5F4FB6
:1012F0002BA33CA34DA35EA3F80184899589A689FD
:10130000B789892B8A2B8B2BB1F5D80112968D9139
:101310009C91DC01ED91FC910284F385E02D1995FF
:101320009C0197FF3BC0F801EA57FB4F808188235F
:10133000F9F07801B9E7EB1ABBEFFB0AF7018081FE
:101340009181A281B381A5019401281B390B4A0B1D
:101350005B0BDA01C901853C9940A105B10540F05C
:10136000C8011EDAD7018D929D92AD92BC9213975F
:1013700090E080E0B0C157D9681979098A099B09C2
:10138000F801C488D588E688F788C616D706E80627
:10139000F90608F0BACF8EEF9FEF9DC1A989BA89EF
:1013A0008D919C911197820F931F8D939C93F101C6
:1013B0004081518147305105F9F4A98DBA8D8D9145
:1013C0009C911197AC014F5F5F4F4D935C93800FE1
:1013D000911FFC01208FAF85B8898D919C91119749
:1013E00001978D939C93892B09F086CF88E090E03C
:1013F000F1019183808380CF4115510519F52F3F6D
:10140000310581F481E090E091838083CBA0DCA062
:10141000EDA0FEA0A9A1BAA1CD92DD92ED92FC9221
:1014200013976ACF00D9681979098A099B09693825
:1014300073418105910508F45FCFF801EA57FB4F2E
:101440001082A9CF4130510581F42E3F310519F4A6
:1014500082E090E0CDCF11821082EB8DFC8D8081F7
:1014600081114ACFC8019CD947CF4230510591F430
:10147000AF85B8892D933C93E98DFA8D1182108246
:1014800083E090E0D1018D939C93E989FA893183BF
:10149000208332CF4330510571F4322F2227AF859C
:1014A000B8898D919C911197280F391F2D933C93EA
:1014B00084E090E09DCF4430510571F460E071E02C
:1014C000CDD78F3F910529F485E090E0918380830B
:1014D00013CF1182108210CF4530510569F4AB89CA
:1014E000BC892D933C9386E090E091838083A98909
:1014F000BA892D933C9300CF46305105A1F4322F89
:101500002227EB89FC8980819181280F391F318343
:10151000208387E090E0D1018D939C93EF85F8893B
:101520008081918160CF4830510509F0E5CE11826C
:10153000108260E071E092D78F3F910509F0DCCE18
:10154000AB89BC89ED91FC91309709F0DDC0C801F1
:1015500027D986E292E09A8389831C821B8280EFDE
:1015600092E09E838D8398878F839A8789871B86D5
:101570001C861D861E866801B8EECB1ABBEFDB0AFF
:101580007801E6EBEE1AEBEFFE0A412C22E0522E38
:10159000612C712CD601ED91FC913097A9F18481D9
:1015A00095819C838B83808191819E838D838281B1
:1015B0009381DC01ED91FC910480F581E02D19957A
:1015C00098878F83D601ED91FC9182819381DC0114
:1015D000ED91FC910680F781E02D19959A87898716
:1015E0004B865C866D867E86D601ED91FC9160858A
:1015F0007185D801ED91FC910190F081E02DAE0153
:101600004F5F5F4FC8011995B2E0CB0ED11CEC14AF
:10161000FD0409F0BFCF412C92E0592E612C712CB2
:10162000F701A081B1811097E1F112968D919C9103
:1016300013979C838B8314968D919C9115979E8311
:101640008D83ED91FC9111970480F581E02DCD0102
:10165000199598878F83D7018D919C91DC01ED912D
:10166000FC910680F781E02D19959A8789874B8632
:101670005C866D867E86D801ED91FC91C080D1801C
:10168000F70180819181DC01ED91FC910280F38171
:10169000E02D1995AE014F5F5F4FBC01C801F60107
:1016A0001995F2E0EF0EF11CE214F30409F0B8CF43
:1016B000F801EA57FB4F81E0808331968082918266
:1016C000A282B382AD89BE898D929D92AD92BC9269
:1016D00013978FEF9FEFA6960FB6F894DEBF0FBE5D
:1016E000CDBFDF91CF911F910F91FF90EF90DF90D1
:1016F000CF90BF90AF909F908F907F906F905F90B2
:101700004F903F902F900895EA30F10509F09BC06B
:1017100082E392E09A8389831B821C821D821E824F
:101720001F82188619861A860E941303F801C08446
:10173000D184E284F3849B01AC012C193D094E094C
:101740005F0969017A016F89788DCE01019667DBA7
:10175000C701B60128EE33E040E050E092D66901BF
:101760007A019B01AC018B819C81AD81BE818C0D86
:101770009D1DAE1DBF1D8B839C83AD83BE8360E426
:1017800072E48FE090E05BD6CF80D884E984FA845D
:10179000DC01CB018C0D9D1DAE1DBF1D8F83988775
:1017A000A987BA870E941303CF80D884E984FA847A
:1017B00036E3D31A35E6E30A34ECF30A28EE33E0D5
:1017C00040E050E05ED629013A019B01AC0160E4A3
:1017D00072E48FE090E033D6A7019601261B370B09
:1017E000480B590BCA01B9012B813C814D815E81A7
:1017F000215031094109510969017A01C418D508FC
:10180000E608F7082601370120E03AEC4AE95BE3F5
:1018100038D6420E531E641E751ED8011C964D927A
:101820005D926D927C921F97F801608B718B828B19
:10183000938B0E941303AD89BE896D937D938D9325
:101840009C93139759CDE630F10551F46F89788D4B
:101850008D8D9E8D4EDB81E0EF8DF8A180834CCD88
:10186000EB30F10521F4AB8DBC8D1C9245CDEF53CF
:10187000FE4FEE0FFF1FE00FF11F80819181009757
:1018800009F43ACDDC01ED91FC910190F081E02D5D
:101890006F89788D199530CD4F925F926F927F92BC
:1018A0008F929F92AF92BF92CF92DF92EF92FF9270
:1018B0000F931F93CF93DF93EC017B018A81FB0190
:1018C00080838B8181838C8182838D818383349615
:1018D000412C512C320104E010E09F012F5F3F4F5B
:1018E000CF010296DF011396A8010C5F1F4F8A807B
:1018F0009B80AC80BD80481459046A047B04C8F402
:10190000AA85BB85A40FB51F14974C9111962C91F5
:10191000119712969C91129713968C914083218374
:10192000928383838FEF481A580A680A780A34969C
:10193000D4CF4C8540834D85F90140832E85FC0131
:1019400020838F858C93F701E00FF11F412C512CE0
:101950003201AF019F012F5F3F4FCF010296DF01A0
:1019600013960C5F1F4F8C849D84AE84BF844814F3
:1019700059046A047B04D8F4CF01841B950BAC890D
:10198000BD89A80FB91F3C9111962C911197129601
:101990009C91129713968C91308321839283838339
:1019A0008FEF481A580A680A780A3496D3CF4E89BE
:1019B00040834F89F9014083288DFC012083898D64
:1019C0008C93412C512C32018E899F89A88DB98D21
:1019D000481659066A067B0678F55201AA0CBB1C0C
:1019E000EC8DFD8DEA0DFB1DA081B181FD01019003
:1019F0000020E9F731976F01CA1ADB0AA60170E0EF
:101A000060E0C701800F911F0E9436040C5F1F4FDA
:101A10008C8D9D8DA80EB91EF50160817181A60186
:101A2000C701800F911F60D60C0D1D1DFFEF4F1ACF
:101A30005F0A6F0A7F0AC8CFC801DF91CF911F915B
:101A40000F91FF90EF90DF90CF90BF90AF909F905D
:101A50008F907F906F905F904F900895EF92FF92DC
:101A60000F931F93CF93DF938C017B01DC011296C0
:101A70002C911297FB012193CF011396ED91FC91CC
:101A8000EF0109900020E9F72197CE1BDF0BAE0193
:101A900070E060E00E943604D80113966D917C914D
:101AA000AE01C701059620D6CE010596DF91CF91F4
:101AB0001F910F91FF90EF900895CF92DF92EF92D8
:101AC000FF920F931F93CF93DF936C01EB01DC0127
:101AD00012968C911297888313968C911397898311
:101AE0001496ED91FC91DF010D900020E9F78D0136
:101AF000015011090E1B1F0BA80170E060E0CE0120
:101B000002960E943604F60164817581A801CE0117
:101B10000696EAD5C8010696F601A681B781FD01B1
:101B200001900020E9F731977F01EA1AFB0AA7012B
:101B300070E060E08C0F9D1F0E943604065F1F4F0F
:101B4000D60116966D917C91A701CE01800F911F51
:101B5000CBD50E0D1F1DF601A085B185FD010190AD
:101B60000020E9F731977F01EA1AFB0AA70170E02C
:101B700060E0CE01800F911F0E9436040C5F1F4F62
:101B8000D60118966D917C91A701CE01800F911F0F
:101B9000ABD5C701800F911FF6016285438534855F
:101BA0002585C80FD91F688349833A832B83049600
:101BB000DF91CF911F910F91FF90EF90DF90CF9029
:101BC00008951F920F920FB60F9211240BB60F9229
:101BD0002F933F934F935F936F937F938F939F9335
:101BE000AF93BF93EF93FF9385E094E00E94BA0117
:101BF000FF91EF91BF91AF919F918F917F916F91E5
:101C00005F914F913F912F910F900BBE0F900FBEA0
:101C10000F901F9018951F920F920FB60F921124DC
:101C20000BB60F922F938F939F93EF93FF93E091B7
:101C30001504F09116048081E0911B04F0911C04BE
:101C400082FD1DC0908180911E048F5F8F73209153
:101C50001F04821741F0E0911E04F0E0EB5FFB4FA0
:101C6000958F80931E04FF91EF919F918F912F91FB
:101C70000F900BBE0F900FBE0F901F901895808194
:101C8000F2CF1F920F920FB60F9211242F933F9312
:101C90008F939F93AF93BF938091F9039091FA0331
:101CA000A091FB03B091FC033091F80323E0230FD4
:101CB0002D3758F50196A11DB11D2093F80380938F
:101CC000F9039093FA03A093FB03B093FC03809174
:101CD000F4039091F503A091F603B091F7030196F8
:101CE000A11DB11D8093F4039093F503A093F60317
:101CF000B093F703BF91AF919F918F913F912F9137
:101D00000F900FBE0F901F90189526E8230F029694
:101D1000A11DB11DD2CF109208041092070488EEC5
:101D200093E0A0E0B0E08093090490930A04A093AC
:101D30000B04B0930C048AE492E090930604809321
:101D4000050485EC90E0909312048093110484ECD8
:101D500090E0909314048093130480EC90E09093AF
:101D600016048093150481EC90E0909318048093FE
:101D7000170482EC90E090931A048093190486EC87
:101D800090E090931C0480931B0410921E04109208
:101D90001F0410922004109221048EE792E0909389
:101DA0006F0980936E091092700910927109109258
:101DB0007209109273098FEA93E0909365098093FA
:101DC00064098EE699E09093670980936609109202
:101DD0006D0910926C0988E692E09093B3048093A9
:101DE000B20485E094E09093B5048093B40480E05D
:101DF00091EEA0E0B0E08093B6049093B704A09376
:101E0000B804B093B904109238098CE592E090932D
:101E100047098093460910925C0910925D0910925F
:101E20005E0910925F091092630910926209EAEC50
:101E3000F8E01192119288E0EC3FF807D1F7ECEF4F
:101E4000F8E01192119289E0EE32F807D1F7EAEC4E
:101E5000F4E08AEC96E011928E179F07E1F7EAEC26
:101E6000F6E0119288E0EA3CF807D9F710924809A9
:101E70001092490910924A0910924B091092510987
:101E8000109250091092520910925309109254095D
:101E90001092550910925B0910925A091092C604CB
:101EA0001092C7041092C8041092C90482E792E00D
:101EB0009093A3048093A2048EE792E09093A904E8
:101EC0008093A8041092AA041092AB041092AC0460
:101ED0001092AD048CE394E09093AF048093AE0431
:101EE00081E090E09093B1048093B00489EC93E09A
:101EF0009093A7048093A6040895789484B5826093
:101F000084BD84B5816084BD85B5826085BD85B59D
:101F1000816085BD80916E00816080936E0010921B
:101F20008100809181008260809381008091810096
:101F30008160809381008091800081608093800027
:101F40008091B10084608093B1008091B000816085
:101F50008093B00080919100826080939100809185
:101F600091008160809391008091900081608093C6
:101F700090008091A10082608093A1008091A100D7
:101F800081608093A1008091A00081608093A00077
:101F900080912101826080932101809121018160E3
:101FA00080932101809120018160809320018091A4
:101FB0007A00846080937A0080917A0082608093B6
:101FC0007A0080917A00816080937A0080917A0013
:101FD000806880937A001092C10082E00E942801FC
:101FE00083E00E942801C091B404D091B504C09050
:101FF000B604D090B704E090B804F090B90460E063
:1020000079E08DE390E0A70196013BD221503109A0
:10201000410951095695479537952795E889F989DA
:1020200082E08083C11481EED806E104F10421F03E
:10203000211580E1380790F0E889F989108260E87D
:1020400074E88EE190E0A70196011BD2215031097E
:10205000410951095695479537952795EC85FD859A
:102060003083EE85FF852083188EEC89FD8986E01C
:102070008083EA89FB89808180618083EA89FB898A
:10208000808188608083EA89FB8980818068808381
:10209000EA89FB8980818F7D808310922F091092BD
:1020A0002E091092310910923009109235091092C0
:1020B00034091092330910923209ECEFF8E090E005
:1020C00080E021913191232B09F060C0FC01EE0FDB
:1020D000FF1FE450F74F22EA34E0318320838C590C
:1020E0009F4F9093A5048093A404EAECF8E090E05D
:1020F00080E021913191232B09F04EC0FC01EE0FBD
:10210000FF1FE653F74F24E639E0318320838358DD
:102110009F4F909369098093680982EB94E09093B4
:102120006B0980936A090E941303C090FD03D0904D
:10213000FE03E090FF03F0900004A7019601609178
:10214000010470910204809103049091040495D0DD
:102150004B015C012AE037ED43E25CE36CD11816D9
:102160000CF520ED3FE049E450E4C501B401EAD0AC
:1021700087FF2AC090E080E00E94030326EF3DEA3B
:1021800040E05CE3C701B60179D029C001968931EE
:10219000910509F096CFA9CF01968931910509F0F3
:1021A000A8CFC1CF2AE037ED43E25CEBC501B40113
:1021B000C9D087FF1CC020ED3FE049E450ECC501C9
:1021C000B40139D11816B4F681E090E00E940303FF
:1021D00026EF3DEA40E05CE3C701B6014ED06093D4
:1021E000FD037093FE038093FF0390930004C0905F
:1021F000FD03D090FE03E090FF03F090000420ED7B
:102200003FE049EC50E4C701B60115D187FD0FC08E
:1022100020ED3FE049EC50E4C701B6012ED06093B9
:10222000FD037093FE038093FF0390930004C0901E
:10223000FD03D090FE03E090FF03F090000420E047
:1022400030E0A901C701B6017DD087FF0FC020EDA6
:102250003FE049EC50E4C701B60110D06093FD03A4
:102260007093FE038093FF039093000482EB94E04D
:102270000E94FB080E94470256CF5058BB27AA274E
:102280000ED09FC090D030F095D020F031F49F3F19
:1022900011F41EF485C00EF4E095E7FB7BC0E92F36
:1022A000A1D080F3BA17620773078407950718F067
:1022B00071F49EF5B9C00EF4E0950B2EBA2FA02D47
:1022C0000B01B90190010C01CA01A0011124FF27E3
:1022D000591B99F0593F50F4503E68F11A16F040DE
:1022E000A22F232F342F4427585FF3CF46953795DD
:1022F0002795A795F0405395C9F77EF41F16BA0BA2
:10230000620B730B840BBAF09150A1F0FF0FBB1F4F
:10231000661F771F881FC2F70EC0BA0F621F731F98
:10232000841F48F4879577956795B795F7959E3FF5
:1023300008F0B3CF9395880F08F09927EE0F979583
:102340008795089503D008F481E00895990F000857
:10235000550FAA0BE0E8FEEF16161706E807F90777
:10236000C0F012161306E407F50798F0621B730B12
:10237000840B950B39F40A2661F0232B242B252B93
:1023800021F408950A2609F4A140A6958FEF811D36
:10239000811D089597F99F6780E870E060E00895D7
:1023A0009FEF80EC089500240A941616170618066D
:1023B0000906089500240A94121613061406050649
:1023C0000895092E0394000C11F4882352F0BB0FDA
:1023D00040F4BF2B11F460FF04C06F5F7F4F8F4F3D
:1023E0009F4F089557FD9058440F551F59F05F3F78
:1023F00071F04795880F97FB991F61F09F3F79F027
:1024000087950895121613061406551FF2CF4695A8
:10241000F1DF08C0161617061806991FF1CF86952A
:102420007105610508940895E894BB27662777270E
:10243000CB0197F908958ADF08F48FEF0895DB0147
:102440008F939F9348D0BF91AF91A29F800D911D14
:10245000A39F900DB29F900D1124089597FB072E16
:1024600016F4009406D077FD08D03FD007FC05D0C5
:102470003EF4909581959F4F0895709561957F4F9B
:102480000895A1E21A2EAA1BBB1BFD010DC0AA1FB5
:10249000BB1FEE1FFF1FA217B307E407F50720F0CD
:1024A000A21BB30BE40BF50B661F771F881F991F48
:1024B0001A9469F760957095809590959B01AC0191
:1024C000BD01CF010895EE0FFF1F881F8BBF07903E
:1024D000F691E02D19941DD0A59F900DB49F900DFD
:1024E000A49F800D911D11240895AA1BBB1B51E1CF
:1024F00007C0AA1FBB1FA617B70710F0A61BB70B74
:10250000881F991F5A95A9F780959095BC01CD0118
:102510000895A29FB001B39FC001A39F700D811DBC
:102520001124911DB29F700D811D1124911D0895DC
:102530004F925F926F927F928F929F92AF92BF92D3
:10254000CF92DF92EF92FF920F931F93CF93DF937F
:102550008C01009791F4CB01DF91CF911F910F91E6
:10256000FF90EF90DF90CF90BF90AF909F908F90B3
:102570007F906F905F904F90C0C0FC01E60FF71FF7
:102580009C0122503109E217F30708F4AAC0D901CF
:10259000CD91DC911197C617D70718F1C530D10539
:1025A00070F0CE0104978617970748F0C61BD70B2B
:1025B0002297C193D1936D937C93CF013AD1C801F7
:1025C000DF91CF911F910F91FF90EF90DF90CF900F
:1025D000BF90AF909F908F907F906F905F904F9043
:1025E00008955B01AC1ABD0A4C018C0E9D1EA09192
:1025F0007609B0917709512C412CF12CE12C1097E0
:1026000031F580917409909175098815990509F043
:102610005CC04616570608F058C0809100029091A1
:102620000102009741F48DB79EB74091040250918A
:102630000502841B950BE817F90708F052C0F093C8
:102640007509E0937409F90171836083B8CF8D91A6
:102650009C91119712966C90129713967C901397F9
:10266000A815B90559F56C0142E0C40ED11CCA1475
:10267000DB0420F1AC014A195B09DA0112961597C7
:1026800080F06282738251834083D9016D937C9381
:10269000E114F10471F0D7011396FC93EE931297B5
:1026A0008ECF22968C0F9D1FF90191838083F301B9
:1026B000EFCFF0937709E093760981CF481659065A
:1026C00008F42C017D01D3019ACFCB0116D07C01F7
:1026D000009739F0AE01B80107D0C801AAD0870130
:1026E0006ECF10E000E06BCFFB01DC0102C0019077
:1026F0000D9241505040D8F708950F931F93CF93F8
:10270000DF938230910510F482E090E0E091760949
:10271000F091770930E020E0B0E0A0E0309799F444
:102720002115310509F44AC0281B390B2430310525
:10273000D8F58A819B816115710589F1FB0193832D
:102740008283FE0111C040815181028113814817AB
:102750005907E0F04817590799F4109761F012965D
:102760000C93129713961C933296CF01DF91CF9161
:102770001F910F9108950093760910937709F4CF74
:102780002115310551F04217530738F0A901DB013B
:102790009A01BD01DF01F801C1CFEF01F9CF90939C
:1027A000770980937609CDCFFE01E20FF31F819365
:1027B00091932250310939832883D7CF209174090E
:1027C00030917509232B41F42091020230910302CC
:1027D0003093750920937409209100023091010211
:1027E0002115310541F42DB73EB7409104025091B7
:1027F0000502241B350BE0917409F0917509E2176D
:10280000F307A0F42E1B3F0B2817390778F0AC0113
:102810004E5F5F4F2417350748F04E0F5F1F5093F0
:10282000750940937409819391939FCFF0E0E0E0A4
:102830009CCFCF93DF930097E9F0FC01329713828E
:102840001282A0917609B0917709ED0130E020E085
:102850001097A1F420813181820F931F2091740978
:10286000309175092817390709F061C0F09375098F
:10287000E0937409DF91CF910895EA01CE17DF0745
:10288000E8F54A815B819E0141155105B1F7E901E7
:10289000FB83EA8349915991C40FD51FEC17FD07BB
:1028A00061F4808191810296840F951FE9019983DB
:1028B0008883828193819B838A83F0E0E0E0129693
:1028C0008D919C9113970097B9F52D913C9111979B
:1028D000CD010296820F931F2091740930917509E2
:1028E0002817390739F6309751F510927709109269
:1028F0007609B0937509A0937409BCCFD383C283C2
:1029000040815181840F951FC817D90761F44E5F2C
:102910005F4F88819981480F591F518340838A8175
:102920009B81938382832115310509F0B0CFF09309
:102930007709E09376099ECFFD01DC01C0CF1382B9
:082940001282D7CFF894FFCFFB
:10294800000078098000726F7373657269616C5F4B
:102958006D7367732F526571756573745061726119
:102968006D00000000005D0D1B061806150600002E
:10297800000055070F070C070907000000002E0D7F
:10298800C005BD05BA0500000000DC01470174015F
:102998002802A50183019701000000004C0C79076B
:1029A800B705B405000000002E03FB081F03000054
:1029B800000023052A03270324030000000036052E
:1029C8006804270324036664623238323130626651
:1029D800613964376339313134363236303137381A
:1029E800643961353834007374645F6D7367732FAD
:1029F800466C6F61743634004D657373616765208A
:102A080066726F6D206465766963652064726F70A5
:102A18007065643A206D657373616765206C6172D7
:102A2800676572207468616E206275666665722ECD
:102A3800003966306539386264613635393831397C
:102A480038366464663533616661376134306534BD
:102A580039003131616264373331633235393333A8
:102A68003236316364363138336264313264363237
:102A7800393500726F7373657269616C5F6D736766
:102A8800732F4C6F67003061643531663838666380
:102A98003434383932663863313036383430373781
:102AA80036343630303500726F7373657269616C15
:102AB8005F6D7367732F546F706963496E666F003B
:102AC80063643731363663373463353532633331CF
:102AD80031666263633266653561376263323839FD
:102AE800007374645F6D7367732F54696D65002F8D
:102AF8004152332F6A6F696E74312F637572726534
:102B08006E745F616E676C65002F7272626F742FEE
:102B18006A6F696E74315F706F736974696F6E5F25
:102B2800636F6E74726F6C6C65722F636F6D6D611D
:042B38006E640000C7
:020000023000CC
:10E000000D9489F10D94B2F10D94B2F10D94B2F129
:10E010000D94B2F10D94B2F10D94B2F10D94B2F1F0
:10E020000D94B2F10D94B2F10D94B2F10D94B2F1E0
:10E030000D94B2F10D94B2F10D94B2F10D94B2F1D0
:10E040000D94B2F10D94B2F10D94B2F10D94B2F1C0
:10E050000D94B2F10D94B2F10D94B2F10D94B2F1B0
:10E060000D94B2F10D94B2F10D94B2F10D94B2F1A0
:10E070000D94B2F10D94B2F10D94B2F10D94B2F190
:10E080000D94B2F10D94B2F10D94B2F10D94B2F180
:10E090000D94B2F10D94B2F10D94B2F10D94B2F170
:10E0A0000D94B2F10D94B2F10D94B2F10D94B2F160
:10E0B0000D94B2F10D94B2F10D94B2F10D94B2F150
:10E0C0000D94B2F10D94B2F10D94B2F10D94B2F140
:10E0D0000D94B2F10D94B2F10D94B2F10D94B2F130
:10E0E0000D94B2F141546D656761323536300041AF
:10E0F000726475696E6F206578706C6F72657220DE
:10E1000073746B3530305632206279204D4C530099
:10E11000426F6F746C6F616465723E004875683F52
:10E1200000436F6D70696C6564206F6E203D200048
:10E130004350552054797065202020203D20005FF9
:10E140005F4156525F415243485F5F3D2000415658
:10E1500052204C696243205665723D20004743437C
:10E160002056657273696F6E203D20004350552024
:10E1700049442020202020203D20004C6F7720663D
:10E18000757365202020203D20004869676820665F
:10E190007573652020203D200045787420667573D6
:10E1A00065202020203D20004C6F636B2066757336
:10E1B000652020203D20004D617220203720323024
:10E1C000313300312E362E3800342E332E350056A2
:10E1D00023202020414444522020206F7020636F70
:10E1E00064652020202020696E73747275637469E1
:10E1F0006F6E2061646472202020496E74657272B3
:10E20000757074006E6F20766563746F7200726A49
:10E210006D702020006A6D70200057686174207056
:10E220006F72743A00506F7274206E6F7420737541
:10E2300070706F72746564004D7573742062652030
:10E2400061206C6574746572002000577269747483
:10E25000696E672045450052656164696E672045B7
:10E26000450045452065727220636E743D00504F35
:10E27000525400303D5A65726F2061646472003FF1
:10E280003D43505520737461747300403D454550C3
:10E29000524F4D207465737400423D426C696E6B41
:10E2A000204C454400453D44756D70204545505215
:10E2B0004F4D00463D44756D7020464C415348001B
:10E2C000483D48656C70004C3D4C69737420492F83
:10E2D0004F20506F72747300513D51756974005234
:10E2E0003D44756D702052414D00563D73686F7707
:10E2F00020696E7465727275707420566563746FF0
:10E30000727300593D506F727420626C696E6B00BD
:10E310002A0011241FBECFEFD1E2DEBFCDBF01E046
:10E320000CBF12E0A0E0B2E0EEE1FDEF03E00BBFB6
:10E3300002C007900D92A030B107D9F712E0A0E01B
:10E34000B2E001C01D92AE30B107E1F70F9460F367
:10E350000D948DFE01E20EBF0FEF0DBF11241FBE05
:10E360000D9460F30D9400F020E030E040ED57E0B4
:10E3700005C0FA013197F1F72F5F3F4F2817390792
:10E38000C0F308959C01260F311DC901A0E0B0E043
:10E390002F5F3F4FABBFFC018791882361F08093D3
:10E3A000C6008091C00086FFFCCF8091C0008064D1
:10E3B0008093C000EACF08958DE08093C6008091DD
:10E3C000C00086FFFCCF8091C00080648093C000B5
:10E3D0008AE08093C6008091C00086FFFCCF8091C8
:10E3E000C00080648093C00008950F94C2F10F9420
:10E3F000DCF10895FC019081992359F09093C600B7
:10E400008091C00086FFFCCF8091C0008064809323
:10E41000C0003196992379F70895282F982F929567
:10E420009F70892F805D8A3308F0895F8093C600D2
:10E430008091C00086FFFCCF8091C00080648093F3
:10E44000C000822F8F70982F905D9A3308F0995FEB
:10E450009093C6008091C00086FFFCCF8091C000E1
:10E4600080648093C00008959C01FB01853691056E
:10E470001CF46330710594F0C90164E670E00F94F8
:10E480002EFE605D7F4F6093C6008091C00086FFC6
:10E49000FCCF8091C00080648093C0002B30310598
:10E4A00014F43297B4F0C90164E670E00F942EFEC4
:10E4B0006AE070E00F942EFE605D7F4F6093C600AF
:10E4C0008091C00086FFFCCF8091C0008064809363
:10E4D000C000C9016AE070E00F942EFEC0968093E0
:10E4E000C6008091C00086FFFCCF8091C000806490
:10E4F0008093C00008951F93182F8EE692EE60E07F
:10E500000F94C2F11093C6008091C00086FFFCCF2B
:10E510008091C00080648093C0000F94DCF11F9153
:10E5200008952F923F924F925F926F927F928F92B7
:10E530009F92AF92BF92CF92DF92EF92FF920F9392
:10E540001F93DF93CF93CDB7DEB762970FB6F894E2
:10E55000DEBF0FBECDBF382E622ECA01DB015C01CB
:10E560006D01772420E2222E2E010894411C511CBB
:10E570008BC081E0A81680E0B80681E0C80680E084
:10E58000D80628F0C601AA27BB270F940DF2BB2797
:10E59000AD2D9C2D8B2D0F940DF28A2D0F940DF225
:10E5A0002092C6008091C00086FFFCCF8091C00001
:10E5B00080648093C0009DE29093C6008091C0006B
:10E5C00086FFFCCF8091C00080648093C0002092C1
:10E5D000C6008091C00086FFFCCF8091C00080649F
:10E5E0008093C00019828601750188249924A1E0D6
:10E5F0003A1651F03A1620F0B2E03B1661F409C029
:10E600000BBFF701779007C0C7010F9477FE782EF4
:10E6100002C0F7017080872D0F940DF22092C60082
:10E620008091C00086FFFCCF8091C0008064809301
:10E63000C000872D8052F401EF70F0708F3520F408
:10E64000E40DF51D708204C0E40DF51D8EE280839B
:10E650000894E11CF11C011D111D0894811C911CE2
:10E6600090E18916910409F0C2CF80E190E0A0E02A
:10E67000B0E0A80EB91ECA1EDB1E198AC2010F9493
:10E68000FAF10F94DCF16A94662009F072CF629679
:10E690000FB6F894DEBF0FBECDBFCF91DF911F91B3
:10E6A0000F91FF90EF90DF90CF90BF90AF909F9031
:10E6B0008F907F906F905F904F903F902F90089534
:10E6C0002F923F924F925F926F927F928F929F9282
:10E6D000AF92BF92CF92DF92EF92FF920F931F9370
:10E6E000DF93CF93CDB7DEB7CD53D1400FB6F894BB
:10E6F000DEBF0FBECDBF01E20EBF0FEF0DBF94B75F
:10E70000F894A89514BE80916000886180936000A1
:10E7100010926000789493FF05C0E0910002F091A0
:10E7200001021995279A2F9A8091C00082608093E8
:10E73000C00080E18093C40088E18093C1000000A4
:10E74000EE24FF24870144E0A42EB12CCC24DD2448
:10E7500024C0C5010197F1F70894E11CF11C011DCB
:10E76000111D21E2E2162EE4F20620E0020720E06D
:10E77000120718F031E0C32ED12CC801B70127ECE5
:10E780003BE140E050E00F9441FE611571058105C9
:10E79000910519F485B1805885B98091C00087FD35
:10E7A00003C0C114D104A9F2A6014F5F5F4FC25E3E
:10E7B000DE4F59834883CE51D140C25EDE4F8881FF
:10E7C0009981CE51D140019711F00D9410FEC05D9A
:10E7D000DE4F19821882C053D14060E0C15DDE4F28
:10E7E0001882CF52D14088249924C35DDE4F19820C
:10E7F0001882CD52D140C05EDE4F188219821A8233
:10E800001B82C052D140CE5CDE4F188219821A8220
:10E810001B82C253D140EE24FF2487010BBFF701B6
:10E8200007911691C45CDE4F19830883CC53D14005
:10E830000D940BFEC25EDE4F28813981CE51D1404E
:10E840002130310509F52091C600C25EDE4F1982E4
:10E850001882CE51D14022C02F5F3F4F4F4F5F4FA4
:10E86000213082E138078AE7480780E0580780F0C6
:10E87000C45CDE4FE881F981CC53D140EF5FFF4F9C
:10E8800019F0EE27FF27099420E030E040E050E047
:10E890008091C00087FFE0CF2091C600C35DDE4FAE
:10E8A00048815981CD52D1404F5F5F4FC35DDE4FEC
:10E8B00059834883CD52D140213209F063C64A3092
:10E8C000510508F05FC60894811C911C53E0851621
:10E8D000910409F059C600E010E018C081E280936D
:10E8E000C6008091C00086FFFCCF8091C00080648C
:10E8F0008093C0002F5F3F4F2931310579F70F9486
:10E90000DCF10F5F1F4F0530110519F020E030E0FA
:10E91000E5CF10920A0210920B0210920C02109294
:10E920000D02109206021092070210920802109235
:10E930000902109202021092030210920402109235
:10E9400005028FEE90EE60E00F94F5F180E191EE1C
:10E9500060E00F94C2F18091C00087FFFCCF9091DE
:10E96000C600903608F09F759032B8F09093C600BC
:10E970008091C00086FFFCCF8091C00080648093AE
:10E98000C000A0E2A093C6008091C00086FFFCCF2B
:10E990008091C00080648093C000983409F4D7C18E
:10E9A0009934B8F4923409F459C1933458F490333B
:10E9B00019F1903308F4E3C59F33A1F1903409F0C5
:10E9C000DEC5BDC0953409F470C1963409F0D7C5D1
:10E9D00098C1923509F42BC2933538F49C3409F46C
:10E9E000F5C1913509F0CBC518C2963509F445C279
:10E9F000993509F0C4C567C483E792EE62E00F94CD
:10EA0000F5F110920602109207021092080210927D
:10EA1000090210920A0210920B0210920C0210923C
:10EA20000D0213C18FE792EE62E00F94F5F18FEEC5
:10EA300090EE60E00F94F5F181E291EE60E00F94CA
:10EA4000C2F187EB91EE60E00F94F5F180E391EE77
:10EA500060E00F94C2F184EE90EE60E00F94F5F167
:10EA60008FE391EE60E00F94C2F186E090E061E008
:10EA700070E00F9434F20F94DCF18DE591EE60E0DC
:10EA80000F94C2F189EC91EE60E00F94F5F18EE401
:10EA900091EE60E00F94C2F183EC91EE60E00F9490
:10EAA000F5F18CE691EE60E00F94C2F18EE10F94E7
:10EAB0000DF288E90F940DF281E00F940DF20F949E
:10EAC000DCF18BE791EE60E00F94C2F119E0E0E039
:10EAD000F0E010935700E4918E2F0F940DF20F94F5
:10EAE000DCF18AE891EE60E00F94C2F1E3E0F0E03F
:10EAF00010935700E4918E2F0F940DF20F94DCF1D8
:10EB000089E991EE60E00F94C2F1E2E0F0E0109349
:10EB10005700E4918E2F0F940DF20F94DCF188EAE8
:10EB200091EE60E00F94C2F1E1E0F0E01093570045
:10EB30001491812F0F940DF20F94DCF107CF8BE825
:10EB400092EE62E00F94F5F18BE492EE60E00F94A8
:10EB5000F5F10F94DCF100E010E019C0C8016F2D51
:10EB60000F947FFEFF2031F489E492EE60E00F9471
:10EB7000C2F10BC0F092C6008091C00086FFFCCFAE
:10EB80008091C00080648093C0000F5F1F4FC80158
:10EB900081519F41A0E0B0E0ABBFFC01F790BAE229
:10EBA000FB1621F0E2E000301E07C1F60F94DCF105
:10EBB0000F94DCF187E592EE60E00F94F5F10F948D
:10EBC000DCF1CC24DD2400E010E01EC0C8010F946D
:10EBD00077FEF82E882331F489E492EE60E00F94FA
:10EBE000C2F10BC08093C6008091C00086FFFCCFAD
:10EBF0008091C00080648093C000FE1419F00894D6
:10EC0000C11CD11C0F5F1F4FC80181519F41A0E063
:10EC1000B0E0ABBFFC01E790FAE2EF1621F022E092
:10EC20000030120799F60F94DCF10F94DCF182E6C4
:10EC300092EE60E00F94C2F1C60161E070E00F94C3
:10EC400034F20F94DCF10F94DCF110920202109276
:10EC50000302109204021092050278CE89E992EE26
:10EC600062E00F94F5F1279A2F9A16C02F9880E052
:10EC700090E0E0EDF7E03197F1F7019684369105E9
:10EC8000C1F72F9A80E090E0E0EDF7E03197F1F7DF
:10EC9000019684369105C1F78091C00087FFE6CFC9
:10ECA0008091C00087FFFCCF64C485EA92EE62E0E9
:10ECB0000F94F5F140910202509103026091040219
:10ECC0007091050281E020E10F9491F2809102029F
:10ECD00090910302A0910402B091050280509F4FD1
:10ECE000AF4FBF4F8093020290930302A0930402A0
:10ECF000B093050280509041A040B04008F426CE69
:10ED0000A4CF83EB92EE62E00F94F5F140910602FE
:10ED100050910702609108027091090280E020E1A1
:10ED20000F9491F28091060290910702A09108023F
:10ED3000B091090280509F4FAF4FBF4F80930602A2
:10ED400090930702A0930802B0930902FFCD80ECD4
:10ED500092EE62E00F94F5F183E792EE60E00F949B
:10ED6000F5F18FE792EE60E00F94F5F18BE892EE0B
:10ED700060E00F94F5F189E992EE60E00F94F5F10F
:10ED800085EA92EE60E00F94F5F183EB92EE60E09D
:10ED90000F94F5F180EC92EE60E00F94F5F187ECC2
:10EDA00092EE60E00F94F5F188ED92EE60E00F9442
:10EDB000F5F18FED92EE60E00F94F5F18AEE92EEB0
:10EDC00060E00F94F5F183E093EEBDCD87EC92EE19
:10EDD00062E00F94F5F181E40F947BF282E40F94EA
:10EDE0007BF283E40F947BF284E40F947BF285E45E
:10EDF0000F947BF286E40F947BF287E40F947BF20E
:10EE000088E40F947BF28AE40F947BF28BE40F94F6
:10EE10007BF28CE40F947BF299CD88ED92EE62E068
:10EE20000F94F5F1772473948824992409C48FED05
:10EE300092EE62E00F94F5F140910A0250910B02BC
:10EE400060910C0270910D0282E020E10F9491F22A
:10EE500080910A0290910B02A0910C02B0910D02D8
:10EE600080509F4FAF4FBF4F80930A0290930B0289
:10EE7000A0930C02B0930D0269CD8AEE92EE62E08F
:10EE80000F94F5F184EE90EE60E00F94F5F18FECC5
:10EE900091EE60E00F94F5F1662477244301CC5D98
:10EEA000DE4F19821882C452D140D401C301B695F5
:10EEB000A79597958795CA5DDE4F88839983AA8326
:10EEC000BB83C652D140CC5DDE4FA881B981C4520C
:10EED000D1401196CC5DDE4FB983A883C452D14096
:10EEE000CD0162E070E00F9434F2B0E2B093C6005E
:10EEF0008091C00086FFFCCF8091C0008064809329
:10EF0000C000EDE2E093C6008091C00086FFFCCF18
:10EF10008091C00080648093C000F0E2F093C6004E
:10EF20008091C00086FFFCCF8091C00080648093F8
:10EF3000C000CA5DDE4FE880F9800A811B81C6529D
:10EF4000D140BB27A12F902F8F2D0F940DF2CA5DBA
:10EF5000DE4F8881C652D1400F940DF2B0E2FB2EF5
:10EF6000F092C6008091C00086FFFCCF8091C00067
:10EF700080648093C0000DE30093C6008091C000C0
:10EF800086FFFCCF8091C00080648093C00010E2B7
:10EF90001093C6008091C00086FFFCCF8091C00016
:10EFA00080648093C0008BBEF3012791C65DDE4F65
:10EFB0002883CA52D140A22EBB24CC24DD2408943D
:10EFC000611C711C811C911C8BBEF3018791282E42
:10EFD0003324442455240894611C711C811C911C09
:10EFE0008BBEF3013791C55DDE4F3883CB52D140E4
:10EFF0000894611C711C811C911C8BBEF30147910C
:10F00000C45DDE4F4883CC52D140ADEFEA2EAFEF66
:10F01000FA2EAFEF0A2FAFEF1A2F6E0C7F1C801E57
:10F02000911E142D032DF22CEE24EA0CFB1C0C1D5A
:10F030001D1D0F940DF220E22093C6008091C000A8
:10F0400086FFFCCF8091C00080648093C000C65DC5
:10F05000DE4F8881CA52D1400F940DF230E23093D6
:10F06000C6008091C00086FFFCCF8091C000806404
:10F070008093C000C45DDE4F8881CC52D1400F9494
:10F080000DF240E24093C6008091C00086FFFCCFA5
:10F090008091C00080648093C000C55DDE4F888190
:10F0A000CB52D1400F940DF250E25093C6008091A4
:10F0B000C00086FFFCCF8091C00080648093C000B8
:10F0C0008FEFE8168FEFF80680E0080780E018075A
:10F0D00031F484E092EE60E00F94C2F1DFC0D80119
:10F0E000C7018070907CA070B0708050904CA040A0
:10F0F000B040D1F52FEF3FE340E050E0E222F322B1
:10F1000004231523CA5DDE4FA880B980CA80DB8046
:10F11000C652D140AE0CBF1CC01ED11EAA0CBB1CD7
:10F12000CC1CDD1C8EE092EE60E00F94C2F1BB2798
:10F13000A12F902F8F2D0F940DF28E2D0F940DF285
:10F1400030E23093C6008091C00086FFFCCF8091F2
:10F15000C00080648093C0004EE34093C60080915D
:10F16000C00086FFFCCF87C08EE09EEFA0E0B0E03D
:10F17000E822F9220A231B239CE0E91694E9F90608
:10F1800090E0090790E0190709F088C0C45DDE4FE0
:10F19000A881CC52D140EA2EFF2400E010E0102FCD
:10F1A0000F2DFE2CEE24C55DDE4FB881CB52D14031
:10F1B000EB0EF11C011D111DD601C501817090706F
:10F1C000A070B070DC0199278827E80EF91E0A1F8D
:10F1D0001B1F20EF30E040E050E0A222B322C42207
:10F1E000D52241E1AA0CBB1CCC1CDD1C4A95D1F7F1
:10F1F000EA0CFB1C0C1D1D1D81E090E0A0E0B0E0BE
:10F20000282239224A225B2235E1220C331C441C7D
:10F21000551C3A95D1F7E20CF31C041D151D57013E
:10F220006801AA0CBB1CCC1CDD1C85E192EE60E0E1
:10F230000F94C2F1C801AA27BB270F940DF2BB2778
:10F24000A12F902F8F2D0F940DF28E2D0F940DF274
:10F2500090E29093C6008091C00086FFFCCF809121
:10F26000C00080648093C000AEE3A093C60080918C
:10F27000C00086FFFCCF8091C00080648093C000F6
:10F28000C601AA27BB270F940DF2BB27AD2D9C2DDD
:10F290008B2D0F940DF28A2D0F940DF20F94DCF14B
:10F2A000CC5DDE4FE881F981C452D140F99709F471
:10F2B0004DCBF4E0EF2EF12C012D112D6E0C7F1CA7
:10F2C000801E911EF2CD83E093EE62E00F94F5F183
:10F2D0008AE192EE60E00F94C2F18091C00087FF56
:10F2E000FCCF1091C6001F751093C6008091C0001E
:10F2F00086FFFCCF8091C00080648093C0000F9493
:10F30000DCF1812F81548A3108F036C1163409F4BA
:10F3100095C0173490F4133409F44EC0143430F40B
:10F320001134F1F0123409F01DC130C0143409F465
:10F3300059C0153409F016C16BC01A3409F4C4C0A1
:10F340001B3438F4173409F48FC0183409F00AC19B
:10F35000A1C01B3409F4D2C01C3409F003C1E8C0B9
:10F360008FEF81B90DC082B1809582B980E090E0C5
:10F37000E0EDF7E03197F1F70196883C9105C1F790
:10F380008091C00087FFEFCF12B8EFC08FEF84B934
:10F390000DC085B1809585B980E090E0E0EDF7E0A3
:10F3A0003197F1F70196883C9105C1F78091C00033
:10F3B00087FFEFCF15B8D9C08FEF87B90DC088B1DF
:10F3C000809588B980E090E0E0EDF7E03197F1F7C3
:10F3D0000196883C9105C1F78091C00087FFEFCF6F
:10F3E00018B8C3C08FEF8AB90DC08BB180958BB9A7
:10F3F00080E090E0E0EDF7E03197F1F70196883C8E
:10F400009105C1F78091C00087FFEFCF1BB8ADC059
:10F410008FEF8DB90DC08EB180958EB980E090E0F0
:10F42000E0EDF7E03197F1F70196883C9105C1F7DF
:10F430008091C00087FFEFCF1EB897C08FEF80BBD1
:10F440000DC081B3809581BB80E090E0E0EDF7E0F6
:10F450003197F1F70196883C9105C1F78091C00082
:10F4600087FFEFCF11BA81C08FEF83BB0DC084B38C
:10F47000809584BB80E090E0E0EDF7E03197F1F714
:10F480000196883C9105C1F78091C00087FFEFCFBE
:10F4900014BA6BC08FEF809301010FC080910201FD
:10F4A00080958093020180E090E0E0EDF7E03197F5
:10F4B000F1F70196883C9105C1F78091C00087FF64
:10F4C000EDCF1092020151C08FEF809304010FC065
:10F4D0008091050180958093050180E090E0E0ED4A
:10F4E000F7E03197F1F70196883C9105C1F78091DB
:10F4F000C00087FFEDCF1092050137C08FEF8093DA
:10F5000007010FC08091080180958093080180E079
:10F5100090E0E0EDF7E03197F1F70196883C910536
:10F52000C1F78091C00087FFEDCF109208011DC088
:10F530008FEF80930A010FC080910B01809580931B
:10F540000B0180E090E0E0EDF7E03197F1F70196F4
:10F55000883C9105C1F78091C00087FFEDCF1092E4
:10F560000B0103C085E292EEEEC98091C00087FFD7
:10F57000FCCF8091C600EAC988E392EEE4C98CE131
:10F5800091EEE1C988249924933011F1943028F444
:10F59000913089F09230B8F408C0953061F195301F
:10F5A000F0F0963009F048C043C02B3109F042C951
:10F5B00091E06BE13FC96227C15DDE4F2883CF52E6
:10F5C000D14092E037C9B22FA0E0622793E032C960
:10F5D000822F90E0A82BB92B622794E02BC92E3004
:10F5E00009F039C3622795E0C05DDE4F19821882A9
:10F5F000C053D1401FC9E1E0F0E0EC0FFD1FC05D3A
:10F60000DE4F08811981C053D140E00FF11F2083E4
:10F610000F5F1F4FC05DDE4F19830883C053D14079
:10F6200062270A171B0709F005C9D80196E002C92D
:10F63000261709F010C303C0973009F0FBC87724E0
:10F640009981933109F412C19431C8F4963009F4C8
:10F65000D8C0973050F4923009F406C1933009F4C1
:10F660006DC0913009F059C253C0913109F477C08F
:10F67000923108F0BBC0903109F04FC2F5C098310B
:10F6800009F487C0993150F4953109F4EFC09531F0
:10F6900008F4C6C1963109F040C2C2C19A3109F4DA
:10F6A0006CC09A3108F491C09B3109F45BC09D3164
:10F6B00009F033C29D81903359F48F81882311F46E
:10F6C0009EE11CC0813011F091E018C098E916C08D
:10F6D000892F807591F0903539F4E0E0F0E089E011
:10F6E0008093570094910AC0983539F4E3E0F0E034
:10F6F00089E080935700949101C090E01A821B82A8
:10F700008D818C831D829E831F8227E030E009C299
:10F710001A8288E08B8381E48C8386E58D8382E581
:10F720008E8389E48F8383E5888780E589878FE5E9
:10F730008A8782E38B872BE030E0F3C18A818139AD
:10F7400041F0823941F0803911F48FE005C080E04A
:10F7500003C082E001C08AE01A828B8344C0772410
:10F76000739482C08D81882311F48EE12CC0813086
:10F7700011F081E028C088E926C01A82E1E0F0E0BB
:10F7800089E08093570084918B831C8224E030E0D1
:10F79000C8C18B81803589F48C81883039F4E2E0EE
:10F7A000F0E089E08093570084910DC0E0E0F0E044
:10F7B00089E080935700849106C0E3E0F0E089E09F
:10F7C0008093570084911A82DFCF8D81836C99E0FA
:10F7D000E1E0F0E0082E90935700E89507B600FCB2
:10F7E000FDCF1A821B8223E030E09BC180EC8A832C
:10F7F000CE5CDE4F188219821A821B82C253D1401E
:10F800008EC18A8190E0A0E0B0E0582F44273327D2
:10F8100022278B8190E0A0E0B0E0DC0199278827C7
:10F82000282B392B4A2B5B2B8D8190E0A0E0B0E098
:10F83000282B392B4A2B5B2B8C8190E0A0E0B0E089
:10F84000BA2FA92F982F8827282B392B4A2B5B2BCF
:10F85000220F331F441F551FC05EDE4F288339839C
:10F860004A835B83C052D1401A8259C13A81C95C34
:10F87000DE4F3883C753D140CA5CDE4F1882C6536F
:10F88000D1408B81C82EDD24CA5CDE4F488159816E
:10F89000C653D140C42AD52A933109F082C0CE5C28
:10F8A000DE4F88819981AA81BB81C253D1408050AB
:10F8B000904CA340B04030F583E0CE5CDE4FE88052
:10F8C000F9800A811B81C253D140F70100935B008C
:10F8D00080935700E89507B600FCFDCFCE5CDE4F65
:10F8E000088119812A813B81C253D14000501F4FAA
:10F8F0002F4F3F4FCE5CDE4F088319832A833B8313
:10F90000C253D140C05EDE4F488159816A817B81FC
:10F91000C052D140DE011B9631E08C9111962C91A2
:10F9200011971296C75CDE4F2883C953D140C85C3B
:10F93000DE4F1882C853D14090E0C85CDE4FE881AA
:10F94000F981C853D1408E2B9F2B0C01FA01609393
:10F950005B0030935700E89511244E5F5F4F6F4F67
:10F960007F4F0EEFE02E0FEFF02ECE0CDF1CC114F8
:10F97000D10499F685E0C05EDE4F088119812A81A5
:10F980003B81C052D140F80120935B008093570027
:10F99000E89507B600FCFDCF81E180935700E8951C
:10F9A00035C0C05EDE4F88819981AA81BB81C0527B
:10F9B000D140B695A795979587957C018601ABE0D8
:10F9C000AA2EB12CAC0EBD1E0BC0D5016D915D01F0
:10F9D000C7010F947FFE0894E11CF11C01501040F8
:10F9E0000115110591F7A60160E070E0440F551F65
:10F9F000661F771FC05EDE4FE880F9800A811B8199
:10FA0000C052D1404E0D5F1D601F711F1A82C05E33
:10FA1000DE4F488359836A837B83C052D1407FC0C5
:10FA2000FA80C55CDE4FF882CB53D140C65CDE4F16
:10FA30001882CA53D1408B81C82EDD24C65CDE4FAC
:10FA400008811981CA53D140C02AD12A1A828981DA
:10FA5000BE016D5F7F4F843121F59601C05EDE4FA0
:10FA6000E880F9800A811B81C052D1400BBFF701A9
:10FA700087919691DB018C9311969C936E5F7F4FDB
:10FA8000D801C7010296A11DB11DC05EDE4F88835B
:10FA90009983AA83BB83C052D14022503040F1F6F3
:10FAA00036C0C05EDE4F288139814A815B81C052F9
:10FAB000D1400894C108D108760100E010E0089414
:10FAC000C11CD11C0894E11CF11C011D111DE20E8A
:10FAD000F31E041F151F21BDBB27A52F942F832FB5
:10FAE00082BD2F5F3F4F4F4F5F4FF89A80B5DB01CC
:10FAF0008D93BD012E153F054007510761F7C05E8C
:10FB0000DE4F288339834A835B83C052D1409601FC
:10FB10002D5F3F4FFB01108204C080EC8A8322E0FE
:10FB200030E08BE18093C6008091C00086FFFCCF5F
:10FB30008091C00080648093C000C15DDE4FF88179
:10FB4000CF52D140F093C6008091C00086FFFCCF19
:10FB50008091C00080648093C000432F3093C60022
:10FB60008091C00086FFFCCF8091C00080648093AC
:10FB7000C000922F2093C6008091C00086FFFCCF6A
:10FB80008091C00080648093C0008EE08093C600A6
:10FB90008091C00086FFFCCF8091C000806480937C
:10FBA000C00065E1C15DDE4FE880CF52D1406E25D7
:10FBB00069276427FE01319610C090819093C6009A
:10FBC0008091C00086FFFCCF31968091C000806498
:10FBD0008093C0006927215030402115310569F715
:10FBE0006093C6008091C00086FFFCCF8091C0006A
:10FBF00080648093C00085B1805885B9772081F4F6
:10FC0000C15DDE4F0881CF52D1400F5FC15DDE4F35
:10FC10000883CF52D14090E0A0E0B0E00D941AF4F8
:10FC200027982F9880E090E020ED37E0F901319798
:10FC3000F1F7019684369105C9F700008091C00064
:10FC40008D7F8093C00081E180935700E895EE2777
:10FC5000FF270994FFCF90E00D941AF497FB092E2B
:10FC600007260AD077FD04D02ED006D000201AF443
:10FC7000709561957F4F0895F6F7909581959F4F08
:10FC80000895A1E21A2EAA1BBB1BFD010DC0AA1FDD
:10FC9000BB1FEE1FFF1FA217B307E407F50720F0F5
:10FCA000A21BB30BE40BF50B661F771F881F991F70
:10FCB0001A9469F760957095809590959B01AC01B9
:10FCC000BD01CF010895AA1BBB1B51E107C0AA1FAC
:10FCD000BB1FA617B70710F0A61BB70B881F991FED
:10FCE0005A95A9F780959095BC01CD010895F99991
:10FCF000FECF92BD81BDF89A992780B50895262F31
:10FD0000F999FECF1FBA92BD81BD20BD0FB6F89400
:0EFD1000FA9AF99A0FBE01960895F894FFCF63
:040000033000E000E9
:00000001FF
